:0200000420409A
:100000009711C05F93818118973200009382C23F9D
:10001000739052301701C0DF1301C1FE9700C0DF9B
:10002000938040FE638300008290732540F18145F8
:1000300001460D209700C0DF9380C0FC6383000061
:100040008290970200009382C20073905230032383
:100050000000F5BF06849711C05F938121131741FB
:10006000C05F1301219E137101FF01E1976200003F
:100070009382C2361703C05F1303C3F89713C05FA0
:1000800093834392638C6200635A730003A502005A
:1000900091022320A3001103E34A73FE976200003C
:1000A0009382C2331703C0E71303C3F59703C0E776
:1000B000938343F5638C6200635A730003A50200C7
:1000C00091022320A3001103E34A73FE1713C05FBC
:1000D0001303438D9733C05F9383C3166357730035
:1000E000232003001103E34D73FE11C2029617355E
:1000F000000013054557EF30A052EF30205AF32788
:1001000010303707010013078702F98F99C7F327CB
:1001100000300967D98F7390073005459765000057
:100120009385450517660000130606059128EF30F4
:080130008050A28082808280D1
:1001800035711305000306CF22CDE6DAEED626CB75
:100190004AC94EC752C556C35AC1DEDEE2DCEAD8B0
:1001A000EF00100FB71700801384C79B08C013051A
:1001B000000322C4EF00D00D1C40B71C0080938CBC
:1001C0000C9C23A0AC001CC189471CC5B76540200E
:1001D000930780025CC57D469385C5822322050076
:1001E0004105EF00D00B37674020930787DC032ED3
:1001F00087DC03A3470083A8870003A8C7008C4BB4
:10020000D04B944F03D7C70183C7E7013764402021
:10021000B71D0080231EE102230FF10213870DAAF0
:10022000A947130544A9232EF76472D01AD246D4E5
:1002300042D62ED832DA36DCEF00702A37654020FD
:100240001305C584EF00B029130544A9EF00302938
:10025000B717008083A7479C638F075237654020FC
:100260001305C587EF00B027130544A9EF00302719
:10027000376540201305858DEF00702637654020D7
:100280008C0013050591EF00D02CB7674020138533
:1002900047A9EF00D024376540209305007D130562
:1002A0004591EF00D0230145EF00D0403769402051
:1002B000832789DE376D4020032C8DE03EC2B717BF
:1002C00000809387079A3EC688C3B717008093873C
:1002D000479AB7140080B71B00808549130989DE4F
:1002E0003EC09384949A938B4B9B0944EF00C06566
:1002F00025258347E90103264901032E49000323ED
:1003000089008328C900032809018326890103572E
:10031000C901924E230FF1048C0085470810B2CA20
:100320003ECE22CAF6C0F2C29AC4C6C6C2C8B6CC75
:10033000231EE104EF00006A824752461335150080
:1003400088C36340C40293172600B297F51732851D
:100350008D4530083ECC29255246050632CAE35465
:10036000C4FEE246B71700801385879D93850DAACA
:10037000F52B03A50C00930A10040D4A752103C741
:10038000040093070004130B8DE063F1E702568528
:10039000930530040525F24713871A006304F53AE4
:1003A00083C70400937AF70FE3F357FFD247624BFA
:1003B0004808330AFA028509B34A6A0356CA0D216E
:1003C0009307107DE394F9F20145371D0080EF009B
:1003D000702E130D0D9B2320AD00376540201305B3
:1003E0004594EF00D00F37644020130544A9EF0077
:1003F000100F3765402013054595EF00500E13058B
:1004000044A9EF00D00D83A50B00376540201305EC
:10041000C59837644020EF00900C95451305849AE9
:10042000EF00F00B8247376540201305459C8C4355
:1004300037694020B76D4020EF00700A85451305ED
:10044000849AEF00D009B717008083C5879A376573
:1004500040201305059EEF00900893051004130536
:10046000C99FEF00D00783C50400376540201305FE
:1004700085A1EF00D006930520041305C99FEF0066
:100480001006B71700809387879D8C5337654020EF
:10049000130545A3EF00B0049D451305849AEF00B2
:1004A0001004B7170080938707AA83A5C76537652F
:1004B0004020130505A5EF00900237654020130585
:1004C000C5A6EF00D00137654020130585A9EF00D0
:1004D000100183A70C0013854DAA376C40208C4374
:1004E000B76B4020B7694020EF00607F3765402040
:1004F000130505ACEF00A07E83A70C0013054CAFDD
:1005000037694020CC43B7644020330A6A41EF008A
:10051000007D81451305849AEF00607C83A70C0061
:1005200013850BB18C47EF00807B89451305849AB6
:10053000EF00E07A83A70C001385C9B2CC47EF0027
:10054000007AC5451305849AEF00607983A50C00F5
:10055000130589B4C105EF008078138544B6EF0018
:100560000078376540201305C5B9EF004077A24CED
:1005700013854DAA83A70C008C43EF0040763765A6
:100580004020130505BBEF00807583A70C00130501
:100590004CAFCC43EF00A07481451305849AEF0063
:1005A000007483A70C0013850BB18C47EF002073F8
:1005B00085451305849AEF00807283A70C0013858C
:1005C000C9B2CC47EF00A071C9451305849AEF006A
:1005D000007183A50C00130589B4C105EF002070DC
:1005E000138544B6EF00A06FD24537654020130550
:1005F00005BFEF00C06E95451305849AEF00206E8D
:1006000093173A00338A474137654020B3055A4172
:100610001305C5C0EF00A06CB5451305849AEF0023
:10062000006CE24537654020130585C2EF00206B62
:100630009D451305849AEF00806AF2453765402096
:10064000130545C4EF00A06985451305849AEF00A2
:100650000069376540200C10130505C6EF002068BF
:10066000376540201305C5C7EF0060673765402038
:100670008C00130545CBEF008066376540201305DD
:1006800005CDEF00C06537644020130544A9EF0095
:100690000065B24703250D0098438547198D37172C
:1006A00000802324A79C63D3A710EF203046B767B0
:1006B000402083A5478237644020AA89EF20501D3F
:1006C00083258482B71400809384849BEF20A077D5
:1006D00088C003258482CE8537140080EF20A07661
:1006E0001304C49A08C037654020130505D6C52BEE
:1006F000884037694020EF20703BAA85130509D94F
:10070000F92B37654020130585D9D12B0840EF2000
:10071000F039AA85130509D9D923B7674020138575
:1007200047A9752BFA406A44DA444A49BA492A4A29
:100730009A4A0A4BF65B665CD65C465DB65D01453F
:100740000D6182806C080145E12C03234B00832856
:100750008B000328CB0003250B0183254B010326C7
:100760008B018356CB010347EB0183C70400850A45
:10077000E2C09AC2C6C4C2C6AAC8AECAB2CC231EC0
:10078000D104230FE10423A03B0193FAFA0F4E8A10
:10079000E3FF57BF21B9376540201305858A8123C0
:1007A000B7674020138547A91D2BD9B43765402072
:1007B000130585D02D2337654020130505D4052367
:1007C000130544A9292BB9BF9707C0DF93878783F7
:1007D00099C717350000130505E96F207064828002
:1007E000B717008003C7879A930710046303F700C5
:1007F00082801C41371700800327479BA507998FEC
:100800001CC1828000000000B71700809387079CFE
:10081000904301C6184218C19043B717008083A5C2
:10082000479B310629452DAA41114AC0371900803E
:100830001309099C8327090022C40041984326C25A
:1008400083AE470003AE870003A3070183A84701D7
:1008500003A887018C53D053945706C6AA84C84F67
:10086000DC5718C0984048CC5CD42322D40195476B
:100870002324C40123286400232A1401232C040107
:100880000CD050D014D4DCC45CC418C02285AD3F59
:100890005C40B1CF9C40B240224483AF070003AF1D
:1008A000470083AE870003AEC70003A3070183A8F8
:1008B000470103A88701CC4F9053D4539857DC5776
:1008C00023A0F40123A2E40123A4D40123A6C4019C
:1008D00023A8640023AA140123AC0401CCCC90D03B
:1008E000D4D098D4DCD40249924441018280884417
:1008F0009947930584005CC4252283270900484456
:100900001306C4009C43B24092441CC022440249D6
:10091000A9454101B1A00000B717008083C7879A9D
:10092000371700801307479A14439387F7FB93B751
:100930001700D58F1CC3B717008013072004A384AA
:10094000E79A828000000000B717008013071004A8
:100950002384E79AB717008023A2079A82800000B9
:100960000905AA950CC282800000000013075600FA
:100970001308800C330807030A06931727003E95D7
:1009800014C138DD54C1B307C800AE97944BD8CB1F
:1009900098CF1387160098CB1C41C295B295056677
:1009A000B29523AAF5FA1547B717008023AAE79A4C
:1009B000828000001375F50F93F5F50F6304B50001
:1009C00001458280B71700802384A79A054582805D
:1009D00000000000411122C426C206C62A84AE844B
:1009E00083C5340003452400F1377DF9A6852285AF
:1009F0005D2681476358A000B7170080294723AAC6
:100A0000E79A8547B240224492443E854101828064
:100A100000000000791513351500828000000000E9
:100A2000411122C426C206C62A84AE84E5371DC9F8
:100A300080C08547630DF40263DE870009476303C6
:100A4000E40491476313F40098C0B24022449244F6
:100A5000410182807DF8B240224423A004009244E8
:100A6000410182808D479CC08547E317F4FCB7178E
:100A7000008003A7479B93074006E3CEE7FC8D4722
:100A80009CC0E1B7B24022449CC0924441018280A4
:100A90009707C05F938787EFAA85884395A2B3C75E
:100AA000A5008D8B3307C50081E78D4763EEC70036
:100AB000AA876370E50A83C6050085078505A38FAD
:100AC000D7FEE3EAE7FE828093763500AA8791CAD3
:100AD00083C6050085078505A38FD7FE93F63700EB
:100AE000FDB79376C7FF138606FE63F0C70683A3A0
:100AF000050083A2450083AF850003AFC50083AE28
:100B0000050103AE450103A3850183A8C5019385B3
:100B1000450223A0770003A8C5FF23A2570023A402
:100B2000F70123A6E70123A8D70123AAC70123AC15
:100B3000670023AE17019387470223AE07FF75B7FF
:100B400090419107910523AEC7FEE3EBD7FEE3E4A6
:100B5000E7F68280CDC583A7C5FF411122C406C632
:100B600026C21384C5FF63D307003E94AA84D5250B
:100B70009707C05F9387C7E59C4389EF2322040052
:100B80009707C05F23A687E42244B240268592449B
:100B90004101C9A5637EF40014403307D400639675
:100BA000E7009843DC43369718C05CC0D1BFBA87D2
:100BB000D84319C3E37DE4FE94433386D700631F13
:100BC00086001040B29694C33386D700E31EC7FA5E
:100BD00010435843B29694C3D8C37DB76375C4001D
:100BE000B1479CC055B71040B306C4006316D70088
:100BF00014435843B29614C058C0C0C371B7828022
:100C0000011126CA93843500F19806CE22CC4AC839
:100C10004EC6A104B14763F7F404B14463E6B404DB
:100C20002A89052D9707C05F938787DA98433A840E
:100C300031E49707C05F9387E7D99C4381EB8145F7
:100C40004A85F9289707C05F23A6A7D8A6854A85B5
:100C5000C128FD5963193507B1472320F9004A859A
:100C6000D52B29A0E3DC04FAB1471CC10145F240B1
:100C70006244D2444249B249056182801C40858F5A
:100C800063C00704AD4663F6F6001CC03E9404C082
:100C900001A85C40631487021707C05F232AF7D2BC
:100CA0004A854D2B1305B40093074400619933071F
:100CB000F54055DF3A94898F1CC055BF5CC3CDB752
:100CC00022874040B5B7130435007198E30185FCD5
:100CD000B305A4404A85A920E31B35FBB5BF397194
:100CE0003EDA2ED232D436D63AD842DC46DE9707E8
:100CF000C05F9387A7C922CC804326CA06CEAA84A8
:100D000009C41C4C99E32285612C0C44541026869E
:100D1000228536C67D23F2406244D244216182801E
:100D2000411122C42A842E859727C05F23AA075029
:100D300006C6EF205000FD576319F5009727C05FE6
:100D4000938707509C4391C31CC0B2402244410189
:100D5000828039713EDA2ED232D436D63AD842DC8D
:100D600046DE9707C05F938767C222CC804326CABE
:100D700006CEAA8409C41C4C99E3228515244C4054
:100D800054102686228536C6EF005039F240624460
:100D9000D244216182803367B500FD530D8B79E722
:100DA000B7877F7F9387F7F710419441B372F600BE
:100DB0003363F600BE92B3E262006397720C63186D
:100DC000D6065041D441B372F6003363F600BE92AA
:100DD000B3E262006398720A631BD604104594451F
:100DE000B372F6003363F600BE92B3E26200639121
:100DF000720A631ED6025045D445B372F6003363BF
:100E0000F600BE92B3E26200639A72086311D602E2
:100E100010499449B372F6003363F600BE92B3E210
:100E20006200639372085105D105E30FD6F61317DC
:100E3000060193970601631CF7001357060193D729
:100E400006013305F7409375F50F91E982804183E0
:100E5000C1833305F7409375F50F91E182801377D5
:100E6000F70F93F7F70F3305F7408280034605002D
:100E700083C60500050585056313D60065FA3305AD
:100E8000D640828011059105E312D6FE014582808D
:100E90002105A105E31CD6FC014582803105B10581
:100EA000E316D6FC014582804105C105E310D6FC5E
:100EB0000145828001119707C05F938727AD22CC3F
:100EC0002A84884301468A8506CE75246356050028
:100ED0007D57FD573AC03EC20245924519C008C031
:100EE0004CC0F240624405618280411122C406C6B2
:100EF0002A842316B5002317C500232005002322CA
:100F00000500232405002322050623280500232AA3
:100F10000500232C0500214681451305C5057124D4
:100F200097170000938787C45CD0971700009387BA
:100F300007C71CD497170000938747CB5CD497173B
:100F40000000938707CE00D01CD8B2402244410154
:100F50008280971500009385051F45AA411126C27E
:100F6000130680069384F5FFB384C4024AC02E8919
:100F700022C406C69385440761312A8419C92320F7
:100F8000050023222501310508C413868406814506
:100F9000292C2285B2402244924402494101828098
:100FA0001C4DBDE3411106C622C49707000093877C
:100FB00087FA1CD59707C05F9387879D9C4323249E
:100FC000050423260504232805046314F50085473A
:100FD0001CCD2A841D2848C02285052808C42285E6
:100FE0002D2048C448400146914501370844054634
:100FF000A545E53D48440946C945C53D85471CCC46
:10100000B240224441018280828041119707C05F33
:101010009387079826C284434AC006C69C4C22C4C4
:101020002A8999E32685AD3F938484048044DC407B
:10103000FD1763D607009C40B1CF8440C5BF03179E
:10104000C40031E7C177850723220406232004006A
:1010500023220400232404005CC423280400232A40
:101060000400232C0400214681451305C405352ABC
:10107000232A0402232C0402232404042326040428
:101080002285B240224492440249410182801304E5
:10109000840679BF91454A85D13588C059FDB1474D
:1010A0002320F9000144E9BF797122D44AD052CCFF
:1010B00056CA06D626D24ECE130485040149054AE7
:1010C000FD5A19E8B25022544A8592540259F24905
:1010D000624AD24A45618280044483294400FD1952
:1010E00063D409000040F1BF83D7C400637CFA00D9
:1010F0008397E4006388570126852EC68295B24502
:101100003369A90093848406D9BF797122D44AD067
:1011100052CC56CA5AC85EC606D626D24ECE2A8AA7
:10112000AE8A130485040149054BFD5B09ECB250FE
:1011300022544A8592540259F249624AD24A424B99
:10114000B24B45618280044483294400FD1963D475
:1011500009000040E1BF83D7C400637BFB00839795
:10116000E40063877701A6855285829A3369A900D6
:1011700093848406E1BF411122C42A842E85B2855E
:101180009727C05F23AE070A06C6EF20402CFD5705
:101190006319F5009727C05F9387870A9C4391C323
:1011A0001CC0B2402244410182803D432A876373C0
:1011B000C3029377F700BDEFADE5937606FF3D8A56
:1011C000BA960CC34CC30CC74CC74107E36BD7FEA0
:1011D00011E28280B306C3408A0697020000969609
:1011E0006780A6002307B700A306B7002306B70051
:1011F000A305B7002305B700A304B7002304B70075
:10120000A303B7002303B700A302B7002302B7006C
:10121000A301B7002301B700A300B7002300B70064
:10122000828093F5F50F93968500D58D93960501F1
:10123000D58D61B793962700970200009696868217
:10124000E78086FA9680C1171D8F3E96E374C3F837
:10125000A5B7828082801C46FD171CC663DA070092
:10126000184E63C5E700A9476394F5006F00B035D9
:101270001C422E851387170018C22380B700828076
:10128000011122CC26CA4AC84EC652C406CE2A89AB
:10129000AE893284B304D6007D5A631494000145AC
:1012A00009A8834504004E864A8575370504E31670
:1012B00045FFF2406244D2444249B249224A0561A4
:1012C0008280357122CD26CB4AC94EC706CF52C582
:1012D00056C35AC1DEDEE2DCE6DAAA89AE84328980
:1012E000368401C51C4D91E36539975700009387FB
:1012F000E7B5639CF40C83A4490083D7C400A18B99
:10130000FDC79C48EDC793070002A304F1029307B1
:10131000000302D22305F10222C6930B5002975A12
:101320000000938AAAB6054C294B4A8483470400DF
:1013300099C36391770FB30C2441638D0C00E6864B
:101340004A86A6854E852D3FFD576309F51E9256A8
:10135000E69636D2834704006382071EFD571309C1
:10136000140002C802CE3ECA02CCA309010482D4F2
:101370008345090015465685EF00307E1304190099
:10138000C24759E913F7070109C713070002A30968
:10139000E10413F7870009C71307B002A309E104AA
:1013A000834609001307A0026380E608F2474A84D7
:1013B000814625460347040093051400130707FDE3
:1013C0006379E60AB5CA3ECE85A897570000938791
:1013D000E7A96395F40083A4890005B79757000037
:1013E0009387C7A4E39BF4F083A4C90039B7A6850B
:1013F0004E85EF00D02C01D97D55FA406A44DA447D
:101400004A49BA492A4A9A4A0A4BF65B665CD65C54
:101410000D618280050419BF330555413315AC00B9
:10142000C98F3EC82289A9B732479306470018439F
:1014300036C6634907023ACE034704009307E00229
:10144000631FF704034714009307A002631BF7020E
:10145000B2470904138747009C433AC663C1070299
:101460003ECA35A83307E04093E727003ACE3EC88E
:10147000E1B7B387670385462E84BA9725BFFD572A
:10148000C5B7050402CA81468147254603470400C3
:1014900093051400130707FD6378E606F1F2834510
:1014A00004000D46175500001305C59EEF00F06AB5
:1014B00011CD975700009387E79D1D8D930700047A
:1014C000B397A700424505045D8D2AC883450400F3
:1014D0001946175500001305259C13091400230411
:1014E000B102EF0090673DC197F7BFDF938787B1E7
:1014F00095E74247B2471377071009CF91073EC6D9
:101500009257D2973ED215B5B387670385462E848E
:10151000BA97ADBF9D07E19BA107D5B778009706A5
:101520000000938626D626860C084E85970000007C
:10153000E7000000FD572A8AE314F5FC83D7C400B6
:1015400093F70704E39A07EA125545BD780097061A
:101550000000938626D326860C084E85EF00F07790
:10156000D1BF130101D29707000093878774232608
:10157000312D232CF1289309C1019707000093878F
:10158000C740232C812C232A912C2328212D23246E
:10159000412D2322512D2320612D232E712B232C0D
:1015A000812B232E112C232A912B2328A12B232698
:1015B000B12BAA842E84232401122326011223286E
:1015C0003113232EF12836CC130A5002130BA0023C
:1015D000A54B2949975A0000938ACA8B17FCBFDF95
:1015E000130C4CA28347060032C663860732EF0015
:1015F000703E3246834D0600930C16006E9583476D
:101600001500A18BB1C35C406359F002EF00903C20
:101610001C4003C707003A9503471500218B19E3C7
:101620006686C9B70327C11285071CC00507232694
:10163000E11258407D1758C0F9B78327C129A28508
:101640002685829761D5E9BF639B4D17232201123E
:10165000232E01108347160063976701C147232E8D
:10166000F110930C260083C50C00668D850C9387C2
:1016700005FD63F0FB060D465685EF00104E01CDCB
:10168000330555418547B397A7000325C111668DE2
:101690005D8D232EA11083470D0013077006930C58
:1016A0001D006366F7081307500663F0E71C130775
:1016B0007004636AF7021307500463F8E71A638C37
:1016C0000712638E470F8D47232AF112232021131F
:1016D00061A083274112B307F902938707FDAE97F4
:1016E0002322F11249B71307B0056384E71263653B
:1016F000F70213078005E398E7FC0327C11113677E
:101700000720232EE11041472320E1121307E006B2
:10171000B337F7008D073DA8130730066387E7103E
:1017200013074006E391E7FA23202113C5B71307F7
:1017300000076384E70C6366F7061307E006638F10
:10174000E70E6363F70C13079006E39EE7F623208A
:1017500001128D47232AF1125C40635AF01083274F
:10176000C11193F7070481EFEF00D0261C4003C797
:1017700007003A9503471500218B63120710832752
:10178000411309476342F712340822866C0A268502
:10179000EF00D07E85476300F5188947E312F5E82E
:1017A00081A813075007E381E7F813078007E38652
:1017B000E7F413073007E398E7F0894761BF5C401F
:1017C0006352F0021C4003C707006316B715850774
:1017D00058401CC08327C1127D1758C08507232697
:1017E000F1123DBD8327C129A2852685829779D92B
:1017F0000325811279ED7D55D5A00327C11113670B
:101800000702232EE110D5BDA1472320F1129147F5
:1018100091B7E6854E85D1248327C111AA8C93E721
:101820000704232EF110854735B78327C111232ADA
:10183000011293E70704232EF11039BF8327C1114A
:1018400013F70701E31E07DC624793F517008326B1
:10185000C1121306470091C532CC1C432390D70018
:10186000C1B332CC1C4394C365BB9547E5B5832710
:10187000C129A28526858297E30305EE95BF03273C
:10188000C11205072326E11258407D1758C0635541
:10189000E00085071CC0C9BD8327C129A285268514
:1018A0008297E30305ECA9B711476349F7003408B1
:1018B00022866C0A2685EF00307BE9BDE3020CD658
:1018C000340822866C0A268597000000E700000095
:1018D000D1B58357C40093F7070491FF8320C12D2E
:1018E0000324812D8324412D0329012D8329C12C1B
:1018F000032A812C832A412C032B012C832BC12BFF
:10190000032C812B832C412B032D012B832DC12AEA
:101910001301012E828003258112C9B7011122CC47
:1019200006CE2A8419C91C4D89EB36C632C42EC294
:10193000EFF00FE7B24622469245974700009387A3
:10194000E7506398F5004C4022856244F2400561FF
:1019500009B997470000938767516394F5000C44D9
:10196000E5B7974700009387674CE39FF5FC4C442D
:10197000E1BF8357C5002547A58B6394E7006F003F
:10198000B00201458280011122CC26CA06CE4AC887
:101990004EC6AA842E8409C51C4D99E3EFF04FE092
:1019A000974700009387874A631FF400C0400317DE
:1019B000C4002322040093170701C18393F6070292
:1019C0009DC2FD57F5A8974700009387274A6314E7
:1019D000F4008044E9BF9747000093872745E31848
:1019E000F4FCC044E9B793F64700D5EA93F6070143
:1019F00081EAA5479CC0136707042316E400D1B70A
:101A0000A18B91CFA28526852D2F45FD8357C4003C
:101A100023240400232C0400DD9B2316F4008357A9
:101A2000C40093E747002316F4001C4889E7A28509
:101A30002685EF00F0048319C40013990901135996
:101A40000901937739008DCB85472316F40097F76A
:101A5000BF5F9387E7F38843970500009385A5F15F
:101A600013799900EFF04FE4A5472316340163156D
:101A7000F900A2852685792310485C5054480C5003
:101A800010C02685829748C08147634BA002831708
:101A9000C4001DED93E707022316F4001DB74C5850
:101AA000C9D5930744046385F5002685EFF08F8A36
:101AB0003C40232A04025CC0ADDB5C5C1CC0814757
:101AC000F2406244D2444249B2493E850561828077
:101AD0002322040093E70704C1B783C70500130757
:101AE000E0056388E70413871500814601469305E6
:101AF00000103308C5002300D8000506E31BB6FE1E
:101B00001306F7FF8DC793C616009308D00213087B
:101B1000D0053306F5002300D600834507001306E1
:101B20001700638415036384050191E93A863285C1
:101B300082801387250083C71500854645BFAE8781
:101B40003287C1BF9307D002E5BF83451700E38BFF
:101B500005FFE3C9F5FE090785073306F5002300F5
:101B6000D600E3CBB7FE55BF411122C42E84839526
:101B7000E50006C6EF009075634905007C48AA970A
:101B80007CC8B2402244410182808357C4007D77E3
:101B90007D17F98F2316F400EDB783D7C500011127
:101BA00022CC26CA4AC84EC606CE93F70710AA848E
:101BB0002E843289B68991C78395E500894601460E
:101BC000052D8357C4007D777D17F98F2316F40008
:101BD0008315E4006244F240CE864A86B249424907
:101BE0002685D24405614DA4411122C42E848395DB
:101BF000E50006C6F52BFD570357C400631BF5002F
:101C0000FD77FD17F98F2316F400B24022444101FD
:101C100082808567D98F2316F40068C8FDB7839545
:101C2000E50045AE011122CC2E84CC5906CE26CA41
:101C30004AC84EC652C4930744046395F5049305FD
:101C40000040EFE0FFFB11E97D55F2406244D244D1
:101C50004249B249224A05618280930700401CDC58
:101C60008347640448D81305D53F2301F500834713
:101C70005404A300F500834744042300F50008C082
:101C80000145E1B703298403931919004E86DD2528
:101C9000AA845DD9330A2501AA854A865285EFE0D8
:101CA0001FE02320440144D8232C3403D1BF011169
:101CB00006CE22CC26CA4AC84EC6FD57639BF50005
:101CC000FD54F240624426854249D244B24905613E
:101CD00082802A89AE84328409C51C4D99E3EFF0D5
:101CE0002FAC9747000093876716631BF406032405
:101CF00049008317C40093F7F7FD2316F400C207C9
:101D0000C18313F747000DEB13F7070155DBA18BD8
:101D100091CFA2854A85352145F58357C4002324F8
:101D20000400232C0400DD9B2316F4008357C40019
:101D300093E747002316F4005C5893F9F40F5840DA
:101D400093F4F40FA9C71C5C635EF7021C40138771
:101D5000F7FF18C0A38F37FF5C4085075CC095B7BD
:101D600097470000938787106315F40003248900C8
:101D700049B7974700009387670BE31CF4F60324E9
:101D8000C90085BFA2854A85713D69D115BF144838
:101D90001C4081CE63FBF60083C6F7FF6397960075
:101DA000FD1705071CC058C029BF5CDC930744041D
:101DB0005CD88D471CDC930764041CC038C0230327
:101DC0003405854761BF011122CC26CA4AC806CE18
:101DD0004EC6AA842E89328409C51C4D99E3EFF0C2
:101DE0002F9C97470000938767066319F406C0404D
:101DF0001C4C1CC48357C400A18BC9C31C48BDCF55
:101E00001C4808409379F90F1379F90F1D8D5C4830
:101E10006346F500A28526852D262DE51C44050583
:101E2000FD171CC41C401387170018C023803701FE
:101E30005C486389A7008357C400858B81CBA94781
:101E40006316F900A2852685ED2C0DEDF240624463
:101E50004A85D2444249B2490561828097470000D1
:101E60009387C7006314F400804459B79747000074
:101E70009387C7FBE31EF4F6C0449DBFA285268569
:101E80003D283DDD7D59D9B7411122C42A842E85D4
:101E9000B28536869717C05F23A4073A06C6EF10AF
:101EA0004071FD576319F5009717C05F9387473955
:101EB0009C4391C31CC0B240224441018280411125
:101EC00097F7BF5F938787AC26C2844322C44AC07A
:101ED00006C62A892E8491C49C4C81E72685EFF0A2
:101EE0002F8C97470000938767F6631CF402C0406D
:101EF0000317C40093170701C18393F68700BDEE53
:101F000093F607019DEEA5472320F9001367070408
:101F10002316E4007D55B240224492440249410117
:101F2000828097470000938767F46314F40080442D
:101F3000C1B797470000938767EFE31BF4FAC044EB
:101F400045BF918B95C74C5891C99307440463854D
:101F5000F5004A85EFE01FC0232A04028357C4001E
:101F60002322040093F7B7FD2316F4001C481CC07D
:101F70008357C40093E787002316F4001C4881EFC1
:101F80008357C4001307002093F707286385E700F1
:101F9000A2854A85F5248357C40013F7170005C7A7
:101FA0005C4823240400B307F0401CCC1C480145C6
:101FB000BDF38317C40013F7070831DF93E7070465
:101FC0002316F40081BF898B014791E3584818C458
:101FD000F1BF411122C42A842E859717C05F23A127
:101FE000072606C6EF102042FD576319F500971724
:101FF000C05F9387E7249C4391C31CC0B240224436
:102000004101828083D7C500011122CC26CA06CEA9
:102010004AC84EC613F78700AA842E8479EFD841A8
:10202000634DE000B841634AE0000145F24062447C
:10203000D2444249B2490561828058547DD703A9F0
:1020400004009396370123A0040063DE060670485F
:102050008357C400918B99C75C401D8E5C5899C30F
:102060003C401D8E5C540C50814626858297FD575E
:102070000357C400631DF5009440F54763E9D70694
:10208000B70740208507B3D7D700858BADC31C4861
:10209000232204001CC09317370163D80700FD57A3
:1020A0006314F5009C4091E368C84C5823A02401B8
:1020B000ADDD930744046385F5002685EFE09FA915
:1020C000232A04029DB70C500146854626850297B7
:1020D000FD572A86E31EF5F69C40BDDB75476385F8
:1020E000E70059476394E70423A024013DBF136729
:1020F00007042316E4007D5515BF83A90501E38677
:1021000009F203A905008D8B23A03501330939415C
:10211000014791E3D84918C4E35920F11C540C50ED
:10212000CA864E86268582976349A0008357C400DD
:1021300093E707042316F4007DBFAA993309A94049
:10214000E1BF9C49A5C3011122CC06CE2A8419C542
:102150001C4D89E72EC6EFE0BFE4B245974700006B
:102160009387C7CE639BF5004C408397C50095C706
:1021700022856244F240056171B59747000093875C
:10218000E7CE6394F5000C44CDB7974700009387E2
:10219000E7C9E39CF5FC4C44C9BFF24062440145E9
:1021A0000561828001458280AA8501ED97E7BF5FC6
:1021B0009387077E8843970500009385C5F86FE0F5
:1021C000DFF497E7BF5F9387677C88439DBF032554
:1021D000C50E828097E7BF5F9387477B9C439C53E4
:1021E00089E797E7BF5F9387E7E703A5C70E82807C
:1021F000411122C42A842E85B28536869717C05F86
:1022000023A0070406C6EF10C02DFD576319F50083
:102210009717C05F9387C7029C4391C31CC0B2400D
:102220002244410182801971A6DAAE848395E500CB
:10223000A2DC86DE328463DC050083D7C40023A0E1
:10224000060093F7070885E7930700401DA03008B4
:1022500036C6EF00F037B246E34105FE7247BD6770
:10226000F98F7977BA9793B717009CC2F1BF93079C
:1022700000041CC0F6506654D654014509618280A2
:1022800083D7C500011122CC06CE26CA4AC8898B45
:102290002E8489CF930774041CC01CC885475CC872
:1022A000F2406244D24442490561828074003000A9
:1022B000AA84953FA2452A892685EFE07F9401ED07
:1022C0008317C40013F7072061FFF19B93E72700F2
:1022D0002316F400C1B797F7FFFF9387C7C79CD4B5
:1022E0008357C40008C008C893E707082316F40002
:1022F000A2475CC8B24791CF8315E4002685EF0062
:10230000503001C98357C400F19B93E7170023168F
:10231000F4008357C4003369F9002316240149B738
:1023200085E141116C00014511CA795581CA834785
:1023300006009CC1034506003335A00041018280A0
:10234000014519CA795589CA834706009CC10345CE
:1023500006003335A0008280828093F5F50F2A961F
:102360006314C5000145828083470500E38DB7FEF5
:102370000505FDB781E5B2856FE09F88011122CC8C
:1023800006CE26CA4AC84EC6328401EEEFE08FFC64
:102390000149F24062444A85D2444249B24905614A
:1023A0008280AE84AA89EF00D0282689E37385FE57
:1023B000A2854E85EFE0DF842A8961DDA68522862D
:1023C000EFE0EFEDA6854E85EFE0CFF8D9B7797154
:1023D00056CA9C49BA8A984522D426D24ECE52CCAF
:1023E00006D64AD05AC85EC6AA892E84B284368AD6
:1023F00063D3E700BA879CC00347340419C3850739
:102400009CC01C4093F7070281C79C4089079CC071
:102410000329040013796900631A0900130B94015E
:10242000FD5B5C449840998F634CF9041C408346E3
:10243000340493F70702B336D000A5EB1306340437
:10244000D2854E85829AFD576303F5041C401146E0
:102450009840998B544481446397C700B384E64005
:1024600063D3040081441C4418486354F700998FD7
:10247000BE94014969047D5B63982405014509A860
:1024800085465A86D2854E85829A631E75017D5592
:10249000B250225492540259F249624AD24A424BF3
:1024A000B24B456182800509ADBF3307D4001306E6
:1024B0000003A301C7040347540493871600A2979F
:1024C0008906A381E7049DBF85462286D2854E8575
:1024D000829AE30E65FB050945B7797122D426D2AD
:1024E0004AD04ECE06D652CC56CA5AC8B68983C6F2
:1024F00085019307E0063289AA842E841386350469
:102500006380F61E63E2D706930730066382F60AFD
:1025100063EDD700638A061E930780056386F6166F
:10252000930A24042301D40469A893074006638610
:10253000F60093079006E395F6FE1C40084393F6D9
:10254000070893054500C1C21C410CC363D80700AE
:102550001307D002B307F040A301E404974600003C
:1025600093860695294765A0930730076382F61A7C
:1025700063EFD7009307F006638FF6049307000715
:10258000E390F6FA9C4193E707029CC109A89307E0
:1025900050076382F60493078007E393F6F89307E6
:1025A0008007A302F404974600009386A691DDA05D
:1025B0001C43938A2504938647009C4314C32381BC
:1025C000F5048547ADA293F607041C410CC3BDDE9C
:1025D000C207C187A5BF0C401C4313F8050813852B
:1025E00047006305080008C39C4339A093F5050420
:1025F00008C3FDD983D707001307F006638AE60CEA
:10260000974600009386C68A2947A30104044C40DC
:102610000CC463C5050008406D9908C099E3B28AEF
:1026200091CDB28AB3F5E702FD1AB69583C50500D0
:102630002380BA00B3D5E70263F2E70AA147631E1D
:10264000F7001C40858B91CB58401C4863C7E700BE
:1026500093070003A38FFAFEFD1A3306564110C8F4
:102660004E87CA867000A285268595337D5A6314ED
:10267000450D7D55B250225492540259F249624A96
:10268000D24A424B45618280A382D504974600001E
:10269000938606820C40084313F805081C41110577
:1026A0006300080208C313F7150001C793E505028C
:1026B0000CC04147B9FB0C4093F5F5FD0CC0B1B718
:1026C00013F8050408C3E30008FEC207C183E1BF95
:1026D000973600009386C67D214705BFAE8799B720
:1026E00094411C43CC4913F8060813854700630640
:1026F000080008C39C438CC301A808C393F60604D2
:102700009C43F5DA2390B70023280400B28A89BFDE
:102710001C43D04181459386470014C383AA070018
:102720005685253901C53305554148C05C401CC854
:10273000A301040435B714485686CA8526858299B4
:10274000E30945F31C40898B8DE7B2474844E353C6
:10275000F5F23E8505B785465686CA852685829957
:10276000E30965F1050A5C443247998FE345FAFEB7
:10277000E9BF014A930A94017D5BF5B79C450111BD
:1027800022CC26CA52C406CE4AC84EC656C25AC029
:102790002A8A2E84B28491E7984D854711C3FD574C
:1027A0001CC41C40C18B99E79C421387470098C208
:1027B00083A907000149854A094B084C1DC56312CE
:1027C00055099C4003C707005C48BA9783C70700B8
:1027D00089EF63180904F2406244D2444249B24985
:1027E000224A924A024B056182801C400509C18B36
:1027F00099E79C40850983C70700A38FF9FE98409D
:10280000DC40050798C01844FD17DCC07D1718C4CC
:1028100009CBE344F0FA83270418A68552858297F2
:1028200049DD1C40C18B81EB5C4485075CC41C4CBA
:1028300099C3238009001C4801453E99232824019F
:1028400059BF631C6501EFF0FF989C4083C70700E8
:102850003E9583471500A18BC9DBE31409FC084CA6
:102860008547E310F5FC85BF5D71973700009387BE
:10287000E767CAC03EC2368997370000938747672B
:10288000944D3EC4973700009387C766A2C44EDEBE
:102890005AD86ECE3EC686C6A6C252DC56DA5ED680
:1028A00062D466D26AD08D47AA892E84B28D170B66
:1028B0000000130BAB4E6396F600170B0000130BD2
:1028C000CB381C449306C015014A1386F7FF63F703
:1028D000C600138A37EA9307D0151CC41C408566CE
:1028E000938606D09304C401D58F1CC0130C4100FD
:1028F000A68A814B930C002083A70D0003250C00B2
:10290000094683C50700EFF05FA525C185476391A0
:10291000FB0E5C4099E71C40214758C093E7072015
:102920001CC01C4093F7F7AF1CC01C441386F7FF74
:1029300010C485CF03A60D00138D1A00930716004F
:1029400023A0FD00034606002380CA0003A64D0015
:10295000EA8A7D1623A2CD006349C000032604182D
:10296000EE854E850296631B0510850B8D47110C75
:10297000E394FBF85C4099E3A9475CC05C4048489D
:1029800097350000938545569D8DFD7B056C568DD2
:10299000EFF0AF94814A930C0003938BFB6F130C01
:1029A0000C8014441040C9C203A50D004C480348D4
:1029B0000500C29583C50500A5C963189805B375C0
:1029C0008601A1C5850A63050A0085067D1A14C41F
:1029D00083A64D00FD1623A2DD006351D00483A61B
:1029E0000D00850623A0DD001444FD1614C455BF58
:1029F0008947E39CFBF21C4013F60760E31796F748
:102A0000414758C093E7071005B73376760110C0E9
:102A100083460500050DA30FDDFE5DBF8326041868
:102A2000EE854E85829669D1144093F6061085C2D4
:102A300063FCA4018345FDFF8326C417130AFDFF31
:102A40006E864E858296528D0545630F9D04184013
:102A5000418B21E723000D0054400146A6854E8599
:102A6000029B14400327090013F6060211CA9306BD
:102A700047002320D900184308C329A8814A6DB70D
:102A800093F51600130647009DCD2320C900184377
:102A90002310A7005844050758C41C48B3049D40A0
:102AA000D694BE9404C80145B640264496440649CF
:102AB000F259625AD25A425BB25B225C925C025D6E
:102AC000F24D616182802320C90075B7411122C493
:102AD0002A842E85B28536869707C05F23A20776A3
:102AE00006C6EF00B022FD576319F5009707C05FD7
:102AF000938707759C4391C31CC0B2402244410197
:102B0000828079714AD04ECE06D622D426D2AA89A6
:102B10002E899304190003C4F4FF3A8536C632C4E3
:102B20002EC23AC0EFF0AFEA229583471500024764
:102B30009245A18B2246B246C9E79307D00263149F
:102B4000F40883C70400054393042900FDC64147E8
:102B50006392E60213070003639EE70083C7040045
:102B60001307800593F7F70D6394E70C83C71400F0
:102B7000C1468904B70800806314030093C8F8FFB6
:102B800033FFD80201480145A54FE54EFD5233DE23
:102B9000D802138707FD63E4EF04BA8763DFD70425
:102BA000630D58007D58636AAE006314AE0063463F
:102BB000FF0005483385A6023E95850483C7F4FFD0
:102BC000C9BF2689B9B79307B0026305F400A2878D
:102BD0000143ADBF83C7040093042900D5BF138709
:102BE000F7FB63E5EE00938797FC4DBF1387F7F97A
:102BF00063E5EE00938797FA55B7FD57631FF8001A
:102C00009307200223A0F900468519EEB250225402
:102C100092540259F24945618280630403003305EE
:102C2000A0406DD6630408009385F4FF0CC2F9BF81
:102C300093070003A1F2A14635BF13070003E38FFA
:102C4000E7F0A94605BF97E7BF5F938727D49C436A
:102C5000985309E717D7BF5F1307C7405DB5797170
:102C60004AD04ECE06D622D426D2AA892E899304E3
:102C7000190003C4F4FF3A8536C632C42EC23AC0E6
:102C8000EFF0EFD422958347150002479245A18BC0
:102C90002246B246BDEF9307D002631EF40683C7F7
:102CA0000400054393042900F5C241476392E602FC
:102CB00013070003639EE70083C704001307800522
:102CC00093F7F70D639FE70A83C71400C146890491
:102CD0007D57335ED70201480145254FE54EB37855
:102CE000D702138707FD6364EF04BA8763D1D70661
:102CF000634D08047D58636AAE006314AE0063C67A
:102D0000F80005483385A6023E95850483C7F4FF85
:102D1000C9BF2689A9BF9307B0026305F400A28743
:102D2000014359B783C7040093042900D5BF138713
:102D3000F7FB63E5EE00938797FC4DBF1387F7F928
:102D400063E7EE00938797FA55B77D587DBF635FC1
:102D500008009307200223A0F9007D5519EEB25018
:102D6000225492540259F24945618280630403005F
:102D70003305A0406DD6630408009385F4FF0CC2B0
:102D8000F9BF93070003A9F6A14699B713070003FB
:102D9000E384E7F2A9462DBF97E7BF5F938707BF9C
:102DA0009C43985309E717D7BF5F1307A72B45BD6F
:102DB00091CD9307F00F63F7C7009307A0081CC1DC
:102DC0007D5582802380C500054582800145828033
:102DD000411122C42A842E85B2859707C05F23A1A2
:102DE000074606C69125FD576319F5009707C05F92
:102DF000938707459C4391C31CC0B24022444101C4
:102E00008280411122C42A842E859707C05F23A99E
:102E1000074206C67D25FD576319F5009707C05F79
:102E2000938707429C4391C31CC0B2402244410196
:102E3000828083A7C5FF1385C7FF63D50700AA95C6
:102E40009C413E958280011126CA935475014AC85F
:102E50004EC652C49319950006CE22CC56C293F4A6
:102E6000F40F2E8A93D999001359F501B5C493072D
:102E7000F00F638FF4068E09B7070004B3E9F90079
:102E8000938414F8814A13557A0113149A00137528
:102E9000F50F2580135AFA0135C59307F00F630F1C
:102EA000F5060E04B70700045D8C130515F881477D
:102EB00093962A00DD8EFD16394733464901338546
:102EC000A4406366D70697350000938525138A06CC
:102ED000AE9698422E970287638309024E85E521BC
:102EE0009307B5FF9304A0F8B399F900898C59BFF3
:102EF0009304F00F894AE38809F88D4A69B7814441
:102F0000854A51B715C022857D299307B5FF331433
:102F1000F4009307A0F83385A74051BF1305F00FC5
:102F2000894759D48D4769B70145854751B713186B
:102F3000540063FE890A7D1581461354080133D37A
:102F40008902C167FD17B377F800C18233F78902A0
:102F50009A85B38867024207558F637C17014297B1
:102F60009305F3FF63670701637517019305E3FF9B
:102F7000429733071741B358870233778702B386E6
:102F8000170393170701468763FCD700C29713877F
:102F9000F8FF63E7070163F5D7001387E8FFC297DF
:102FA00013940501958F598CB337F0005D8C13078E
:102FB000F507635AE0089377740099C79377F40094
:102FC00091466383D70011049317440063D8070028
:102FD000B70700F8FD177D8C130705089307E00F6E
:102FE0000D8063D9E70201441307F00F25A09396E3
:102FF000F90193D9190091B74A864E84D6870947BB
:10300000E383E7FE0D47638FE7060547E391E7FAA1
:103010000144014726041377F70F5E072580598C7A
:103020001315F601418DF2406244D2444249B2493F
:10303000224A924A056182805286D1B73704400005
:1030400001468D476DBF8547998F6D47E342F7FC79
:103050001305E509B357F4003314A400333480009A
:103060005D8C9377740099C79377F400114763835D
:10307000E7001104931754000D80E3DC07F80144C6
:10308000054749BF370440001307F00F014659B701
:1030900001114AC81359750126CA4EC656C2931467
:1030A000950006CE22CC52C41379F90FAE8AA580C2
:1030B0009359F501630709069307F00F630FF906AB
:1030C0008E04B7070004DD8C130919F8014A13D5E3
:1030D0007A0113949A001375F50F258093DAFA019B
:1030E00035C59307F00F630FF5060E04B70700040C
:1030F0005D8C130515F8814713172A005D8F4A95DB
:103100007D17B945B3C659011306150063E5E506F9
:1031100097350000938545F20A072E9718432E979E
:10312000028795C0268545249307B5FF1309A0F8AB
:10313000B394F4003309A94051BF1309F00F094AB1
:10314000D9D40D4A69B70149054A51B715C022853E
:103150009D2C9307B5FF3314F4009307A0F8338533
:10316000A74051BF1305F00F894759D48D4769B760
:103170000145854751B7C1671383F7FF13D7040192
:1031800093550401B3F4640033746400B38884027B
:10319000330887023304B702B385950293D408013C
:1031A000C295AE9463F304013E94B3F76400C20782
:1031B000B3F86800C69713976700C1803337E00003
:1031C000E9832694D98F1A045D8C9317440063D742
:1031D00007069357140005885D8C1307F6076351A3
:1031E000E0069377740099C79377F4009145638361
:1031F000B70011049317440063D80700B70700F81D
:10320000FD177D8C130706089307E00F0D8063DD23
:10321000E70601441307F00F85A8CE862684D287DF
:103220000947E388E7FE0D47638BE7040547E3960C
:10323000E7FA0144014789A8D686DDB72A8671BF1F
:103240008547998F6D47E346F7FE1306E609B357A6
:10325000F4003314C400333480005D8C9377740021
:1032600099C79377F40011476383E700110493171C
:1032700054000D80E3D007FC0144054731A037041A
:1032800040001307F00F814626041377F70F5E07FF
:103290002580598C1395F601418DF2406244D24449
:1032A0004249B249224A924A05618280370680002B
:1032B000135775019307F6FF1377F70F9305E00790
:1032C000E98F9356F50163F1E5049305D00963F89E
:1032D000E500370500801345F5FF3695828033E51C
:1032E000C7009307500963DAE7001307A7F6331501
:1032F000E50081CE3305A0408280930760093387C3
:10330000E7403355E500F5B701458280411106C617
:1033100022C426C24DC59357F54133C4A7001D8C66
:103320009354F501228545209307E009898F1307FF
:1033300060096346F70221476355A70061153314FE
:10334000A400260493F7F70FDE0725801395F401F8
:103350005D8C418DB240224492444101828013072A
:103360009009635DF7001547098F9306B501335740
:10337000E4003314D40033348000598C154763566D
:10338000A7001307B5FF3314E400370700FC7D17CF
:1033900093767400618F91C63D8891466303D40093
:1033A00011079316570063D90600B70700FCFD17F5
:1033B0007D8F9307F009898F1354370059B7014463
:1033C00081478144BDBFC1676376F5029307F00F63
:1033D000B3B7A7008E07130700021D8FB357F50080
:1033E00017350000130505C9AA9703C50700330563
:1033F000A740828037070001C147E36EE5FCE14743
:10340000D9BF000001A0011106CE22CC0010232656
:10341000A4FE212C2A87930780051CC3FD573E85F7
:10342000F240624405618280011106CE22CC001078
:103430002326A4FE2324B4FECD2A2A87930780FAEC
:103440001CC3FD573E85F24062440561828039719C
:1034500006DE22DC80002326A4FC2324B4FC930790
:1034600004FEBE850145992F2326A4FE8327C4FEB2
:1034700099C3FD5791A0930784FDBE850145592747
:103480002326A4FE8327C4FE99C3FD5735A08327B6
:1034900004FE032844FE832684FD0327C4FD3686EC
:1034A000BA863E85C285652EAA872E880327C4FC6E
:1034B0001CC32322070181473E85F25062542161DB
:1034C0008280011122CE00102326A4FE8327C4FE91
:1034D000FD1793B7170093F7F70F3E857244056108
:1034E0008280011106CE22CC00102326A4FE2324C4
:1034F000B4FE2322C4FE152A2A87930780051CC325
:10350000FD573E85F240624405618280011106CE7E
:1035100022CC00102326A4FE2324B4FE2322C4FEC2
:1035200029222A87930780051CC3FD573E85F24058
:10353000624405618280797122D60018232EA4FC92
:10354000B717008083A707992326F4FEB7470080AA
:10355000138707A4B7470080938707006314F70019
:103560008147A1A0B717008003A707998327C4FD4F
:103570003E97B747008093870700637EF700B71731
:10358000008003A707998327C4FD3E97B7170080E3
:1035900023A8E79809A8B7170080374700801307CA
:1035A000070023A8E7988327C4FE3E85325445616F
:1035B0008280797106D622D40018232EA4FC232CF5
:1035C000B4FC232AC4FC0327C4FD85476309F70024
:1035D000A9282A87930780051CC3FD572DA8832798
:1035E00084FD2324F4FE232604FE39A8032784FE49
:1035F0008327C4FEBA9783C707003E85812D8327A2
:10360000C4FE85072326F4FE0327C4FE832744FD5A
:10361000E36EF7FC81473E85B250225445618280BB
:10362000AA85814601460145CDA097D7BF5F938704
:10363000E73588438280411122C406C697070000FF
:103640009387A7152A8499C38145B12297D7BF5F75
:103650009387073488431C5591C382972285EF20B6
:10366000401B411197D7BFDF9387C79922C417D456
:10367000BFDF130424991D8C26C206C60984BE84AC
:1036800019E42244B240924441016FC0DFAA7D1484
:1036900093172400A6979C438297DDB74111973773
:1036A0000000938727D322C417340000130484D268
:1036B0001D8C26C24AC006C6098481443E8963988F
:1036C0008402EFC05FA7973700009387A7D0173415
:1036D00000001304A4D01D8C098481443E89639F9B
:1036E0008400B2402244924402494101828093976F
:1036F0002400CA979C4385048297D1B793972400EE
:10370000CA979C4385048297D9BF97D7BF5F938799
:10371000A72C9C432A8E8DE71707C05F130787A944
:1037200097D7BF5F23AAE72A17D5BFDF1305858D7B
:10373000BA8719C51C411705C05F2321F5B0BA87A8
:10374000D8437D487D556347E804630E0E0203A805
:1037500087086301080493182700C29823A0C800B3
:103760000323081005463316E6003363C300232005
:10377000681023A0D80889466317DE008326481006
:10378000558E2322C810930617000A07D4C3BA9790
:103790008CC701458280797152CC56CA5AC85EC620
:1037A00006D622D426D24AD04ECE62C42A8B2E8A86
:1037B00097DABF5F938A4A22854B03A40A0011C897
:1037C0004440832984081389F4FF8A04A294635E29
:1037D0000900B250225492540259F249624AD24A24
:1037E000424BB24B224C45618280630E0A006395C6
:1037F00009007D19F114E1BF93172900CE9783A723
:103800000708E39847FF5840DC407D1763182703FB
:1038100023222401F9DF032C44006388090083A6D6
:10382000091033972B01F98E89EE8297584083A7B0
:103830000A00E31487F9E30EF4FA41B723A2040067
:10384000D1BF93162900CE968C4283A64910758F5E
:1038500001E75A858297D9BF2E858297C1BFAE876F
:10386000328836872A83639606209738000093882B
:10387000688063FEC50A41676374E60A1307F00FA8
:103880003337C7000E07B356E600B69883C6080064
:10389000369793060002998E99CAB397D70033578B
:1038A000E5003318D600B365F7003313D500135580
:1038B000080133F7A502131608014182935603014C
:1038C000B3D5A5024207D98EB307B6022E8763FC93
:1038D000F600C2961387F5FF63E7060163F5F6006D
:1038E0001387E5FFC2969D8EB3F7A60242031353DA
:1038F0000301B3D6A602C20733E36700B305D602BD
:103900003685637BB30042931385F6FF636603013C
:103910006374B3001385E6FF4207498F81454DA8C4
:10392000B70600014147E360D6F66147A9BF01E64B
:10393000854633D8C602C166637ED8089306F00F69
:1039400063F306012147B356E800B69883C6080022
:10395000BA9613070002158F49E7B38707418545DB
:10396000135608019318080193D8080193560301D0
:1039700033F7C702B3D7C7024207D98E3385F8029F
:103980003E8763FCA600C2961387F7FF63E7060134
:1039900063F5A6001387E7FFC296898EB3F7C602C8
:1039A000420313530301B3D6C602C20733E36700D1
:1039B000B388D8023685637B130142931385F6FFE3
:1039C00063660301637413011385E6FF4207498FA1
:1039D0003A858280B70600014147E366D8F6614721
:1039E0009DB73318E800B3D5D7003313E500B356BD
:1039F000D50013550801B397E70033F7A502B3E8E4
:103A0000F60093170801C18313D60801B3D5A502A8
:103A10004207518FB386B7022E86637CD700429748
:103A20001386F5FF636707016375D7001386E5FF0B
:103A30004297B306D74033F7A602C20893D80801CD
:103A4000B3D6A6024207B385D702B36717013687FC
:103A500063FCB700C2971387F6FF63E7070163F5BE
:103A6000B7001387E6FFC2978D8F93150601D98D96
:103A7000C5BD63E2D514416763FEE6021308F00F8B
:103A80003337D8000E0733D8E6009725000093851A
:103A9000655EC29503C80500930500023A98B38598
:103AA000054185E10547E3E5F6F23335C5001347E7
:103AB000150039BFB70500014147E3E6B6FC614791
:103AC000D9B733570601B396B600D98E93DE0601F7
:103AD00033D70701B378D703B397B700335805013D
:103AE0003363F80093970601C1831358030133161B
:103AF000B6003357D703C20833E80801338FE70213
:103B00003A8E637CE8013698130EF7FF6367D8009E
:103B10006375E801130EE7FF36983308E841B37880
:103B2000D8033358D803C208B38E07039317030191
:103B3000C183B3E7F800428763FCD701B697130748
:103B4000F8FF63E7D70063F5D7011307E8FFB697DF
:103B5000420EB387D741C16E3367EE001388FEFF74
:103B60003373070193580701337806014182330EFE
:103B700003033388080393560E013303C3024293B1
:103B80009A96B388C80263F30601F69813D6060125
:103B9000B29863E01703E39317D9C167FD17FD8E51
:103BA000C206337EFE003315B500F2968145E371FF
:103BB000D5E27D17A5B38145014719BD797106D6B8
:103BC00022D40018232EA4FC232CB4FC0325C4FD0E
:103BD000EF1090402326A4FE8327C4FE91CF032537
:103BE000C4FEEF10303AAA872E88032784FD1CC339
:103BF00023220701814711A0FD573E85B250225470
:103C000045618280797106D622D40018232EA4FC47
:103C1000232CB4FC0325C4FDEF10103C2326A4FE86
:103C20008327C4FE91CF0325C4FEEF105038AA8726
:103C30002E88032784FD1CC323220701814711A07E
:103C4000FD573E85B250225445618280797106D677
:103C500022D40018AA87A30FF4FC0347F4FDA94758
:103C60006310F702B545B717008013858795AD2817
:103C70002326A4FE8327C4FE81C78327C4FE11A880
:103C80008347F4FDBE85B717008013858795A92863
:103C9000AA873E85B250225445618280411106C6F2
:103CA00022C40008F16793850720B71700801385A9
:103CB000879531200100B2402244410182800111E8
:103CC00006CE22CC00102326A4FE2324B4FE832794
:103CD000C4FE9C439C43832584FE0325C4FE829737
:103CE000F240624405618280011106CE22CC0010B0
:103CF0002326A4FEAE87A305F4FE8327C4FE9C43BF
:103D0000D8438347B4FEBE850325C4FE0297AA8725
:103D10003E85F240624405618280011106CE22CCCC
:103D200000102326A4FE2324B4FE8327C4FE9C4354
:103D30009C4B832584FE0325C4FE8297AA873E857B
:103D4000F240624405618280797122D60018232EE8
:103D5000A4FC8327C4FD2326F4FE8327C4FE9C4FC6
:103D60003E85325445618280011106CE22CC00107E
:103D70002326A4FE2324B4FE0325C4FEF137AA871C
:103D80003E85F240624405618280797122D6001836
:103D9000232EA4FC0325C4FD8328850031657115FD
:103DA000469508412326A4FE0325C4FD83288500EB
:103DB00031656115469508412324A4FE0325C4FD01
:103DC0008328850031657115469508418328C4FE16
:103DD000E392A8FC0325C4FE2A8381431318030041
:103DE0008147032584FEAA860147B3E5D7003366E1
:103DF000E800AE8732883E85C285325445618280B4
:103E0000011122CE00102326A4FE2320B4FE23227B
:103E1000C4FE0327C4FE1447116711073697BA86FC
:103E20007D5798C20327C4FE144711673697BA8698
:103E3000032704FE98C2032744FE93570700014856
:103E40000327C4FE14471167110736971CC3814727
:103E50003E85724405618280797106D622D40018AD
:103E6000232EA4FC8327C4FD2324F4FE832784FE91
:103E70009C4BA9EF832784FEDC4B2322F4FE2326F0
:103E800004FE15A8832744FE9C4303A8470003278C
:103E900084FE8327C4FE91078A07BA97DC478326EE
:103EA00084FE0146BE85032544FE02988327C4FE96
:103EB00085072326F4FE832784FE9C4F0327C4FE38
:103EC000E342F7FC832784FE054798CB0100B250FC
:103ED000225445618280797106D622D40018232E9F
:103EE000A4FC232CB4FC232AC4FC2328D4FCFD57B7
:103EF0002326F4FE8327C4FD2324F4FE832784FEB7
:103F0000DC4B2322F4FE832744FE85C3832744FE33
:103F10009C43DC43832604FD032644FD832584FD66
:103F2000032544FE82972326A4FE8327C4FE3E85F4
:103F3000B250225445618280797106D622D400188D
:103F4000232EA4FC232CB4FCFD572326F4FE832748
:103F5000C4FD2324F4FE832784FD85C7832784FEC4
:103F6000DC4B2322F4FE832744FE81CF832744FECB
:103F70009C439C47832584FD032544FE829723268A
:103F8000A4FE01003E85B2502254456182807971C1
:103F900006D622D40018232EA4FC232CB4FCFD57F3
:103FA0002326F4FE8327C4FD2324F4FE832784FD07
:103FB00085C7832784FEDC4B2322F4FE832744FE3F
:103FC00081CF832744FE9C43DC47832584FD032562
:103FD00044FE82972326A4FE01003E85B25022545F
:103FE00045618280797106D622D40018232EA4FC64
:103FF000232CB4FC232AC4FCFD572326F4FE83277C
:10400000C4FD2324F4FE032784FD954763EBE70CEE
:10401000832784FD13972700B767402093870725E0
:10402000BA979C438287832744FDD5CF032584FE1E
:10403000A93BAA872E88032744FD1CC3232207011E
:10404000232604FE4DA0832744FDC5C3832744FDDA
:1040500003A847009C43BE854286032584FE4D335A
:10406000232604FE59A0832744FDD1C3832744FDA2
:104070009C432322F4FE832784FE9C47032744FEAF
:104080000A07BA9723A00700232604FE8DA08327E2
:1040900044FDA5C3832744FD9C432322F4FE8327CC
:1040A00084FE9C47032744FE0A07BA973E8785474C
:1040B0001CC3232604FE35A8232604FE832744FDC3
:1040C0009DCB832744FD9C432322F4FE832784FE5B
:1040D0009C47032744FE0A07BA979C432326F4FE15
:1040E00019A8010011A8010001A8010031A00100D8
:1040F00021A0010011A001008327C4FE3E85B2501B
:10410000225445618280011122CE00102326A4FE94
:104110008327C4FE634AF0000327C4FE0A0793877F
:104120004181BA979C4311A081473E857244056145
:104130008280011122CE0010F32740F12326F4FEE5
:104140008327C4FE3E85724405618280011122CE20
:104150000010A147F3A707302326F4FE01007244A4
:1041600005618280011122CE0010A147F3B707300C
:104170002326F4FE0100724405618280011122CEE3
:104180000010A147F3A747302326F4FE0100724434
:1041900005618280011122CE0010A147F3B747309C
:1041A0002326F4FE0100724405618280011122CEB3
:1041B000001093070008F3A747302326F4FE010000
:1041C000724405618280011122CE0010930700081D
:1041D000F3B747302326F4FE010072440561828064
:1041E000011122CE0010856793870780F3A747301F
:1041F0002326F4FE0100724405618280011122CE63
:104200000010856793870780F3B747302326F4FEB5
:104210000100724405618280797122D60018232E34
:10422000A4FC8327C4FD0547B317F7002326F4FE3B
:104230008327C4FEF3A747302324F4FE0100325441
:1042400045618280797122D60018232EA4FC832731
:10425000C4FD0547B317F7002326F4FE8327C4FEE9
:10426000F3B747302324F4FE0100325445618280C5
:10427000011106CE22CC00102326A4FE2324B4FE76
:1042800013054006EF100058011106CE22CC001095
:104290002326A4FE2324B4FE1305800CEF108056C1
:1042A000797106D622D40018232EA4FC232CB4FC4A
:1042B00049352A870A0793874181BA979C43232669
:1042C000F4FEF32720342324F4FE8327C4FE95C78D
:1042D0008327C4FEDC472322F4FE832784FE93F762
:1042E000F73F032744FE9387470E8A07BA979C43FC
:1042F0008325C4FD0325C4FE82970100B2502254D9
:1043000045618280797106D622D40018232EA4FC40
:10431000232CB4FC393DAA873E85F5332326A4FE21
:104320000325C4FEEF00E07A2320A4FE2322B4FE7E
:10433000832704FE032844FEA9450146B386B7003F
:1043400036853335F5003307C800B307E5003E87EF
:10435000B6873A88BE8542860325C4FEEF00407EBC
:104360000100B2502254456182800000000000002C
:10437000000000000000000000000000000000003D
:10438000197186DE96DC9ADA9ED8A2D6AAD4AED26D
:10439000B2D0B6CEBACCBECAC2C8C6C6F2C4F6C285
:1043A000FAC07EDE000171332A870A0793874181B4
:1043B000BA979C432326F4FAF32720342324F4FAF3
:1043C000F32710342322F4FAF32730342320F4FAAD
:1043D000F3275030232EF4F88327C4FAF9C3832738
:1043E000C4FADC47232CF4F8832784FA93F7F73FC9
:1043F000232AF4F8832784FA63D70708032744F9AC
:10440000BD4763D7E7008327C4F993F7F7039DEF10
:10441000832684F9032744F9BA878607BA978E075B
:10442000B69783A7070A2326F4F8832684F903277F
:1044300044F9BA878607BA978E07B69783A7870984
:104440008325C4F8032544F98297A1A88327C4F9DA
:1044500013F7F70389476316F704F327703023280F
:10446000F4F8832784F983A7470E2326F4F88327DB
:1044700004F92324F4F8832784F88325C4F803255A
:1044800044F9829739A8032784F9832744F993874D
:10449000470E8A07BA979C43832544F90325C4FA3B
:1044A0008297F650E6525653C653365426559655C3
:1044B0000656F6466647D6474648B648264E964EB6
:1044C000064FF25F09617300203000000000000019
:1044D00000000000000000000000000000000000DC
:1044E00000000000000000000000000000000000CC
:1044F0000000000000000000797122D60018232E71
:10450000A4FC232CB4FCF32750302326F4FE83278D
:10451000C4FE93F707FC2326F4FE832784FD23249F
:10452000F4FE0327C4FD8547630AF7048327C4FD0F
:10453000A9CF0327C4FD89476308F7000327C4FDFB
:104540008D476300F70281A8832784FE93E7270045
:10455000739077308327C4FE93E72700739057301A
:104560001DA8832784FE93E7370073907730832755
:10457000C4FE93E737007390573031A8832784FE39
:1045800093E717007390573039A0832784FEF19B7F
:10459000739057300100010032544561828001114F
:1045A00022CE00102326A4FE8327C4FEF5177147F0
:1045B000636DF70013972700B7674020938787261E
:1045C000BA979C438287854719A0010081473E85A1
:1045D000724405618280797106D622D40018232E98
:1045E000A4FC232CB4FC232AC4FC232604FE83272A
:1045F000C4FD99E3FD5771A0032784FDFD4763E0E7
:10460000E708832784FD13972700B7674020938727
:10461000C72DBA979C438287832744FD81C7EFF05B
:10462000FFB2B1A8EFF01FB499A8832744FD81C75A
:10463000EFF0DFB4A9A0EFF0FFB591A0832744FD10
:1046400081C7EFF0BFB625A8EFF0FFB70DA883270D
:1046500044FD81C7EFF0DFB81DA0EFF03FBA05A021
:10466000832744FD99C7832784FD3E85EFF0DFBA99
:1046700031A0832784FD3E85EFF0DFBC0100832756
:10468000C4FE3E85B250225445618280797122D6A3
:104690000018232EA4FC232CB4FC232AC4FC83275B
:1046A000C4FD2326F4FE032784FDAD4763C2E70261
:1046B000832744FD91CF0327C4FE832784FD93877E
:1046C000470E8A07BA97032744FD98C3814711A074
:1046D000FD573E85325445618280797106D622D4D9
:1046E0000018232EA4FC8327C4FD2322F4FE832775
:1046F00044FE9C47E1EB232604FEB9A0832644FE3A
:104700000327C4FEBA878607BA978E07B69723ACED
:104710000708832644FE0327C4FEBA878607BA9794
:104720008E07B69723AE0708832644FE0327C4FEF0
:10473000BA878607BA978E07B69723A0070A8327FA
:10474000C4FE85072326F4FE0327C4FEFD47E3D7F6
:10475000E7FA232404FE1DA0032744FE832784FEDA
:104760009387470E8A07BA973747402013070727D2
:1047700098C3832784FE85072324F4FE032784FE41
:10478000AD47E3DBE7FCB747402093850738014599
:10479000A533F32710302320F4FE032704FEC1675E
:1047A00093878702F98F99CBF32700302320F4FEFB
:1047B000032704FE8967D98F73900730832744FE4F
:1047C000054798C70100B250225445618280797133
:1047D00006D622D40018232EA4FC232CB4FC232AB2
:1047E000C4FC2328D4FC232604FE8327C4FD2324F1
:1047F000F4FE032584FD6533AA8799E3D55739A2D2
:10480000832744FD85CF832684FE032784FDBA8752
:104810008607BA978E07B697032744FD23ACE708AF
:10482000832684FE032784FDBA878607BA978E07FE
:10483000B697032704FD23A0E70AF9A0832784FD88
:10484000F51771476362F70C13972700B76740208D
:104850009387C735BA979C438287832684FE0327B4
:1048600084FDBA878607BA978E07B69737474020E8
:104870001307072A23ACE708832684FE032784FD59
:10488000BA878607BA978E07B697032704FD23AE2B
:10489000E7089DA8832684FE032784FDBA87860740
:1048A000BA978E07B697374740201307473023AC97
:1048B000E708832684FE032784FDBA878607BA9714
:1048C0008E07B697032704FD23AEE70835A8832695
:1048D00084FE032784FDBA878607BA978E07B697AA
:1048E000374740201307872823ACE708832684FE38
:1048F000032784FDBA878607BA978E07B6970327E2
:1049000004FD23AEE70801008327C4FE3E85B250B4
:10491000225445618280011106CE22CC001023264C
:10492000A4FE2324B4FE832784FE0546BE8503250A
:10493000C4FEEFF05FCAAA873E85F240624405617B
:104940008280011106CE22CC00102326A4FE23244F
:10495000B4FE832784FE0146BE850325C4FEEFF026
:104960009FC7AA873E85F2406244056182807971C3
:1049700006D622D40018232EA4FC232CB4FC232A10
:10498000C4FC8327C4FD2326F4FE832784FD8DEF1A
:10499000832744FD99EBB7474020938507380325CB
:1049A00044FDEFF07FB581470DA0032744FD854707
:1049B000631CF7008327C4FEC107BE85032544FDA1
:1049C000EFF09FB3814711A0FD573E85B2502254AE
:1049D00045618280797106D622D40018232EA4FC6A
:1049E000232CB4FC8327C4FD2326F4FE832784FDF7
:1049F00091EBB7474020938507380145EFF0DFAFD3
:104A0000814711A0FD573E85B250225445618280F6
:104A1000011122CE00102326A4FE2324B4FE23225B
:104A2000C4FE81473E85724405618280397122DE71
:104A300080002326A4FC01438143232464FE232613
:104A400074FE732500B82322A4FE732500B0232032
:104A5000A4FE732500B8232EA4FC832844FE03255E
:104A6000C4FD6395A802032544FEAA850146139858
:104A700005008147032604FEB286014733E6D700CE
:104A80002324C4FEB367E8002326F4FE832784FEB4
:104A90000328C4FE3E85C2857254216182807971EB
:104AA00022D60018232EA4FC0327C4FD2326E4FEEF
:104AB0000327C4FE01E78147014839A00327C4FE4C
:104AC0001847BA877D873A883E85C285325445614A
:104AD0008280397106DE22DC80002326A4FC814717
:104AE0000148232CF4FC232E04FD8327C4FC232639
:104AF000F4FE8327C4FEDC4795CB8327C4FEDC4746
:104B00002324F4FE832784FE83A747142322F4FE84
:104B1000832744FE81CF832744FE9C43984F93070D
:104B200084FD3E868545032544FE0297832784FD48
:104B30000328C4FD3E85C285F25062542161828003
:104B4000797106D622D40018232EA4FC2328B4FCA5
:104B5000232AC4FCFD572326F4FE8327C4FD232407
:104B6000F4FE832784FEDC4785CF832784FEDC4761
:104B70002322F4FE832744FE83A747142320F4FE58
:104B8000832704FE91CF832704FE9C43984F93070D
:104B900004FD3E868945032504FE02972326A4FED4
:104BA0008327C4FE3E85B2502254456182800111A4
:104BB00022CE00102326A4FEB70700809387871E0D
:104BC0003E85724405618280011122CE00102326A9
:104BD000A4FE9D473E85724405618280011122CE6C
:104BE00000102326A4FEB70700809387871E3E850A
:104BF000724405618280011122CE00102326A4FE9A
:104C00008D473E85724405618280797106D622D433
:104C10000018232EA4FC232CB4FCFD572326F4FEFD
:104C20008327C4FD2324F4FE832784FEDC4785CF3D
:104C3000832784FEDC472322F4FE832744FE83A7D8
:104C4000470E2320F4FE832704FE91CF832704FE22
:104C50009C43984F930784FD3E869145032504FEAF
:104C600002972326A4FE8327C4FE3E85B250225419
:104C700045618280797106D622D40018232EA4FCC7
:104C8000232CB4FCFD572326F4FE8327C4FD2324E4
:104C9000F4FE832784FEDC4785CF832784FEDC4730
:104CA0002322F4FE832744FE83A7470E2320F4FE2D
:104CB000832704FE91CF832704FE9C43984F9307DC
:104CC00084FD3E868D45032504FE02972326A4FE1F
:104CD0008327C4FE3E85B25022544561828079719B
:104CE00006D622D40018232EA4FC232CB4FC2326A1
:104CF00004FE8327C4FD2324F4FE832784FEDC47BF
:104D000085CF832784FEDC472322F4FE832744FEDD
:104D100083A7470E2320F4FE832704FE91CF832729
:104D200004FE9C43984F930784FD3E8695450325DA
:104D300004FE02972326A4FE8327C4FE3E85B250BC
:104D4000225445618280797122D60018232EA4FC5A
:104D50008327C4FD2326F4FE8327C4FEDC473E855B
:104D6000325445618280797106D622D40018232EF0
:104D7000A4FC232CB4FC232AC4FC8327C4FD2326D3
:104D8000F4FE8327C4FEDC4789CF8327C4FEDC47BB
:104D9000032644FD832584FD3E85EFF03F8FAA87DF
:104DA00011A0FD573E85B250225445618280011109
:104DB00022CE00102326A4FE2324B4FE832784FEE3
:104DC00083D707008D8B99C3914711A089473E85F2
:104DD000724405618280797122D60018232EA4FCCA
:104DE000F32710342326F4FE8327C4FE3E85325475
:104DF00045618280011122CE00102326A4FE2324C7
:104E0000B4FE832784FE7390173481473E85724435
:104E100005618280011122CE00102326A4FE832783
:104E2000C4FE9847B70720009107BA979C433E8578
:104E3000724405618280011122CE00102326A4FE57
:104E40002324B4FE8327C4FE9847B70720009107A8
:104E5000BA973E87832784FE1CC301007244056114
:104E60008280011122CE00102326A4FE2324B4FE4A
:104E70008327C4FE9847B7072000BA973E87832749
:104E800084FE1CC30100724405618280011122CEA0
:104E900000102326A4FE2324B4FE2322C4FE83276D
:104EA000C4FE9C4F85C78327C4FE9C4F3E87832743
:104EB00044FE63FDE7008327C4FE9C47032784FE6E
:104EC0000A07BA973E87832744FE1CC30100724439
:104ED00005618280797106D622D40018232EA4FCA5
:104EE000232CB4FC232AC4FCEFF0AFA42326A4FE99
:104EF0008327C4FD9C47032784FD15870A073E9737
:104F00008967BA979C432324F4FE832744FD81CF0D
:104F1000832784FDFD8B0547B317F7003E87832762
:104F200084FED98F29A8832784FDFD8B0547B317FD
:104F3000F70093C7F7FF3E87832784FEF98F032787
:104F4000C4FD1847832684FD95868A06BA960967AC
:104F500036971CC30100B250225445618280011172
:104F600006CE22CC00102326A4FE2324B4FE130573
:104F7000C012EF003009797106D622D40018232E12
:104F8000A4FC232CB4FC832784FD2326F4FE0325F4
:104F9000C4FE49352324A4FE8327C4FEDC4F3E878C
:104FA000832784FE63F4E7040327C4FE832784FE7B
:104FB000A1078A07BA979C4795CB0327C4FE83278E
:104FC00084FEA1078A07BA9703A88700032684FEF8
:104FD0008326C4FE032784FEBA878607BA978E0706
:104FE000B69783A7870ABE8532850298832584FEFB
:104FF0000325C4FE89350100B250225445618280E8
:10500000797106D622D40018232EA4FC8327C4FD70
:105010002324F4FE832784FE9C53639B070E83277F
:1050200084FE9C4B2322F4FE832744FE9C439C4336
:10503000032544FE8297232604FE8DA00146832586
:10504000C4FE032584FE793501468325C4FE03256D
:1050500084FE2D3D032784FE8327C4FEA1078A0713
:10506000BA9723A40700832684FE0327C4FEBA87C9
:105070008607BA978E07B69723A2070A832684FE6F
:105080000327C4FEBA878607BA978E07B69723A46C
:10509000070A8327C4FE85072326F4FE832784FEA0
:1050A000DC4F0327C4FEE34BF7F88145032584FE5C
:1050B0004D3B832744FE9C43D843832784FEDC4B2F
:1050C000832684FE0146BE85032544FE029783277E
:1050D00044FE9C4303A84700832784FED84B8326C5
:1050E00084FEB7574020138667F7BA85032544FE30
:1050F0000298832744FE9C439847832784FEDC4B19
:10510000BE85032544FE0297832784FE054798D376
:105110000100B250225445618280797106D622D4B2
:105120000018232EA4FC232CB4FC232AC4FC23281F
:10513000D4FC8327C4FD2326F4FE8327C4FEDC4F62
:10514000032784FD6344F700FD5759A0832744FDDE
:105150009DCF0946832584FD0325C4FE053B032717
:10516000C4FE832784FDA1078A07BA97032744FD5D
:1051700098C78326C4FE032784FDBA878607BA979B
:105180008E07B697032704FD23A4E70A89A00546E6
:10519000832584FD0325C4FEEFF05FCF0327C4FE03
:1051A000832784FDA1078A07BA9737574020130742
:1051B000E7F598C78326C4FE032784FDBA878607D0
:1051C000BA978E07B697032704FD23A2E70A814703
:1051D0003E85B250225445618280797106D622D430
:1051E0000018232EA4FC232CB4FC8327C4FD232603
:1051F000F4FE8327C4FEDC4F032784FD6344F700DD
:10520000FD5709A80546832584FD0325C4FEEFF05C
:105210007FCC81473E85B2502254456182807971AE
:1052200006D622D40018232EA4FC232CB4FC8327FA
:10523000C4FD2326F4FE8327C4FEDC4F032784FD30
:105240006344F700FD5709A80146832584FD032523
:10525000C4FEEFF03FC881473E85B25022544561FD
:105260008280797122D60018232EA4FC232CB4FC52
:105270008327C4FD2326F4FE8327C4FE9C479107A1
:105280009C43032784FD1347F7FFBA860327C4FE18
:1052900018471107F58F1CC381473E85325445617D
:1052A0008280797122D60018232EA4FC8327C4FDA6
:1052B0002326F4FE8327C4FE9C47B1079C433E850A
:1052C000325445618280797122D60018232EA4FCC5
:1052D000232CB4FC8327C4FD2326F4FE8327C4FEBD
:1052E0009C47A1079843832784FD8326C4FE9446E8
:1052F000A106D98F9CC281473E8532544561828088
:10530000797122D60018232EA4FC232CB4FC832709
:10531000C4FD2326F4FE8327C4FE9C47B1079843AF
:10532000832784FD8326C4FE9446B106D98F9CC290
:1053300081473E85325445618280797122D60018BA
:10534000232EA4FC232CB4FC8327C4FD2326F4FEC7
:105350008327C4FE9C47B1079C43032784FD134762
:10536000F7FFBA860327C4FE18473107F58F1CC321
:1053700081473E85325445618280797122D600187A
:10538000232EA4FC232CB4FC8327C4FD2326F4FE87
:105390008327C4FE9C47B1079843832784FD832657
:1053A000C4FE9446B106B98F9CC281473E853254F3
:1053B00045618280797122D60018232EA4FC232C0B
:1053C000B4FC232AC4FC8327C4FD2326F4FE8327D0
:1053D000C4FE9C479387C7039C43032784FD134760
:1053E000F7FFBA860327C4FE18471307C703F58FD4
:1053F0001CC38327C4FE9C47938787039843832756
:1054000044FD8326C4FE944693868603D98F9CC2AE
:1054100081473E85325445618280797122D60018D9
:10542000232EA4FC8327C4FD2326F4FE8327C4FE79
:10543000DC533E85325445618280797122D6001852
:10544000232EA4FC8327C4FD2326F4FE8327C4FE59
:10545000DC57938707023E853254456182800111F3
:1054600022CE00102326A4FEAE87A305F4FE010081
:105470008327C4FEDC479C43E3CC07FE8327C4FE9E
:10548000DC473E878347B4FE1CC381473E85724498
:1054900005618280797122D60018232EA4FC232C6A
:1054A000B4FCB70700802326F4FE01A88327C4FDBF
:1054B000DC4791079C432326F4FE8327C4FEE3C701
:1054C00007FE8327C4FE13F7F70F832784FD23808D
:1054D000E70081473E85325445618280797122D64A
:1054E0000018232EA4FC8327C4FD2326F4FE832763
:1054F000C4FEDC4B3E85325445618280797106D60C
:1055000022D40018232EA4FC232CB4FC8327C4FD32
:105510002326F4FE032784FD8327C4FED8CB8327EC
:10552000C4FE9C47B5C38327C4FE9C479C43984355
:105530008327C4FE9C473E8502972324A4FE0327AD
:1055400084FE832784FDB347F7021387F7FF832781
:10555000C4FEDC47E10798C38327C4FEDC47A107EC
:105560009C430327C4FE5847210793E717001CC339
:105570008327C4FEDC47B1079C430327C4FE58477A
:10558000310793E717001CC381473E85B250225470
:1055900045618280397106DE22DC80002326A4FC6E
:1055A0008327C4FC2326F4FE8327C4FEDC47A1071F
:1055B00098438327C4FEDC47A107BE86B707F9FFDF
:1055C000FD17F98F9CC28327C4FEDC47A1079843CF
:1055D0008327C4FEDC47A107BE86C167D98F9CC262
:1055E00001008327C4FEDC47D1079C43858BF5DB94
:1055F0008327C4FEDC47A1079C43898B99C3A54739
:1056000011A0A9472324F4FE8327C4FE9C479C4392
:1056100098438327C4FE9C473E8502972322A4FE1D
:10562000032784FE832744FEB307F7023E878327C0
:10563000C4FEDC4BB357F7022320F4FE232E04FCF8
:1056400039A001008327C4FD8507232EF4FC83279E
:10565000C4FD032704FEE3C6E7FE0100F2506254D6
:1056600021618280797106D622D40018232EA4FCF1
:105670008327C4FD2326F4FE0327C4FE8327C4FE2C
:10568000DC4BBE853A85EFE04FE90100B250225471
:1056900045618280797106D622D40018232EA4FC9D
:1056A000232CB4FC8327C4FD2326F4FE8327C4FEE9
:1056B0009C479DC78327C4FE98470326C4FEB7575F
:1056C0004020938547593A8585208327C4FE984713
:1056D0000326C4FEB7574020938547663A85A52820
:1056E0008327C4FE832584FD3E85EFE00FE38327F7
:1056F000C4FE9C4F8DC78327C4FE9C4FDC4303A888
:1057000087018327C4FE984F8327C4FEDC4FBE86E3
:105710008327C4FE9C533E86B6853A8502980100D5
:10572000B250225445618280011122CE00102326FE
:10573000A4FE2324B4FE2322C4FE8327C4FE032731
:1057400084FED8C38327C4FE032744FE98C7010004
:10575000724405618280011122CE00102326A4FE2E
:105760002324B4FE2322C4FE8327C4FE032784FE21
:10577000D8C78327C4FE032744FE98CB0100724498
:1057800005618280011106CE22CC00102326A4FEE2
:105790008327C4FE9C439C430325C4FE8297AA87AB
:1057A0002E883E85C285F2406244056182800111E7
:1057B00006CE22CC00102326A4FE8327C4FE9C43E1
:1057C000DC430325C4FE8297AA872E883E85C285C6
:1057D000F240624405618280011122CE001023262E
:1057E000A4FE8327C4FE634AF0000327C4FE0A0711
:1057F00093874181BA979C4311A081473E857244AB
:1058000005618280011122CE00102326A4FE010032
:10581000FDBF011106CE22CC00102326A4FE0325D5
:04582000C4FECD37BE
:10582400002474490000FA444448525953544F4EDA
:10583400452050524F4752414D2C20534F4D452047
:10584400535452494E4700004468727973746F6E22
:10585400652042656E63686D61726B2C20566572BB
:1058640073696F6E20322E3120284C616E6775612A
:1058740067653A2043290A0050726F6772616D2090
:10588400636F6D70696C6564207769746820277232
:1058940065676973746572272061747472696275CF
:1058A40074650A0050726F6772616D20636F6D706A
:1058B400696C656420776974686F757420277265F4
:1058C4006769737465722720617474726962757490
:1058D400650A0000506C6561736520676976652010
:1058E400746865206E756D626572206F66207275CE
:1058F4006E73207468726F756768207468652062BF
:10590400656E63686D61726B3A2000002564000067
:10591400457865637574696F6E207374617274730E
:105924002C2025642072756E73207468726F7567FD
:1059340068204468727973746F6E650A0000000011
:10594400457865637574696F6E20656E64730A00CB
:1059540046696E616C2076616C756573206F662094
:10596400746865207661726961626C657320757311
:10597400656420696E207468652062656E63686D75
:1059840061726B3A0A000000496E745F476C6F6283
:105994003A20202020202020202020202025640AB6
:1059A40000000000202020202020202073686F7534
:1059B4006C642062653A20202025640A00000000FF
:1059C400426F6F6C5F476C6F623A2020202020206A
:1059D400202020202025640A0000000043685F3155
:1059E4005F476C6F623A2020202020202020202056
:1059F4002025630A000000002020202020202020F1
:105A040073686F756C642062653A20202025630AF0
:105A14000000000043685F325F476C6F623A2020E9
:105A240020202020202020202025630A00000000C0
:105A34004172725F315F476C6F625B385D3A202060
:105A4400202020202025640A000000004172725F9B
:105A5400325F476C6F625B385D5B375D3A202020B4
:105A64002025640A0000000020202020202020207F
:105A740073686F756C642062653A2020204E756DE2
:105A84006265725F4F665F52756E73202B203130F2
:105A94000A0000005074725F476C6F622D3E0A006A
:105AA40020205074725F436F6D703A2020202020B4
:105AB400202020202025640A00000000202020202F
:105AC4002020202073686F756C642062653A202062
:105AD4002028696D706C656D656E746174696F6E94
:105AE4002D646570656E64656E74290A000000009B
:105AF400202044697363723A202020202020202033
:105B0400202020202025640A000000002020456E6B
:105B1400756D5F436F6D703A202020202020202077
