:0200000420409A
:100000009711C05F9381817E972200009382C2AED8
:10001000739052301701C0DF1301C1FE9700C0DF9B
:10002000938040FE638300008290732540F18145F8
:1000300001460D209700C0DF9380C0FC6383000061
:100040008290970200009382C20073905230032383
:100050000000F5BF06849711C05F93812179138159
:10006000C1C5137101FF01E197420000938242C1B3
:100070001703C05F130303F99713C05F938343F91A
:10008000638C6200635A730003A50200910223206F
:10009000A3001103E34A73FE97420000938242BE1D
:1000A0001703C0E7130303F69703C0E7938383F5B1
:1000B000638C6200635A730003A50200910223203F
:1000C000A3001103E34A73FE1713C05F130343F445
:1000D0009713C05F938383F7635773002320030054
:1000E0001103E34D73FE11C202961725000013059C
:1000F000E5BCEF103039EF10D03FF3271030370751
:10010000010013078702F98F99C7F32700300967A9
:10011000D98F73900730054597450000938505906A
:10012000174600001306C68FA128EF101037A280D3
:0401300082808280C7
:10018000411106C622C40008B7474020138547A086
:10019000BD2881473E85B2402244410182803971A9
:1001A00022DC2A842E852EC606DE8D289747000085
:1001B000938787863ED485473ED61C10B2453ECAFB
:1001C00089473ECC1C5C2AD205052ED02ACE0C4491
:1001D00089E722852EC60D22B2458397C500139765
:1001E0002701634B07008966F851D58F2396F500E8
:1001F000F977FD17F98FFCD150082285192CFD578E
:1002000011E1A947F25062543E852161828097171F
:10021000C05F9387A7DDAA85884351B7AA87850762
:1002200003C7F7FF6DFF3385A7407D158280014529
:100230008280411122C406C62A842316B5002317E2
:10024000C5002320050023220500232405002322C6
:10025000050623280500232A0500232C0500214636
:1002600081451305C505EF00D03797170000938728
:1002700007FE1CD0971700009387C7005CD0971724
:100280000000938707051CD4971700009387C707C2
:1002900040CC5CD4B24022444101828097150000DA
:1002A0009385051B75A101458280411126C2130665
:1002B00080069384F5FFB384C4024AC02E8922C409
:1002C00006C693854407DD292A8401CD2320050035
:1002D00023222501310508C4138684068145EF00D9
:1002E00050302285B240224492440249410182802A
:1002F0009387018288435DB71C5DA9E7411106C65B
:1003000022C4970700009387A7F95CDD8D4723225D
:10031000F52E9307C52E2A842324F52E2320052E9F
:10032000484101469145313708440546A5451137F6
:1003300048440946C945F53D85471CDCB240224486
:1003400041018280828041119387018226C28443C9
:100350004AC006C69C5C22C42A8999E32685693F67
:100360009384042E8044DC40FD1763D607009C4034
:10037000B9CF8440C5BF0317C40039E7C1778507EB
:100380002322040623200400232204002324040043
:100390005CC423280400232A0400232C04002146E3
:1003A00081451305C405EF00D02323280402232A26
:1003B000040223220404232404042285B24022449C
:1003C00092440249410182801304840671BF914521
:1003D0004A85E13D88C051FDB1472320F900014421
:1003E000E9BF82808280828082809717C05F938776
:1003F000E7BF8843970500009385A5E3CDAC971729
:10040000C05F9387A7BE8843970500009385E5E901
:10041000F9AC1C4681E781473E85828083D7C500C1
:100420005D71A2C4CAC056DA86C6A6C24EDE52DCD0
:100430005AD85ED662D466D26AD06ECEA18BB28A0A
:100440002E842A89D9CF9C49C9CF8357C40003AAD7
:100450000A0013F727006318070E858B63800716C1
:10046000814B0145014B81496385092401ED4E868D
:10047000A9455A85EF005005938B190001C5050564
:10048000B30B65415E8C63F379014E8C08401C48C8
:10049000544863F7A7220444B69463D38423DA85CF
:1004A0002686EF00700F1C40A2854A85A6971CC0C7
:1004B000EF10A018631C050EB38B9B400545639796
:1004C0000B00A2854A85EF1040176DE183A78A00D3
:1004D000269BB3899940B384974023A49A00C9F41A
:1004E00091A0A2854A85EF00B065FD5739DD25A8AA
:1004F00083290A0083244A00210AFDD8A686637353
:100500009B00DA865C504C4C4E864A858297635F2E
:10051000A00883A78A00AA99898C3385A74023A4C1
:10052000AA0061FD8147B640264496440649F25927
:10053000625AD25A425BB25B225C925C025DF24D1F
:100540003E8561618280370B008081498144134B75
:100550000BC065B7032B0A0083244A00210AFDD88B
:100560000357C4001C440840937607206387060E97
:1005700063E8F40893760748C1C6832D44010C480C
:10058000B38DBC03B309B54093871900A697B3CDCB
:10059000AD0363F3FD00BE8D1377074051CFEE85A9
:1005A0004A85292C1DE5B1472320F9008357C40053
:1005B00093E707042316F400FD57B5B7B70B008087
:1005C00013CCEBFF014B814493CBFBFF8D4C094DCA
:1005D00079B70C484E862AC629270357C400B2476C
:1005E0001377F7B7136707082316E4001CC8232AFC
:1005F000B401CE97B38D3D411CC02324B401A6871E
:10060000A68963F3F400A68708403E86DA853EC6D5
:1006100061271844B2471D8F18C41840BA971CC0F0
:1006200083A78A004E9BB3843441B389374123A406
:100630003A01E39609F2FDB56E864A85EF00300572
:10064000AA874DF50C484A85EF10E0108357C40087
:1006500093F7F7F72316F400B9B718486365A700B6
:10066000544863F7D402BE8963F3F400A6894E862A
:10067000DA851D271C441840B38737414E971CC4A8
:1006800018C0D9FFA2854A85EF00307B51D939BF08
:10069000A68763739C00DE87B3C7D70258504C4CC3
:1006A0005A864A85B386D7020297AA89E34AA0F6FA
:1006B000F5BD032B0A0083294A000145210A6DB3C9
:1006C000634BDC005C504C4C5A864A858297AA8466
:1006D000E344A0DEE1BD6286DA857D2D1C44E28420
:1006E000B38787411CC41C40E2971CC0F1B37971E9
:1006F00022D44AD052CC56CA06D626D24ECE1304A5
:10070000052E0149054AFD5A19E8B25022544A857E
:1007100092540259F249624AD24A456182800444A5
:1007200083294400FD1963D409000040F1BF83D739
:10073000C400637CFA008397E40063885701268530
:100740002EC68295B2453369A90093848406D9BF29
:10075000797122D44AD052CC56CA5AC85EC606D63F
:1007600026D24ECE2A8AAE8A1304052E0149054BA5
:10077000FD5B09ECB25022544A8592540259F24969
:10078000624AD24A424BB24B45618280044483297B
:100790004400FD1963D409000040E1BF83D7C400C1
:1007A000637BFB008397E40063877701A68552850E
:1007B000829A3369A90093848406E1BF797106D6D1
:1007C00022D426D24AD04ECE52CC56CA5AC85EC681
:1007D00062C466C29387B50059476376F70293F403
:1007E00087FF63D30402B1471CC10145B2502254B4
:1007F00092540259F249624AD24A424BB24B224CBD
:10080000924C45618280C144E3EFB4FC2A89B52D46
:100810009307701F9709C05F938949C163EC9702E2
:10082000138784004E974043930687FF93D7340085
:100830006316D40040478907630C87045C40584422
:100840001444F19BA297D8C614C7D8431367170066
:10085000D8C351A013D794009307F00301CB91475D
:1008600063E0E70893D76400938787031387170033
:100870000E074E974043930587FF3D456309B4003B
:100880005840719B33069740635FC508FD17850785
:1008900003A409019705C05F9385C5B9630CB40E25
:1008A0005840BD46719B3306974063D9C60893E70D
:1008B00014005CC0B30694009707C05F23A2D7B8AA
:1008C0009707C05F23ACD7B693671600CCC68CC61B
:1008D000DCC2229710C34A85552B1305840039B713
:1008E000D14763E5E7009307B70549B7930740058C
:1008F00063E7E70093D7C4009387E70685BF9307B4
:10090000401563E7E70093D7F40093877707B9BFF3
:10091000930640559307E007E3EAE6F493D72401F2
:100920009387C707A1B75444634806001C44D4C743
:100930009CC6B307E40011BF368489B79706C05F31
:1009400023A0B6B09706C05F23AAB6AE63480600E0
:1009500022975C4393E717005CC3B5BF9306F01F73
:1009600003A8490063E8E6140D8313562740854623
:100970000507B396C6000E074E97B3E606011706A5
:10098000C05F2327D6AA1443130687FF50C414C49C
:1009900000C3C0C613D7274005433313E30003A7A2
:1009A0004900636E6704B376670099E6F19B06031E
:1009B000B37667009107E5DE3D4E93963700CE96FD
:1009C00036883E850324C800631304190505137790
:1009D0003500210865FB13F737006317071C03A7D1
:1009E00049009347F3FFF98F1707C05F2322F7A44D
:1009F00003A749000603636467006313031C83AB0A
:100A0000890003A44B00937AC4FF63E79A003387FD
:100A10009A40BD4763CEE7289707C05F9387C75FBB
:100A20001707C05F1307C75C80431443FD57338C1F
:100A30005B0126943A8A6397F6184104A2854A8599
:100A4000EF00807DFD572A8B6308F52063748501D4
:100A500063943B21970CC05F938C4C5C03A70C0004
:100A600022979707C05F23ABE75A63136C1793175E
:100A70004C01639F071483A78900569413641400E4
:100A8000C0C31707C05F1307E75883A70C001843BC
:100A90006376F7001707C05F232EF7561707C05F6E
:100AA0001307075718436379F71A1707C05F232105
:100AB000F7565DA213569700914663EEC602935611
:100AC000670093868603138616000E064E9613055E
:100AD00086FF10426317C50605478986B316D700FF
:100AE000B3E606011707C05F2324D79448C410C497
:100AF00000C540C645B5D14663E5C6009306B605B8
:100B0000D9B79306400563E7C6009356C70093869E
:100B1000E60655BF9306401563E7C6009356F700F7
:100B2000938676074DB7130540559306E007E36CAF
:100B3000C5F8935627019386C60771B7104663061A
:100B4000C5005442F19AE36BD7FE484645B758407A
:100B50005044719BB3089740635B1E0393E71400F6
:100B60005CC01C44B30694002297D0C71CC69707EC
:100B7000C05F23A7D78C9707C05F23A1D78C93E7CB
:100B80001800CCC68CC6DCC223201701A9B363CBE6
:100B9000080022975C4393E717005CC31C44D0C74E
:100BA0001CC615BB32840DB5E1169846FD17E3044B
:100BB000D7E23DBD91070603B3766700E5DEF5BBDE
:100BC000AA87DDBF05673D073A94FD777D8CBDB5EB
:100BD00083260A00FD57639FF6089707C05F23A985
:100BE0006741137C7B00814763060C00A147B387F4
:100BF00087413E9B0565338AA7005A947D15B377DC
:100C0000A400330AFA40337AAA00D2854A852925FE
:100C1000FD576319F500228563050C0013058CFF51
:100C20002295014A83A70C0033056541D2972A9A81
:100C30001707C05F2324F73E136A1A0097F7BF5FB8
:100C400023AA677F23224B01E38D3BE33D47636B80
:100C5000570385472322FB0083A78900DC43F19BD0
:100C60003387974063E59700BD4763C3E7044A8530
:100C7000312CA5BEB3078B41BA971707C05F232F4E
:100C8000F73885B783A74B0013844AFF6198858B9B
:100C9000C18F23A2FB009546B3878B00D4C394C7B2
:100CA000E37187DE93858B004A85EF00D02AD1BBA4
:100CB00003A4890093E714005CC0B307940097F67F
:100CC000BF5F23A9F67659B693F5F50F2A966314FC
:100CD000C5000145828083470500E38DB7FE050509
:100CE000FDB7B3C7A5008D8B3307C50081E78D47DE
:100CF00063EEC700AA876370E50A83C6050085070F
:100D00008505A38FD7FEE3EAE7FE82809376350060
:100D1000AA8791CA83C6050085078505A38FD7FEDC
:100D200093F63700FDB79376C7FF138606FE63F090
:100D3000C70683A3050083A2450083AF850003AFE8
:100D4000C50083AE050103AE450103A3850183A859
:100D5000C5019385450223A0770003A8C5FF23A200
:100D6000570023A4F70123A6E70123A8D70123AA4C
:100D7000C70123AC670023AE17019387470223AE58
:100D800007FF75B790419107910523AEC7FEE3EBCE
:100D9000D7FEE3E4E7F6828063F3A504B386C500DB
:100DA000637FD5029345F6FF8147FD176393F500F6
:100DB00082803387F600034807003387C7002A97ED
:100DC00023000701DDB73387F500834607003307AB
:100DD000F50085072300D700E317F6FE82808147E0
:100DE000E5BF3D432A876373C3029377F700BDEFE6
:100DF000ADE5937606FF3D8ABA960CC34CC30CC78B
:100E00004CC74107E36BD7FE11E28280B306C340B3
:100E10008A069702000096966780A6002307B7000F
:100E2000A306B7002306B700A305B7002305B70044
:100E3000A304B7002304B700A303B7002303B7003C
:100E4000A302B7002302B700A301B7002301B70034
:100E5000A300B7002300B700828093F5F50F9396A7
:100E60008500D58D93960501D58D61B793962700A2
:100E70009702000096968682E78086FA9680C117D0
:100E80001D8F3E96E374C3F8A5B7828082803971C6
:100E900022DC06DE2E8426DA4AD84ED652D456D22A
:100EA0005AD05ECEB28501EC6254F250D25442590F
:100EB000B259225A925A025BF24B216101B2AA8ABC
:100EC00032C6E137B245D9479389B50063F6370397
:100ED00013FB89FF63530B02B14723A0FA00014AB9
:100EE000F25062545285D2544259B259225A925AFF
:100EF000025BF24B21618280414BE36FBBFC832696
:100F0000C4FF930B84FF13F9C6FF635C692F17F7C7
:100F1000BF5F1307A7511047B3872B01D84363085E
:100F2000F6001375E7FF3E954841058929E9719B55
:100F3000B309E900631DF60213050B0163C3A9049D
:100F4000DA9BB389694197F7BF5F23A5774F93E990
:100F5000190023A23B018329C4FF5685228A93F9F5
:100F60001900B3E96901232E34FF0D3795BF63CA19
:100F70006901D8479C47D8C71CC7DE8411AA01471E
:100F80008147858A6393061E832484FFB3849B4034
:100F900003AA4400137ACAFF4A9A638F0714B3095D
:100FA00047016312F60A93070B0163C7F9149844CB
:100FB000DC441306C9FF138A84005CC798C7130773
:100FC0004002636EC706CD46D28763FCC6001C4054
:100FD0009CC45C40DCC4ED4763E0C70421049387F4
:100FE0000401184098C35840D8C3184498C7B38721
:100FF0006401B389694117F7BF5F232DF74293E975
:10100000190023A23701DC40858BB3E9670123A2D5
:1010100034015685A53DE9B51C449CC85C44DCC838
:101020006306E60041049387840165BF1C486104A0
:101030009CCC0327C4FF93870402D8CC5DB7A2855C
:101040005285993B6DB763C9690BD8479C47130616
:10105000C9FF13858400D8C71CC79844DC445CC70B
:1010600098C79307400263E6C7084D47637CC700F3
:10107000184098C45840D8C46D476369C704210418
:10108000138504011C401CC15C405CC11C441CC590
:10109000D840B38669413D46058BB38734016374FC
:1010A000D616B369EB0023A23401B385640193E63D
:1010B0001600D4C1D843A105568513671700D8C3BD
:1010C000592D5685E133138A840019BD184498C8F8
:1010D0005844D8C86306F6004104138584015DB7FF
:1010E0001C481385040261049CCC8327C4FFDCCC1C
:1010F00051BFA285553169BF63496A07DC449844F2
:101100001306C9FF138584005CC798C79307400284
:1011100063EAC7044D47637CC700184098C4584031
:10112000D8C46D47636DC7002104138504011C40BA
:101130001CC15C405CC11C441CC5D28991BF1844D1
:1011400098C85844D8C86306F60041041385840142
:10115000F9BF1C481385040261049CCC8327C4FF9B
:10116000DCCCF1B7A2850D39C9BF5685EFF00FE58C
:101170002A8AE30005EA8327C4FF130785FFF99B4A
:10118000DE976398E7008329C5FF93F9C9FFCA99E1
:10119000EDB31306C9FF9307400263E1C7064D474D
:1011A000637BC704184018C1584058C16D4763603D
:1011B000C7021307840093078500144394C3544364
:1011C000D4C3184798C7A2855685712399B518448A
:1011D00018C5584458C56307F60013070401930760
:1011E0000501E1BF1C48130784011CC9544893073B
:1011F000850154C9D9B7AA872287C1B7A285693E9C
:10120000D9B7CA899DBBB3E9E90023A23401D84309
:1012100013671700D8C375B5411122C42A842E85DF
:101220009707C05F23A007E206C6EF009018FD579E
:101230006319F5009707C05F9387C7E09C4391C38C
:101240001CC0B240224441018280411122C42E843C
:101250008395E50006C6EF007000634905003C4831
:10126000AA973CC8B2402244410182808357C400FF
:101270007D777D17F98F2316F400EDB70145828045
:1012800083D7C500011122CC26CA4AC84EC606CE55
:1012900093F70710AA842E843289B68991C7839563
:1012A000E5008946014641258357C4007D777D17B7
:1012B000F98F2316F4008315E4006244F240CE86D1
:1012C0004A86B24942492685D24405613DA841116A
:1012D00022C42E848395E50006C6B125FD57035729
:1012E000C400631BF500FD77FD17F98F2316F4008A
:1012F000B2402244410182808567D98F2316F400D1
:1013000028C8FDB78395E50011AA411122C42A849B
:101310002E85B28536869707C05F23A507D206C6FD
:10132000EF00700FFD576319F5009707C05F9387B3
:1013300067D19C4391C31CC0B240224441018280CA
:1013400041119707C05F938767CA26C2AA84884362
:1013500022C406C62E8409C51C5D99E3EFE0DFF9BF
:101360000317C40093170701C18393F68700A1EE0A
:1013700093F6070189EEA5479CC01367070423165F
:10138000E4007D55B2402244924441018280918B19
:101390008DC70C5889C9930704046384F50026851A
:1013A0005D2E232804028357C4002322040093F7F0
:1013B000B7FD2316F4001C481CC08357C40093E7F4
:1013C00087002316F4001C4881EF8357C4001307DD
:1013D000002093F707286385E700A2852685C523AB
:1013E0008357C40013F7170005C75C482324040083
:1013F000B307F0401CCC1C480145C9F78317C40053
:1014000013F7070841D393E707042316F40095BFA9
:10141000898B014791E3584818C4F1BF411122C498
:101420002A842E859707C05F23AE07C006C6E12534
:10143000FD576319F5009707C05F9387A7C09C43CA
:1014400091C31CC0B240224441018280411106C6B2
:1014500022C426C24AC089E90149B24022444A85D1
:101460009244024941018280AA842E8409C51C5DF0
:1014700099E3EFE07FE88317C400F9DFA2852685B2
:1014800085205C542A8999C74C4C268582976353E2
:1014900005007D598357C40093F7070881C70C489E
:1014A0002685552C0C5889C9930704046384F500DC
:1014B00026855524232804026C4089C52685612C85
:1014C00023220404EFE0FFF123160400EFE09FF174
:1014D00069B79707C05F938767B1AA858843BDB78F
:1014E0008397C500011122CC13970701418326CAB7
:1014F00006CE4AC84EC693768700AA842E84E5EEAF
:10150000056713070780D98FD8412396F500634DEF
:10151000E000D85D634AE0000145F2406244D244F5
:101520004249B2490561828018547DD703A904005D
:101530009396370123A0040063D5060830488357EB
:10154000C400918B99C75C401D8E1C5899C35C5C8C
:101550001D8E1C544C4C814626858297FD57835620
:10156000C400631DF5009C4075476360F7083707AA
:10157000402005073357F700058B25CBFD77938770
:10158000F77F1848F58FC207C18718C02316F400EB
:10159000232204001397370163580700FD57631493
:1015A000F5009C4091E328C80C5823A02401ADD538
:1015B000930704046384F5002685712A2328040216
:1015C000A1BF4C4C0146854626850297FD572A86C9
:1015D000E317F5F69C40A5D775476385E7005947A3
:1015E0006394E70423A0240105BF93E706042316B0
:1015F000F4007D551DB783A90501E38F09F003A908
:1016000005000D8B23A0350133093941814711E3D2
:10161000DC491CC4E35220F15C504C4CCA864E8617
:10162000268582976347A0008357C40093E7070489
:101630007DBFAA993309A940F1BF011122CC06CE82
:101640002A8419C51C5D89E72EC6EFE0FFCAB245A2
:101650008397C50091C722856244F240056149B570
:10166000F2406244014505618280AA8511E99387B1
:101670000182884397050000938565FC6FF04F8DCC
:101680009707C05F93878796884345BF011122CC97
:1016900026CA4AC84EC62E8406CE2A8997F9BF5F4D
:1016A0009389C9D8EFF06FFE83A789000567C4430B
:1016B0009307F7FE33848740F198269431807D1498
:1016C0003204635DE4004A85EFF04FFC0145F240CF
:1016D0006244D2444249B2490561828081454A85CB
:1016E000253E83A78900A697E31FF5FCB30580403C
:1016F0004A851D36FD57631AF50281454A85293E04
:1017000003A78900BD46B307E540E3DEF6FA970676
:10171000C05F9386E68D944293E717005CC3158DF6
:101720009706C05F23ACA68E79BF83A78900818C02
:1017300093E41400C4C39707C05F9387278E9C432C
:101740004A85338487409707C05F23A9878CEFF0D1
:10175000EFF30545ADBF6387051C411122C426C2C6
:101760002A84AE8406C6EFF04FF283A5C4FF9386A9
:1017700084FF17F5BF5F130565CB93F7E5FF33864D
:10178000F6005842032885008589719B6318C804B8
:10179000BA9789E903A784FF998E9046BA97D846ED
:1017A00058C610C713E71700D8C217F7BF5F232327
:1017B000D7C81707C05F1307E783184363E9E7003B
:1017C0009707C05F938747858C432285C135228563
:1017D0002244B240924441016FF04FEB58C201489D
:1017E00095E183A584FF97F8BF5F9388A8C48D8E89
:1017F000AE978C466385150983A8C60023A61501FC
:1018000023A4B800B305E600CC41858995E5BA97D5
:1018100018466318080697F5BF5F9385A5C1631244
:10182000B70617F6BF5F232DD6C017F6BF5F232775
:10183000D6C0D8C698C6054813E71700D8C2338764
:10184000F6001CC3E31508F81307F01F636FF702D7
:101850008D8313D6274005473317C70050418507AE
:101860008E07518FAA9717F6BF5F2323E6BC9843D4
:10187000138687FFD0C698C694C354C789BF05484E
:1018800051B7504650C718C645BF13D697001147E9
:10189000636EC70213D76700130787031306170089
:1018A0000E062A96930586FF10426397C506854764
:1018B00009873397E7005C415D8F97F7BF5F23A9E6
:1018C000E7B6CCC690C694C554C611B751476365F8
:1018D000C7001307B605D9B7130740056367C700EC
:1018E00013D7C7001307E70655BF130740156367F3
:1018F000C70013D7F700130777074DB79305405577
:101900001307E007E3ECC5F813D727011307C70750
:1019100071B710466386C5005842719BE3EBE7FE42
:101920004C4645B78280411122C42A842E85B28557
:10193000368697F7BF5F23A7077006C60D24FD57AD
:101940006319F50097F7BF5F9387C76F9C4391C3F7
:101950001CC0B2402244410182801971A6DAAE84D3
:101960008395E500A2DC86DE328463DC050083D744
:10197000C40023A0060093F707088DEB93070040EF
:1019800005A8300836C62922B246E34205FE724752
:10199000BD670565F98F7977BA9793B717009CC231
:1019A000930700401CC01305058029A0930700047D
:1019B0001CC00145F6506654D6540961828083D715
:1019C000C500011122CC06CE26CA4AC8898B2E84B6
:1019D00089CF930734041CC01CC885475CC8F240FB
:1019E0006244D24442490561828074003000AA8476
:1019F000AD37A2452A892685EFE05FDC01ED83172C
:101A0000C40013F7072061FFF19B93E7270023161B
:101A1000F400C1B797F7FFFF93878788DCDC835713
:101A2000C40008C008C893E707082316F400A247BB
:101A30005CC8B24789CF8315E4002685592001C9C7
:101A40008357C400F19B93E717002316F4008357D4
:101A5000C4003369F9002316240151B7411122C48F
:101A60002A842E85B285368697F7BF5F23AC075C44
:101A700006C6192AFD576319F50097F7BF5F9387CC
:101A8000675C9C4391C31CC0B240224441018280E8
:101A9000411122C42A842E85B28597F7BF5F23A304
:101AA000075A06C69528FD576319F50097F7BF5FDB
:101AB000938747599C4391C31CC0B24022444101C3
:101AC0008280411122C42A842E8597F7BF5F23AB01
:101AD000075606C6AD20FD576319F50097F7BF5F9F
:101AE000938747569C4391C31CC0B2402244410196
:101AF0008280000001A0011106CE22CC0010232616
:101B0000A4FE71222A87930780051CC3FD573E85DA
:101B1000F240624405618280011106CE22CC0010A1
:101B20002326A4FE2324B4FE9D222A87930780FA4D
:101B30001CC3FD573E85F24062440561828001115D
:101B400022CE00102326A4FE8327C4FEFD1793B7E0
:101B5000170093F7F70F3E857244056182800111EB
:101B600006CE22CC00102326A4FE2324B4FE23227A
:101B7000C4FE312A2A87930780051CC3FD573E8582
:101B8000F240624405618280011106CE22CC001031
:101B90002326A4FE2324B4FE2322C4FECD282A87B4
:101BA000930780051CC3FD573E85F24062440561E2
:101BB0008280797122D60018232EA4FC83A7C180CD
:101BC0002326F4FE1387C1C5B7470080938707001B
:101BD0006314F700814725A803A7C1808327C4FDAC
:101BE0003E97B747008093870700637AF70003A703
:101BF000C1808327C4FD3E9723A6E18039A03747E3
:101C000000801307070023A6E1808327C4FE3E85DA
:101C1000325445618280797106D622D40018232E71
:101C2000A4FC232CB4FC232AC4FC0327C4FD854751
:101C30006309F700A9282A87930780051CC3FD576D
:101C40002DA8832784FD2324F4FE232604FE39A82F
:101C5000032784FE8327C4FEBA9783C707003E8507
:101C6000012C8327C4FE85072326F4FE0327C4FE28
:101C7000832744FDE36EF7FC81473E85B250225432
:101C800045618280AA85814601460145D1A897F722
:101C9000BF5F9387A735884382804111814522C465
:101CA00006C62A84392A9387018288435C5D91C3E2
:101CB00082972285EF10F053411197E7BFDF93879A
:101CC000673422C417E4BFDF1304C4331D8C26C25B
:101CD00006C60984BE8419E42244B24092444101FC
:101CE0006FE02FC57D1493172400A6979C4382971D
:101CF000DDB7411197270000938747F822C41724C6
:101D000000001304A4F71D8C26C24AC006C609842D
:101D100081443E8963988402EFE0AFC197270000B9
:101D20009387C7F517240000130484F51D8C0984DC
:101D300081443E89639F8400B24022449244024918
:101D40004101828093972400CA979C43850482971F
:101D5000D1B793972400CA979C4385048297D9BF33
:101D60009387018298432A838327871489E79307FF
:101D7000C7142324F714D8437D487D556342E804F3
:101D80009318270063090302338517012324C5082C
:101D900003A8871805463316E6003368C80023A455
:101DA00007192324D51089466317D30083A6C718C3
:101DB000558E23A6C7180507D8C3C6978CC70145FB
:101DC00082807971938701824ECE83A9070052CC1D
:101DD00056CA5AC806D622D426D24AD05EC6AA8A85
:101DE0002E8A054B83A4891481C8C0401309F4FFCF
:101DF0000A042694635D0900B25022549254025999
:101E0000F249624AD24A424BB24B45618280630931
:101E10000A0083274410638547017D197114D9BFD7
:101E2000D8405C407D176316270323A22401F5D711
:101E300083A6841833172B0183AB4400F98E89EEF7
:101E40008297DC40E39077FB83A78914E38797FCB4
:101E500051BF23220400E1BF83A6C4188325440890
:101E6000758F01E756858297E9BF2E858297D1BF8E
:101E7000797106D622D40018AA87A30FF4FC034771
:101E8000F4FDA9476310F702B545B7170080138525
:101E900087FBAD282326A4FE8327C4FE81C78327A2
:101EA000C4FE11A88347F4FDBE85B71700801385D3
:101EB00087FBA928AA873E85B250225445618280BB
:101EC000411106C622C40008F16793850720B717A1
:101ED0000080138587FB31200100B240224441017C
:101EE0008280011106CE22CC00102326A4FE2324DA
:101EF000B4FE8327C4FE9C439C43832584FE0325B4
:101F0000C4FE8297F240624405618280011106CED0
:101F100022CC00102326A4FEAE87A305F4FE83275F
:101F2000C4FE9C43D8438347B4FEBE850325C4FE4C
:101F30000297AA873E85F2406244056182800111C2
:101F400006CE22CC00102326A4FE2324B4FE832731
:101F5000C4FE9C439C4B832584FE0325C4FE8297CC
:101F6000AA873E85F240624405618280797122D65B
:101F70000018232EA4FC8327C4FD2326F4FE832708
:101F8000C4FE9C4F3E85325445618280011106CECD
:101F900022CC00102326A4FE2324B4FE0325C4FE75
:101FA000F137AA873E85F2406244056182807971EB
:101FB00022D60018232EA4FC0325C4FD8328850007
:101FC00031657115469508412326A4FE0325C4FDFD
:101FD0008328850031656115469508412324A4FEB8
:101FE0000325C4FD83288500316571154695084198
:101FF0008328C4FEE392A8FC0325C4FE2A83814300
:10200000131803008147032584FEAA860147B3E520
:10201000D7003366E800AE8732883E85C2853254E9
:1020200045618280011122CE00102326A4FE2320C8
:10203000B4FE2322C4FE0327C4FE14471167110710
:102040003697BA867D5798C20327C4FE1447116796
:102050003697BA86032704FE98C2032744FE935797
:10206000070001480327C4FE14471167110736977C
:102070001CC381473E85724405618280797106D612
:1020800022D40018232EA4FC8327C4FD2324F4FEAD
:10209000832784FE9C4BA9EF832784FEDC4B2322FD
:1020A000F4FE232604FE15A8832744FE9C4303A8C0
:1020B0004700032784FE8327C4FE91078A07BA9747
:1020C000DC47832684FE0146BE85032544FE029834
:1020D0008327C4FE85072326F4FE832784FE9C4FB6
:1020E0000327C4FEE342F7FC832784FE054798CB11
:1020F0000100B250225445618280797106D622D403
:102100000018232EA4FC232CB4FC232AC4FC23286F
:10211000D4FCFD572326F4FE8327C4FD2324F4FEBC
:10212000832784FEDC4B2322F4FE832744FE85C3F1
:10213000832744FE9C43DC43832604FD032644FDA1
:10214000832584FD032544FE82972326A4FE83274E
:10215000C4FE3E85B250225445618280797106D614
:1021600022D40018232EA4FC232CB4FCFD572326D4
:10217000F4FE8327C4FD2324F4FE832784FD85C752
:10218000832784FEDC4B2322F4FE832744FE81CF89
:10219000832744FE9C439C47832584FD032544FEFE
:1021A00082972326A4FE01003E85B2502254456149
:1021B0008280797106D622D40018232EA4FC232C09
:1021C000B4FCFD572326F4FE8327C4FD2324F4FE2C
:1021D000832784FD85C7832784FEDC4B2322F4FEFE
:1021E000832744FE81CF832744FE9C43DC4783251D
:1021F00084FD032544FE82972326A4FE01003E852C
:10220000B250225445618280797106D622D40018DA
:10221000232EA4FC232CB4FC232AC4FCFD57232624
:10222000F4FE8327C4FD2324F4FE032784FD954791
:1022300063EBE70C832784FD13972700B747402003
:10224000938787AFBA979C438287832744FDD5CF76
:10225000032584FEA93BAA872E88032744FD1CC3BF
:1022600023220701232604FE4DA0832744FDC5C376
:10227000832744FD03A847009C43BE85428603256F
:1022800084FE4D33232604FE59A0832744FDD1C389
:10229000832744FD9C432322F4FE832784FE9C472E
:1022A000032744FE0A07BA9723A00700232604FE4B
:1022B0008DA0832744FDA5C3832744FD9C4323228F
:1022C000F4FE832784FE9C47032744FE0A07BA973F
:1022D0003E8785471CC3232604FE35A8232604FE1B
:1022E000832744FD9DCB832744FD9C432322F4FE9A
:1022F000832784FE9C47032744FE0A07BA979C4322
:102300002326F4FE19A8010011A8010001A801006C
:1023100031A0010021A0010011A001008327C4FE0B
:102320003E85B250225445618280011122CE0010B8
:102330002326A4FE8327C4FE634AF0000327C4FEBD
:102340000A0793878181BA979C4311A081473E85F4
:10235000724405618280011122CE0010F32740F102
:102360002326F4FE8327C4FE3E85724405618280E5
:10237000011122CE0010A147F3A707302326F4FE57
:102380000100724405618280011122CE0010A14734
:10239000F3B707302326F4FE010072440561828002
:1023A000011122CE0010A147F3A747302326F4FEE7
:1023B0000100724405618280011122CE0010A14704
:1023C000F3B747302326F4FE010072440561828092
:1023D000011122CE001093070008F3A747302326EF
:1023E000F4FE0100724405618280011122CE0010CA
:1023F00093070008F3B747302326F4FE0100724428
:1024000005618280011122CE0010856793870780C5
:10241000F3A747302326F4FE010072440561828051
:10242000011122CE0010856793870780F3B74730EC
:102430002326F4FE0100724405618280797122D660
:102440000018232EA4FC8327C4FD0547B317F7000B
:102450002326F4FE8327C4FEF3A747302324F4FE8B
:102460000100325445618280797122D60018232EF2
:10247000A4FC8327C4FD0547B317F7002326F4FE09
:102480008327C4FEF3B747302324F4FE01003254FF
:1024900045618280011106CE22CC00102326A4FEC5
:1024A0002324B4FE13054006EF10C053011106CEDD
:1024B00022CC00102326A4FE2324B4FE1305800C96
:1024C000EF104052797106D622D40018232EA4FCB6
:1024D000232CB4FC49352A870A0793878181BA9750
:1024E0009C432326F4FEF32720342324F4FE832781
:1024F000C4FE95C78327C4FEDC472322F4FE83274E
:1025000084FE93F7F73F032744FE9387470E8A071D
:10251000BA979C438325C4FD0325C4FE829701001E
:10252000B250225445618280797106D622D40018B7
:10253000232EA4FC232CB4FC393DAA873E85F53319
:102540002326A4FE0325C4FEEF00007F2320A4FE63
:102550002322B4FE832704FE032844FEA945014636
:10256000B386B70036853335F5003307C800B307A7
:10257000E5003E87B6873A88BE8542860325C4FEBD
:10258000EF0070020100B2502254456182800000C9
:10259000000000000000000000000000000000003B
:1025A000000000000000000000000000000000002B
:1025B000000000000000000000000000000000001B
:1025C000000000000000000000000000000000000B
:1025D00000000000000000000000000000000000FB
:1025E00000000000000000000000000000000000EB
:1025F00000000000000000000000000000000000DB
:10260000197186DE96DC9ADA9ED8A2D6AAD4AED20A
:10261000B2D0B6CEBACCBECAC2C8C6C6F2C4F6C222
:10262000FAC07EDE0001053B2A870A079387818175
:10263000BA979C432326F4FAF32720342324F4FA90
:10264000F32710342322F4FAF32730342320F4FA4A
:10265000F3275030232EF4F88327C4FAF9C38327D5
:10266000C4FADC47232CF4F8832784FA93F7F73F66
:10267000232AF4F8832784FA63D70708032744F949
:10268000BD4763D7E7008327C4F993F7F7039DEFAE
:10269000832684F9032744F9BA878607BA978E07F9
:1026A000B69783A7070A2326F4F8832684F903271D
:1026B00044F9BA878607BA978E07B69783A7870922
:1026C0008325C4F8032544F98297A1A88327C4F978
:1026D00013F7F70389476316F704F32770302328AD
:1026E000F4F8832784F983A7470E2326F4F8832779
:1026F00004F92324F4F8832784F88325C4F80325F8
:1027000044F9829739A8032784F9832744F99387EA
:10271000470E8A07BA979C43832544F90325C4FAD8
:102720008297F650E6525653C65336542655965560
:102730000656F6466647D6474648B648264E964E53
:10274000064FF25F096173002030000000000000B6
:102750000000000000000000000000000000000079
:102760000000000000000000000000000000000069
:102770000000000000000000797122D60018232E0E
:10278000A4FC232CB4FCF32750302326F4FE83272B
:10279000C4FE93F707FC2326F4FE832784FD23243D
:1027A000F4FE0327C4FD8547630AF7048327C4FDAD
:1027B000A9CF0327C4FD89476308F7000327C4FD99
:1027C0008D476300F70281A8832784FE93E72700E3
:1027D000739077308327C4FE93E7270073905730B8
:1027E0001DA8832784FE93E73700739077308327F3
:1027F000C4FE93E737007390573031A8832784FED7
:1028000093E717007390573039A0832784FEF19B1C
:1028100073905730010001003254456182800111EC
:1028200022CE00102326A4FE8327C4FEF51771478D
:10283000636DF70013972700B7474020938707B1D0
:10284000BA979C438287854719A0010081473E853E
:10285000724405618280797106D622D40018232E35
:10286000A4FC232CB4FC232AC4FC232604FE8327C7
:10287000C4FD99E3FD57B5A8032784FDFD4763E830
:10288000E706832784FD13972700B74740209387E7
:1028900047B8BA979C438287832744FD81C7EFF0EE
:1028A0003FADB1A0EFF05FAE99A0832744FD99C37F
:1028B000C53C35A8113625A8832744FD99C3093E98
:1028C0003DA025362DA0832744FD99C3253E05A0B4
:1028D000813E31A8832744FD91C7832784FD3E852F
:1028E000B13E29A0832784FD3E85BD3E010083279C
:1028F000C4FE3E85B250225445618280797122D651
:102900000018232EA4FC232CB4FC232AC4FC832708
:10291000C4FD2326F4FE032784FDAD4763C2E7020E
:10292000832744FD91CF0327C4FE832784FD93872B
:10293000470E8A07BA97032744FD98C3814711A021
:10294000FD573E85325445618280797106D622D486
:102950000018232EA4FC8327C4FD2322F4FE832722
:1029600044FE9C47E1EB232604FEB9A0832644FEE7
:102970000327C4FEBA878607BA978E07B69723AC9B
:102980000708832644FE0327C4FEBA878607BA9742
:102990008E07B69723AE0708832644FE0327C4FE9E
:1029A000BA878607BA978E07B69723A0070A8327A8
:1029B000C4FE85072326F4FE0327C4FEFD47E3D7A4
:1029C000E7FA232404FE1DA0032744FE832784FE88
:1029D0009387470E8A07BA9737274020130747493E
:1029E00098C3832784FE85072324F4FE032784FEEF
:1029F000AD47E3DBE7FCB72740209385076001453F
:102A0000A53BF32710302320F4FE032704FEC16703
:102A100093878702F98F99CBF32700302320F4FEA8
:102A2000032704FE8967D98F73900730832744FEFC
:102A3000054798C70100B2502254456182807971E0
:102A400006D622D40018232EA4FC232CB4FC232A5F
:102A5000C4FC2328D4FC232604FE8327C4FD23249E
:102A6000F4FE032584FD653BAA8799E3D55739A277
:102A7000832744FD85CF832684FE032784FDBA8700
:102A80008607BA978E07B697032744FD23ACE7085D
:102A9000832684FE032784FDBA878607BA978E07AC
:102AA000B697032704FD23A0E70AF9A0832784FD36
:102AB000F51771476362F70C13972700B74740205B
:102AC000938747C0BA979C438287832684FE032757
:102AD00084FDBA878607BA978E07B69737274020B6
:102AE0001307474C23ACE708832684FE032784FDA5
:102AF000BA878607BA978E07B697032704FD23AED9
:102B0000E7089DA8832684FE032784FDBA878607ED
:102B1000BA978E07B697372740201307875223AC02
:102B2000E708832684FE032784FDBA878607BA97C1
:102B30008E07B697032704FD23AEE70835A8832642
:102B400084FE032784FDBA878607BA978E07B69757
:102B5000372740201307C74A23ACE708832684FEA3
:102B6000032784FDBA878607BA978E07B69703278F
:102B700004FD23AEE70801008327C4FE3E85B25062
:102B8000225445618280011106CE22CC00102326FA
:102B9000A4FE2324B4FE832784FE0546BE850325B8
:102BA000C4FE5539AA873E85F240624405618280A1
:102BB000011106CE22CC00102326A4FE2324B4FE4D
:102BC000832784FE0146BE850325C4FE6931AA879A
:102BD0003E85F240624405618280797106D622D436
:102BE0000018232EA4FC232CB4FC232AC4FC832726
:102BF000C4FD2326F4FE832784FD9DEB832744FD3B
:102C000091EBB727402093850760032544FDAD363F
:102C1000814705A0032744FD8547631BF7008327F1
:102C2000C4FEC107BE85032544FDB936814711A006
:102C3000FD573E85B250225445618280797106D697
:102C400022D40018232EA4FC232CB4FC8327C4FD1B
:102C50002326F4FE832784FD89EBB7274020938544
:102C600007600145113E814711A0FD573E85B250D6
:102C7000225445618280011122CE00102326A4FE39
:102C80002324B4FE2322C4FE81473E85724405619D
:102C90008280397122DE80002326A4FC0143814317
:102CA000232464FE232674FE732500B82322A4FE89
:102CB000732500B02320A4FE732500B8232EA4FCA6
:102CC000832844FE0325C4FD6395A802032544FE22
:102CD000AA850146139805008147032604FEB286A3
:102CE000014733E6D7002324C4FEB367E800232658
:102CF000F4FE832784FE0328C4FE3E85C2857254F9
:102D000021618280797122D60018232EA4FC03272A
:102D1000C4FD2326E4FE0327C4FE01E781470148E2
:102D200039A00327C4FE1847BA877D873A883E85B5
:102D3000C285325445618280397106DE22DC800012
:102D40002326A4FC81470148232CF4FC232E04FDF8
:102D50008327C4FC2326F4FE8327C4FEDC4795CBDF
:102D60008327C4FEDC472324F4FE832784FE83A745
:102D700047142322F4FE832744FE81CF832744FE99
:102D80009C43984F930784FD3E868545032544FE6A
:102D90000297832784FD0328C4FD3E85C285F25037
:102DA000625421618280797106D622D40018232EC4
:102DB000A4FC2328B4FC232AC4FCFD572326F4FEDC
:102DC0008327C4FD2324F4FE832784FEDC4785CFBC
:102DD000832784FEDC472322F4FE832744FE83A757
:102DE00047142320F4FE832704FE91CF832704FE9B
:102DF0009C43984F930704FD3E868945032504FEB6
:102E000002972326A4FE8327C4FE3E85B250225497
:102E100045618280011122CE00102326A4FEB7173F
:102E200000809387C7843E857244056182800111CA
:102E300022CE00102326A4FE9D473E8572440561E4
:102E40008280011122CE00102326A4FEB717008035
:102E50009387C7843E85724405618280011122CE2A
:102E600000102326A4FE8D473E85724405618280B2
:102E7000797106D622D40018232EA4FC232CB4FC8E
:102E8000FD572326F4FE8327C4FD2324F4FE832765
:102E900084FEDC4785CF832784FEDC472322F4FEB3
:102EA000832744FE83A7470E2320F4FE832704FED6
:102EB00091CF832704FE9C43984F930784FD3E8661
:102EC0009145032504FE02972326A4FE8327C4FE12
:102ED0003E85B250225445618280797106D622D453
:102EE0000018232EA4FC232CB4FCFD572326F4FE4B
:102EF0008327C4FD2324F4FE832784FEDC4785CF8B
:102F0000832784FEDC472322F4FE832744FE83A725
:102F1000470E2320F4FE832704FE91CF832704FE6F
:102F20009C43984F930784FD3E868D45032504FE00
:102F300002972326A4FE8327C4FE3E85B250225466
:102F400045618280797106D622D40018232EA4FC14
:102F5000232CB4FC232604FE8327C4FD2324F4FE83
:102F6000832784FEDC4785CF832784FEDC4723222A
:102F7000F4FE832744FE83A7470E2320F4FE832715
:102F800004FE91CF832704FE9C43984F930784FD52
:102F90003E869545032504FE02972326A4FE83273B
:102FA000C4FE3E85B250225445618280797122D69A
:102FB0000018232EA4FC8327C4FD2326F4FE8327B8
:102FC000C4FEDC473E85325445618280797106D665
:102FD00022D40018232EA4FC232CB4FC232AC4FCE6
:102FE0008327C4FD2326F4FE8327C4FEDC4789CF54
:102FF0008327C4FEDC47032644FD832584FD3E85EC
:10300000EFF0DF8FAA8711A0FD573E85B250225402
:1030100045618280011122CE00102326A4FE2324C4
:10302000B4FE832784FE83D707008D8B99C3914715
:1030300011A089473E85724405618280797122D64C
:103040000018232EA4FCF32710342326F4FE832734
:10305000C4FE3E85325445618280011122CE0010AB
:103060002326A4FE2324B4FE832784FE7390173402
:1030700081473E85724405618280011122CE001095
:103080002326A4FE8327C4FE9847B7072000910794
:10309000BA979C433E85724405618280011122CE1D
:1030A00000102326A4FE2324B4FE8327C4FE9847E1
:1030B000B70720009107BA973E87832784FE1CC379
:1030C0000100724405618280011122CE0010232686
:1030D000A4FE2324B4FE8327C4FE9847B70720002C
:1030E000BA973E87832784FE1CC3010072440561A2
:1030F0008280011122CE00102326A4FE2324B4FED8
:103100002322C4FE8327C4FE9C4F85C78327C4FEA9
:103110009C4F3E87832744FE63FDE7008327C4FE60
:103120009C47032784FE0A07BA973E87832744FEFD
:103130001CC30100724405618280797106D622D4D5
:103140000018232EA4FC232CB4FC232AC4FCEFF08B
:103150008FA02326A4FE8327C4FD9C47032784FD5C
:1031600015870A073E978967BA979C432324F4FE84
:10317000832744FD81CF832784FDFD8B0547B3174B
:10318000F7003E87832784FED98F29A8832784FDF3
:10319000FD8B0547B317F70093C7F7FF3E878327DB
:1031A00084FEF98F0327C4FD1847832684FD958686
:1031B0008A06BA96096736971CC30100B25022549A
:1031C00045618280011106CE22CC00102326A4FE88
:1031D0002324B4FE1305C012EF00D000797106D687
:1031E00022D40018232EA4FC232CB4FC832784FDB6
:1031F0002326F4FE0325C4FE49352324A4FE832799
:10320000C4FEDC4F3E87832784FE63F4E704032774
:10321000C4FE832784FEA1078A07BA979C4795CBF3
:103220000327C4FE832784FEA1078A07BA9703A851
:103230008700032684FE8326C4FE032784FEBA8704
:103240008607BA978E07B69783A7870ABE85328509
:103250000298832584FE0325C4FE89350100B250FF
:10326000225445618280797106D622D40018232E1B
:10327000A4FC8327C4FD2324F4FE832784FE9C53EF
:10328000639B070E832784FE9C4B2322F4FE832737
:1032900044FE9C439C43032544FE8297232604FE60
:1032A0008DA001468325C4FE032584FE79350146A1
:1032B0008325C4FE032584FE2D3D032784FE83273A
:1032C000C4FEA1078A07BA9723A40700832684FEB9
:1032D0000327C4FEBA878607BA978E07B69723A23C
:1032E000070A832684FE0327C4FEBA878607BA9797
:1032F0008E07B69723A4070A8327C4FE85072326D3
:10330000F4FE832784FEDC4F0327C4FEE34BF7F86B
:103310008145032584FE4D3B832744FE9C43D843CF
:10332000832784FEDC4B832684FE0146BE8503256D
:1033300044FE0297832744FE9C4303A8470083274B
:1033400084FED84B832684FEB73740201386C71DE2
:10335000BA85032544FE0298832744FE9C43984780
:10336000832784FEDC4BBE85032544FE029783271A
:1033700084FE054798D30100B250225445618280F3
:10338000797106D622D40018232EA4FC232CB4FC79
:10339000232AC4FC2328D4FC8327C4FD2326F4FE5F
:1033A0008327C4FEDC4F032784FD6344F700FD57E9
:1033B00051A0832744FD9DCF0946832584FD032525
:1033C000C4FE053B0327C4FE832784FDA1078A07AB
:1033D000BA97032744FD98C78326C4FE032784FDBC
:1033E000BA878607BA978E07B697032704FD23A4EA
:1033F000E70A81A00546832584FD0325C4FED5394F
:103400000327C4FE832784FDA1078A07BA973737AD
:1034100040201307471C98C78326C4FE032784FD5A
:10342000BA878607BA978E07B697032704FD23A2AB
:10343000E70A81473E85B250225445618280797106
:1034400006D622D40018232EA4FC232CB4FC8327F8
:10345000C4FD2326F4FE8327C4FEDC4F032784FD2E
:103460006344F700FD5701A80546832584FD032525
:10347000C4FEE13181473E85B250225445618280CD
:10348000797106D622D40018232EA4FC232CB4FC78
:103490008327C4FD2326F4FE8327C4FEDC4F0327C5
:1034A00084FD6344F700FD5701A80146832584FD90
:1034B0000325C4FE593181473E85B25022544561EF
:1034C0008280797122D60018232EA4FC232CB4FC10
:1034D0008327C4FD2326F4FE8327C4FE9C4791075F
:1034E0009C43032784FD1347F7FFBA860327C4FED6
:1034F00018471107F58F1CC381473E85325445613B
:103500008280797122D60018232EA4FC8327C4FD63
:103510002326F4FE8327C4FE9C47B1079C433E85C7
:10352000325445618280797122D60018232EA4FC82
:10353000232CB4FC8327C4FD2326F4FE8327C4FE7A
:103540009C47A1079843832784FD8326C4FE9446A5
:10355000A106D98F9CC281473E8532544561828045
:10356000797122D60018232EA4FC232CB4FC8327C7
:10357000C4FD2326F4FE8327C4FE9C47B10798436D
:10358000832784FD8326C4FE9446B106D98F9CC24E
:1035900081473E85325445618280797122D6001878
:1035A000232EA4FC232CB4FC8327C4FD2326F4FE85
:1035B0008327C4FE9C47B1079C43032784FD134720
:1035C000F7FFBA860327C4FE18473107F58F1CC3DF
:1035D00081473E85325445618280797122D6001838
:1035E000232EA4FC232CB4FC8327C4FD2326F4FE45
:1035F0008327C4FE9C47B1079843832784FD832615
:10360000C4FE9446B106B98F9CC281473E853254B0
:1036100045618280797122D60018232EA4FC232CC8
:10362000B4FC232AC4FC8327C4FD2326F4FE83278D
:10363000C4FE9C479387C7039C43032784FD13471D
:10364000F7FFBA860327C4FE18471307C703F58F91
:103650001CC38327C4FE9C47938787039843832713
:1036600044FD8326C4FE944693868603D98F9CC26C
:1036700081473E85325445618280797122D6001897
:10368000232EA4FC8327C4FD2326F4FE8327C4FE37
:10369000DC533E85325445618280797122D6001810
:1036A000232EA4FC8327C4FD2326F4FE8327C4FE17
:1036B000DC57938707023E853254456182800111B1
:1036C00022CE00102326A4FEAE87A305F4FE01003F
:1036D0008327C4FEDC479C43E3CC07FE8327C4FE5C
:1036E000DC473E878347B4FE1CC381473E85724456
:1036F00005618280797122D60018232EA4FC232C28
:10370000B4FCB70700802326F4FE01A88327C4FD7C
:10371000DC4791079C432326F4FE8327C4FEE3C7BE
:1037200007FE8327C4FE13F7F70F832784FD23804A
:10373000E70081473E85325445618280797122D607
:103740000018232EA4FC8327C4FD2326F4FE832720
:10375000C4FEDC4B3E85325445618280797106D6C9
:1037600022D40018232EA4FC232CB4FC8327C4FDF0
:103770002326F4FE032784FD8327C4FED8CB8327AA
:10378000C4FE9C47B5C38327C4FE9C479C43984313
:103790008327C4FE9C473E8502972324A4FE03276B
:1037A00084FE832784FDB347F7021387F7FF83273F
:1037B000C4FEDC47E10798C38327C4FEDC47A107AA
:1037C0009C430327C4FE5847210793E717001CC3F7
:1037D0008327C4FEDC47B1079C430327C4FE584738
:1037E000310793E717001CC381473E85B25022542E
:1037F00045618280397106DE22DC80002326A4FC2C
:103800008327C4FC2326F4FE8327C4FEDC47A107DC
:1038100098438327C4FEDC47A107BE86B707F9FF9C
:10382000FD17F98F9CC28327C4FEDC47A10798438C
:103830008327C4FEDC47A107BE86C167D98F9CC21F
:1038400001008327C4FEDC47D1079C43858BF5DB51
:103850008327C4FEDC47A1079C43898B99C3A547F6
:1038600011A0A9472324F4FE8327C4FE9C479C4350
:1038700098438327C4FE9C473E8502972322A4FEDB
:10388000032784FE832744FEB307F7023E8783277E
:10389000C4FEDC4BB357F7022320F4FE232E04FCB6
:1038A00039A001008327C4FD8507232EF4FC83275C
:1038B000C4FD032704FEE3C6E7FE0100F250625494
:1038C00021618280797106D622D40018232EA4FCAF
:1038D0008327C4FD2326F4FE0327C4FE8327C4FEEA
:1038E000DC4BBE853A85EFE08FE50100B2502254F3
:1038F00045618280797106D622D40018232EA4FC5B
:10390000232CB4FC8327C4FD2326F4FE8327C4FEA6
:103910009C479DC78327C4FE98470326C4FEB7373C
:1039200040209385477F3A8585208327C4FE9847AA
:103930000326C4FEB74740209385478C3A85A528C7
:103940008327C4FE832584FD3E85EFE04FDF832778
:10395000C4FE9C4F8DC78327C4FE9C4FDC4303A845
:1039600087018327C4FE984F8327C4FEDC4FBE86A1
:103970008327C4FE9C533E86B6853A850298010093
:10398000B250225445618280011122CE00102326BC
:10399000A4FE2324B4FE2322C4FE8327C4FE0327EF
:1039A00084FED8C38327C4FE032744FE98C70100C2
:1039B000724405618280011122CE00102326A4FEEC
:1039C0002324B4FE2322C4FE8327C4FE032784FEDF
:1039D000D8C78327C4FE032744FE98CB0100724456
:1039E00005618280011122CE00102326A4FE010071
:1039F000FDBF011106CE22CC00102326A4FE032514
:043A0000C4FECD37FC
:103A040048656C6C6F2C20576F726C642100000049
:103A14000A000000203A4020000000006C69626740
:103A24006C6F7373000000004A2940203E2A402036
:103A3400862B4020B02B4020DA2B40203C2C402009
:103A4400762C4020922C4020042D4020382D4020FC
:103A5400A62D4020142E40202E2E4020422E402001
:103A64005C2E4020702E4020DA2E4020442F40202F
:103A7400AC2F4020CC2F4020143040203C3040203C
:103A84005A3040207C204020FA2040205C214020F5
:103A9400B221402000000000000000000822402065
:103AA40066324020803340203E3440208034402021
:103AB400000000000000000000000000C2344020AC
:103AC4000235402026354020603540209A3540207C
:103AD400DA35402014364020F4384020BE364020E9
:103AE400F43640203C3740205C3740207A36402072
:103AF4009A364020062340204A2240206A22402051
:103B04008A224020B2224020DC2240204628402045
:103B14004A2840204A2840204A284020462840205D
:103B24004A2840204A2840204A284020462840204D
:103B34004A2840204A2840204A2840204A28402039
:103B44004628402046284020462840204628402039
:103B54004628402046284020462840204628402029
:103B64004628402046284020462840204628402019
:103B74004628402046284020462840204628402009
:103B840098284020EE284020EE284020AA284020F3
:103B9400EE284020EE284020EE284020B82840207F
:103BA400EE284020EE284020EE284020C628402061
:103BB400EE284020EE284020EE284020EE28402029
:103BC400D4284020D4284020D4284020D428402081
:103BD400D4284020D4284020D4284020D428402071
:103BE400D4284020D4284020D4284020D428402061
:103BF400D4284020D4284020D4284020D428402051
:103C0400CA2A4020782B4020782B4020782B402053
:103C1400042B4020782B4020782B4020782B402008
:103C24003E2B4020782B4020782B4020782B4020BE
:103C3400782B40203E2B40203E2B40203E2B402022
:103C44003E2B40203E2B40203E2B40203E2B40204C
:103C54003E2B40203E2B40203E2B40203E2B40203C
:103C64003E2B40203E2B40203E2B40203E2B40202C
:043C74003E2B402083
:043C7800C01E40200A
:103C7C0000000000EC02008054030080BC030080B4
:103C8C000000000000000000000000000000000028
:103C9C000000000000000000000000000000000018
:103CAC000000000000000000000000000000000008
:103CBC0000000000000000000000000000000000F8
:103CCC0000000000000000000000000000000000E8
:103CDC0000000000000000000000000000000000D8
:103CEC0000000000000000000000000000000000C8
:103CFC0000000000000000000000000000000000B8
:103D0C0000000000000000000000000000000000A7
:103D1C000000000000000000010000000000000096
:103D2C000E33CDAB34126DE6ECDE05000B0000005B
:103D3C000000000000000000000000000000000077
:103D4C000000000000000000000000000000000067
:103D5C000000000000000000000000000000000057
:103D6C000000000000000000000000000000000047
:1040AC002804008028040080300400803004008044
:1040BC0038040080380400804004008040040080F4
:1040CC0048040080480400805004008050040080A4
:1040DC005804008058040080600400806004008054
:1040EC006804008068040080700400807004008004
:1040FC0078040080780400808004008080040080B4
:10410C008804008088040080900400809004008063
:10411C009804008098040080A0040080A004008013
:10412C00A8040080A8040080B0040080B0040080C3
:10413C00B8040080B8040080C0040080C004008073
:10414C00C8040080C8040080D0040080D004008023
:10415C00D8040080D8040080E0040080E0040080D3
:10416C00E8040080E8040080F0040080F004008083
:10417C00F8040080F8040080000500800005008031
:10418C0008050080080500801005008010050080DF
:10419C00180500801805008020050080200500808F
:1041AC00280500802805008030050080300500803F
:1041BC0038050080380500804005008040050080EF
:1041CC00480500804805008050050080500500809F
:1041DC00580500805805008060050080600500804F
:1041EC0068050080680500807005008070050080FF
:1041FC0078050080780500808005008080050080AF
:10420C00880500808805008090050080900500805E
:10421C009805008098050080A0050080A00500800E
:10422C00A8050080A8050080B0050080B0050080BE
:10423C00B8050080B8050080C0050080C00500806E
:10424C00C8050080C8050080D0050080D00500801E
:10425C00D8050080D8050080E0050080E0050080CE
:10426C00E8050080E8050080F0050080F00500807E
:10427C00F8050080F805008000060080000600802C
:10428C0008060080080600801006008010060080DA
:10429C00180600801806008020060080200600808A
:1042AC00280600802806008030060080300600803A
:1042BC0038060080380600804006008040060080EA
:1042CC00480600804806008050060080500600809A
:1042DC00580600805806008060060080600600804A
:1042EC0068060080680600807006008070060080FA
:1042FC0078060080780600808006008080060080AA
:10430C008806008088060080900600809006008059
:10431C009806008098060080A0060080A006008009
:10432C00A8060080A8060080B0060080B0060080B9
:10433C00B8060080B8060080C0060080C006008069
:10434C00C8060080C8060080D0060080D006008019
:10435C00D8060080D8060080E0060080E0060080C9
:10436C00E8060080E8060080F0060080F006008079
:10437C00F8060080F8060080000700800007008027
:10438C0008070080080700801007008010070080D5
:10439C001807008018070080200700802007008085
:1043AC002807008028070080300700803007008035
:1043BC0038070080380700804007008040070080E5
:1043CC004807008048070080500700805007008095
:1043DC005807008058070080600700806007008045
:1043EC0068070080680700807007008070070080F5
:1043FC0078070080780700808007008080070080A5
:10440C008807008088070080900700809007008054
:10441C009807008098070080A0070080A007008004
:10442C00A8070080A8070080B0070080B0070080B4
:10443C00B8070080B8070080C0070080C007008064
:10444C00C8070080C8070080D0070080D007008014
:10445C00D8070080D8070080E0070080E0070080C4
:10446C00E8070080E8070080F0070080F007008074
:10447C00F8070080F8070080000800800008008022
:10448C0008080080080800801008008010080080D0
:10449C001808008018080080200800802008008080
:1044AC00F80F008000000000000000000000000079
:1044BC0000000000F80F008040D2DF03883A402053
:1044CC00883A4020000000020000010000000000BB
:1044DC0080080080020000000300000007000000BC
:1044EC00483A4020483A402040420F008008008063
:1044FC002C3A40202C3A4020000000000100000023
:10450C00000000000000000000000000000000009F
:10451C00000000000000000000000000000000008F
:10452C00000000000000000000000000000000007F
:10453C00000000000000000000000000000000006F
:1048BC00A43A4020A43A40200000000C0000000460
:1048CC00800800800B000000070000001B000000A7
:1048DC0000000000010000000000000000000000CB
:1048EC0000000000000000000000000000000000BC
:1048FC0000000000000000000000000000000000AC
:10490C00000000000000000000000000000000009B
:10491C00000000000000000000000000000000008B
:104BDC00C03A4020C03A40200020011000100000D4
:104BEC00400C0080100000000700000008000000CE
:104BFC00090000000A0000000B0000000C0000007F
:104C0C000D0000000E0000000F000000100000005E
:104C1C00110000001200000013000000140000003E
:104C2C001500000016000000DC3A4020DC3A402061
:104C3C00300800800030011000100000000000005F
:104C4C00600F00800000030000000300400C008097
:104C5C00010000000500000000000080FFFFFFFFC6
:104C6C0000000200441400806C1F40208C1F402068
:0C4C7C00700800800000000000000080B4
:040000052040000097
:00000001FF
