:0200000420409A
:100000009721C05F93810183972200009382820F22
:10001000739052301701C0DF1301C1FE9700C0DF9B
:10002000938040FE638300008290732540F18145F8
:1000300001460D209700C0DF9380C0FC6383000061
:100040008290970200009382C20073905230032383
:100050000000F5BF06849711C05F9381A17D1381D5
:1000600001C7137101FF01E197520000938202BDA5
:100070001703C05F130303F99713C05F9383C3FD96
:10008000638C6200635A730003A50200910223206F
:10009000A3001103E34A73FE97520000938202BA51
:1000A0001703C0E7130303F69703C0E7938383F5B1
:1000B000638C6200635A730003A50200910223203F
:1000C000A3001103E34A73FE1713C05F1303C3F8C1
:1000D0009713C05F938303FD6357730023200300CE
:1000E0001103E34D73FE11C202961745000013057C
:1000F000E50BEF404008EF40C00EF3271030370704
:10010000010013078702F98F99C7F32700300967A9
:10011000D98F73900730054597550000938585B0BA
:1001200017560000130646B02D2CEF402006A28083
:0401300082808280C7
:10018000411106C622C400082945D9262945C92699
:10019000B74740201385C75345212945552EB747FA
:1001A00040201385C7554929B74740201385475834
:1001B0006121B74740201385C75ABD29B747402062
:1001C0001385475D9529B74740201385C75FAD214B
:1001D000B7474020138587628521B74740201385A4
:1001E00047659929B747402013850768B121B7476C
:1001F00040201385C76A8921B74740201385C76D02
:100200002529B74740201385C7703D21B7474020B7
:100210001385C7731521B747402013858776292991
:10022000B7474020138547790129B74740201385F8
:10023000C77B1921B74740201385477EF52EB75756
:10024000402013858780CD2EB75740201385C78265
:10025000E526B75740201385C784F92EB7574020AD
:100260001385C786D12EB757402013858788E92686
:100270002945F92C2945E92CB75740201385478A91
:10028000652E0100B240224441018280011106CE58
:1002900022CC00102326A4FE2324B4FEB71700802E
:1002A00003A78708B717008083A78709BE853A850B
:1002B000EF10106EB7170080054723AAE70801006A
:1002C000F240624405618280011106CE22CC26CA2A
:1002D00000102326A4FEB717008023AA07080325D1
:1002E000C4FEEF101070B717008083A40709B7177A
:1002F000008083A707093E85EF109050AA862E87BD
:10030000A1650146B387B6003E853335D500330875
:10031000C700330705013A88BE8542862685EF105F
:10032000D050B717008003A78708B717008083A7AE
:100330008709BE853A85EF10D0620100B7170080AB
:1003400083A74709E5DFB717008023AA070803251D
:10035000C4FEEF10506B0100F2406244D2440561CC
:100360008280011106CE22CC0010B7574020938521
:10037000878CB75740201385C78CEF10106B23264E
:10038000A4FEB75740209385078DB75740201385AB
:10039000C78CEF1090692324A4FEB75740209385A3
:1003A000878DB75740201385C78CEF101068232224
:1003B000A4FE8327C4FE99C7832784FE81C78327B1
:1003C00044FE81EBB75740201385078EB52485473F
:1003D0008DAA0325C4FEEF10905E032584FEEF1066
:1003E000105E032544FEEF10905D0325C4FEEF1060
:1003F0009061032584FEEF101061032544FEEF1089
:1004000090600145EF10F04C2A87B717008023A8B1
:10041000E708B717008083A7070981EBB75740208B
:1004200013850790112C894729AAB717008083A745
:1004300007093E85EF1090472A87B717008023A64B
:10044000E708B717008083A7C70881EBB75740209C
:100450001385C790D5228D47EDA0B717008083A7DD
:10046000C7083E85EF10F049213BB717008083A7EE
:1004700007093E85EF10D03E2A87B717008023A4D6
:10048000E708B717008083A7870881EBB75740209C
:1004900013850793552291476DA0B717008083A756
:1004A00087083E85EF10F045B717008083A707093E
:1004B0003E85EF10503D2A87B717008023ACE70830
:1004C000B717008003A78708B717008083A587099F
:1004D000B717008083A70709BE86B7074020138699
:1004E000C7283A85EF1010442320A4FE832704FE7A
:1004F00063DC0700B757402013858795352A83278B
:1005000004FEB307F04035A8B717008083A7C708DB
:1005100081453E85EF10F0442A87FD576319F700A7
:10052000B757402013854798012A994719A80325F2
:10053000C4FE593B032584FE413B032544FE693339
:10054000FDB73E85F240624405618280104511A8E6
:100550009717C05F938707AE9C43AA8590473E8557
:1005600009A0011122CC06CE2A8401C91C5D91E7A5
:1005700032C62EC4ED293246A2451C46FD171CC6C4
:1005800063DF0700184E63C7E70093F7F50F2947AD
:100590006397E70022856244F240056175A81C421A
:1005A00013F5F50F1387170018C22380B700F24028
:1005B0006244056182809717C05F9387A7A72E8644
:1005C000AA85884379BF397122DC2A842E852EC6FC
:1005D00006DE9528974700009387C73C3ED48547A1
:1005E0003ED61C10B2453ECA89473ECC1C5C2AD27E
:1005F00005052ED02ACE0C4489E722852EC68529F2
:10060000B2458397C50013972701634B070089669E
:10061000F851D58F2396F500F977FD17F98FFCD1A6
:1006200050082285EF005000FD5711E1A947F25014
:1006300062543E85216182809717C05F9387879FB0
:10064000AA85884349B7AA87850703C7F7FF6DFFC7
:100650003385A7407D158280011122CC26CA4AC865
:1006600006CE4EC62A89AE84328401C51C5D91E354
:10067000FD2E1C4C1CC48357C400A18BBDC71C4855
:10068000ADC78317C40093F9F40F93F4F40F1397D5
:100690002701635207061C4808401D8D5C486346CD
:1006A000F500A2854A856D2429E51C440505FD1742
:1006B0001CC41C401387170018C0238037015C48F6
:1006C0006389A7008357C400858B81CBA9476396B4
:1006D000F400A2854A85AD2C09EDF24062442685DE
:1006E0004249D244B24905618280A2854A853520BB
:1006F00049D9FD54DDB70967D98F2316F4007C5022
:1007000079777D17F98F7CD079B79717C05F93877A
:1007100067922E86AA85884381B741119717C05FDB
:100720009387479126C2AA84884322C406C62E8492
:1007300001C51C5D91E3252E0317C4009317070123
:10074000C18393F68700A1EE93F6070189EEA547D2
:100750009CC0136707042316E4007D55B240224471
:10076000924441018280918B8DC70C5889C99307AF
:1007700004046384F5002685C521232804028357D9
:10078000C4002322040093F7B7FD2316F4001C488D
:100790001CC08357C40093E787002316F4001C484D
:1007A00089EF8357C4001307002093F70728638657
:1007B000E700A2852685EF0050288357C40013F771
:1007C000170005C75C4823240400B307F0401CCC85
:1007D0001C480145C1F78317C40013F707083DDF24
:1007E00093E707042316F4008DBF898B014791E33B
:1007F000584818C4F1BF8397C500011122CC139744
:100800000701418326CA06CE4AC84EC693768700A2
:10081000AA842E84E5EE056713070780D98FD84197
:100820002396F500634DE000D85D634AE000014582
:10083000F2406244D2444249B24905618280185470
:100840007DD703A904009396370123A0040063D544
:10085000060830488357C400918B99C75C401D8EB1
:100860001C5899C35C5C1D8E1C544C4C81462685DB
:100870008297FD578356C400631DF5009C40754761
:100880006360F7083707402005073357F700058BEB
:1008900025CBFD779387F77F1848F58FC207C1876F
:1008A00018C02316F400232204001397370163585D
:1008B0000700FD576314F5009C4091E328C80C58CD
:1008C00023A02401ADD5930704046384F500268595
:1008D000612623280402A1BF4C4C0146854626858B
:1008E0000297FD572A86E317F5F69C40A5D7754772
:1008F0006385E70059476394E70423A0240105BFFB
:1009000093E706042316F4007D551DB783A905015E
:10091000E38F09F003A905000D8B23A035013309EE
:100920003941814711E3DC491CC4E35220F15C509A
:100930004C4CCA864E86268582976347A000835713
:10094000C40093E707047DBFAA993309A940F1BF0A
:10095000011122CC06CE2A8411C51C5D81E72EC66A
:100960003922B2458397C50091C722856244F2407F
:10097000056151B5F2406244014505618280AA8556
:1009800011E993870182884397050000938585FCD0
:100990006F00807D9707C05F9387C76988434DBF0D
:1009A00001458280411122C406C62A842316B5005F
:1009B0002317C5002320050023220500232405005A
:1009C0002322050623280500232A0500232C0500E1
:1009D000214681451305C505EF0070729717000089
:1009E000938707391CD0971700009387A73B5CD0EB
:1009F000971700009387E73F1CD497170000938751
:100A0000A74240CC5CD4B240224441018280971579
:100A10000000938545486F00207501458280411193
:100A200026C2130680069384F5FFB384C4024AC02D
:100A30002E8922C406C693854407EF00F0092A8454
:100A400001CD2320050023222501310508C413868A
:100A500084068145EF00B06A2285B2402244924468
:100A60000249410182809387018288434DB71C5D12
:100A7000A9E7411106C622C497070000938767F9CA
:100A80005CDD8D472322F52E9307C52E2A8423246F
:100A9000F52E2320052E4841014691452137084473
:100AA0000546A545013748440946C945E53D854702
:100AB0001CDCB24022444101828082804111938734
:100AC000018226C284434AC006C69C5C22C42A898D
:100AD00099E32685693F9384042E8044DC40FD170A
:100AE00063D607009C40B9CF8440C5BF0317C4003C
:100AF00039E7C17785072322040623200400232237
:100B00000400232404005CC423280400232A0400D6
:100B1000232C0400214681451305C405EF00305EF7
:100B200023280402232A0402232204042324040485
:100B30002285B2402244924402494101828013043A
:100B4000840671BF91454A85D93D88C051FDB147A2
:100B50002320F9000144E9BF828082808280828064
:100B60009707C05F9387074D8843970500009385DB
:100B700065E351AB9707C05F9387C74B88439705E1
:100B800000009385C5E941A3011122CC26CA4AC8B9
:100B90004EC62E8406CE2A899709C05F938909899B
:100BA000EF00706083A789000567C4439307F7FED1
:100BB00033848740F198269431807D143204635D3C
:100BC000E4004A85EF00505E0145F2406244D244A1
:100BD0004249B2490561828081454A85EF10E0159E
:100BE00083A78900A697E31EF5FCB30580404A85DC
:100BF000EF10A014FD57631BF50281454A85EF10E5
:100C0000C01303A78900BD46B307E540E3DBF6FA4E
:100C10009706C05F93864642944293E717005CC3F1
:100C2000158D9706C05F23AFA64261BF83A78900D9
:100C3000818C93E41400C4C39707C05F93878742F5
:100C40009C434A85338487409707C05F23AC874025
:100C5000EF009055054595BF6387051C411122C4DF
:100C600026C22A84AE8406C6EF00F05383A5C4FFD3
:100C7000938684FF17F5BF5F1305457B93F7E5FF68
:100C80003386F6005842032885008589719B6318D6
:100C9000C804BA9789E903A784FF998E9046BA974A
:100CA000D84658C610C713E71700D8C217F7BF5F5A
:100CB0002322D7781707C05F13074738184363E923
:100CC000E7009707C05F9387A7398C4322856D3D66
:100CD00022852244B240924441016F00F04C58C238
:100CE000014895E183A584FF97F8BF5F93888874D6
:100CF0008D8EAE978C466385150983A8C60023A602
:100D0000150123A4B800B305E600CC41858995E51B
:100D1000BA9718466318080697F5BF5F93858571E3
:100D20006312B70617F6BF5F232CD67017F6BF5FA6
:100D30002326D670D8C698C6054813E71700D8C230
:100D40003387F6001CC3E31508F81307F01F636F21
:100D5000F7028D8313D6274005473317C70050414C
:100D600085078E07518FAA9717F6BF5F2322E66C7F
:100D70009843138687FFD0C698C694C354C789BFCB
:100D8000054851B7504650C718C645BF13D69700FF
:100D90001147636EC70213D7670013078703130653
:100DA00017000E062A96930586FF10426397C50624
:100DB000854709873397E7005C415D8F97F7BF5FF1
:100DC00023A8E766CCC690C694C554C611B7514750
:100DD0006365C7001307B605D9B7130740056367F6
:100DE000C70013D7C7001307E70655BF1307401501
:100DF0006367C70013D7F700130777074DB793054D
:100E000040551307E007E3ECC5F813D72701130794
:100E1000C70771B710466386C5005842719BE3EB64
:100E2000E7FE4C4645B782801C4681E781473E85F8
:100E3000828083D7C5005D71A2C4CAC056DA86C657
:100E4000A6C24EDE52DC5AD85ED662D466D26AD0D2
:100E50006ECEA18BB28A2E842A89C9CF9C49D9CB68
:100E60008357C40003AA0A0013F727006316070E6E
:100E7000858B638E0714814B0145014B8149638546
:100E8000092401ED4E86A9455A85EF00B015938BD4
:100E9000190001C50505B30B65415E8C63F379014B
:100EA0004E8C08401C48544863F7A7220444B6946B
:100EB00063D38423DA852686EF00D01F1C40A285E9
:100EC0004A85A6971CC06934631B050EB38B9B40F3
:100ED000054563960B00A2854A859D3C6DE183A77D
:100EE0008A00269BB3899940B384974023A49A0033
:100EF000D9F491A0A2854A85EFF03F82FD572DD10C
:100F000025A883290A0083244A00210AFDD8A68641
:100F100063739B00DA865C504C4C4E864A85829700
:100F2000635FA00883A78A00AA99898C3385A740AC
:100F300023A4AA0061FD8147B64026449644064991
:100F4000F259625AD25A425BB25B225C925C025DF9
:100F5000F24D3E8561618280370B0080814981447A
:100F6000134B0BC065B7032B0A0083244A00210AE8
:100F7000FDD80357C4001C440840937607206388BB
:100F8000060E63E9F40893760748C9C6832D440129
:100F90000C48B38DBC03B309B54093871900A697DD
:100FA000B3CDAD0363F3FD00BE8D1377074045C39A
:100FB000EE854A8515261DE5B1472320F9008357A4
:100FC000C40093E707042316F400FD57B5B7B70B29
:100FD000008013CCEBFF014B814493CBFBFF8D4C86
:100FE000094D79B70C484E862AC6EF0050010357C9
:100FF000C400B2471377F7B7136707082316E40056
:101000001CC8232AB401CE97B38D3D411CC02324B4
:10101000B401A687A68963F3F400A68708403E863C
:10102000DA853EC6EF0010091844B2471D8F18C478
:101030001840BA971CC083A78A004E9BB3843441E2
:10104000B389374123A43A01E39409F2EDB56E86E2
:101050004A85EF009015AA8745F50C484A85ED3E74
:101060008357C40093F7F7F72316F400B1B7184875
:101070006365A700544863F8D402BE8963F3F400A3
:10108000A6894E86DA85EF00F0021C441840B3872B
:1010900037414E971CC418C0D9FFA2854A85EFF08E
:1010A0003F8B51D929BFA68763739C00DE87B3C7E6
:1010B000D70258504C4C5A864A85B386D7020297BD
:1010C000AA89E34AA0F6E5BD032B0A0083294A005A
:1010D0000145210A6DB3634BDC005C504C4C5A86D1
:1010E0004A858297AA84E343A0DED1BD6286DA8571
:1010F000EF00407C1C44E284B38787411CC41C4041
:10110000E2971CC0E1B3797122D44AD052CC56CABE
:1011100006D626D24ECE1304052E0149054AFD5AA5
:1011200019E8B25022544A8592540259F249624A4F
:10113000D24A45618280044483294400FD1963D466
:1011400009000040F1BF83D7C400637CFA00839795
:10115000E4006388570126852EC68295B24533691F
:10116000A90093848406D9BF797122D44AD052CC85
:1011700056CA5AC85EC606D626D24ECE2A8AAE8A2D
:101180001304052E0149054BFD5B09ECB2502254B6
:101190004A8592540259F249624AD24A424BB24BB2
:1011A00045618280044483294400FD1963D4090009
:1011B0000040E1BF83D7C400637BFB008397E4005A
:1011C00063877701A6855285829A3369A900938443
:1011D0008406E1BF1971A6DAAE848395E500A2DC2E
:1011E00086DE328463DC050083D7C40023A00600BA
:1011F00093F7070895EB930700400DA8300836C613
:10120000EF00F052B246E34105FE7247BD67056547
:10121000F98F7977BA9793B717009CC2930700406C
:101220001CC01305058029A0930700041CC00145BC
:10123000F6506654D6540961828083D7C5000111E7
:1012400022CC06CE26CA4AC8898B2E8489CF930722
:1012500034041CC01CC885475CC8F2406244D244B8
:1012600042490561828074003000AA84A537A245F6
:101270002A892685952001ED8317C40013F70720DE
:1012800069FFF19B93E727002316F400C9B797F78E
:10129000FFFF93870778DCDC8357C40008C008C8C9
:1012A00093E707082316F400A2475CC8B24791CF22
:1012B0008315E4002685EF00D04A01C98357C40096
:1012C000F19B93E717002316F4008357C40033699A
:1012D000F9002316240151B7797106D622D426D2FB
:1012E0004AD04ECE52CC56CA5AC85EC662C466C2F6
:1012F0009387B50059476376F70293F487FF63D36A
:101300000402B1471CC10145B25022549254025903
:10131000F249624AD24A424BB24B224C924C45614E
:101320008280C144E3EFB4FC2A89B52D9307701F76
:1013300097F9BF5F9389890F63EC97021387840045
:101340004E974043930687FF93D734006316D4002B
:1013500040478907630C87045C4058441444F19B60
:10136000A297D8C614C7D84313671700D8C351A093
:1013700013D794009307F00301CB914763E0E7088C
:1013800093D7640093878703138717000E074E9740
:101390004043930587FF3D456309B4005840719B66
:1013A00033069740635FC508FD17850703A409014D
:1013B00097F5BF5F93850508630CB40E5840BD4692
:1013C000719B3306974063D9C60893E714005CC04D
:1013D000B306940097F7BF5F23A4D70697F7BF5FC4
:1013E00023AED70493671600CCC68CC6DCC2229706
:1013F00010C34A85552B1305840039B7D14763E5DF
:10140000E7009307B70549B79307400563E7E7008F
:1014100093D7C4009387E70685BF9307401563E71A
:10142000E70093D7F40093877707B9BF9306405539
:101430009307E007E3EAE6F493D724019387C7070D
:10144000A1B75444634806001C44D4C79CC6B307E4
:10145000E40011BF368489B797F6BF5F23A2B6FEBA
:1014600097F6BF5F23ACB6FC6348060022975C4347
:1014700093E717005CC3B5BF9306F01F03A84900AC
:1014800063E8E6140D831356274085460507B39697
:10149000C6000E074E97B3E6060117F6BF5F232975
:1014A000D6F81443130687FF50C414C400C3C0C643
:1014B00013D7274005433313E30003A74900636EA6
:1014C0006704B376670099E6F19B0603B37667007D
:1014D0009107E5DE3D4E93963700CE9636883E85E1
:1014E0000324C80063130419050513773500210888
:1014F00065FB13F737006317071C03A749009347E1
:10150000F3FFF98F17F7BF5F2324F7F203A7490012
:101510000603636467006313031C83AB890003A4A1
:101520004B00937AC4FF63E79A0033879A40BD4724
:1015300063CEE7289707C05F938787B21707C05F1E
:10154000130787AF80431443FD57338C5B01269408
:101550003A8A6397F6184104A2854A85EF00E07D38
:10156000FD572A8B6308F5206374850163943B2142
:10157000970CC05F938C0CAF03A70C0022979707C2
:10158000C05F23A1E7AE63136C1793174C01639FF1
:10159000071483A78900569413641400C0C3170767
:1015A000C05F1307A7AB83A70C0018436376F7004F
:1015B0001707C05F2324F7AA1707C05F1307C7A93F
:1015C00018436379F71A1707C05F2327F7A85DA2AE
:1015D00013569700914663EEC602935667009386B2
:1015E0008603138616000E064E96130586FF1042DC
:1015F0006317C50605478986B316D700B3E606010B
:1016000017F7BF5F2326D7E248C410C400C540C601
:1016100045B5D14663E5C6009306B605D9B793062E
:10162000400563E7C6009356C7009386E60655BF9C
:101630009306401563E7C6009356F7009386760736
:101640004DB7130540559306E007E36CC5F8935674
:1016500027019386C60771B710466306C50054423A
:10166000F19AE36BD7FE484645B758405044719B0A
:10167000B3089740635B1E0393E714005CC01C44EF
:10168000B30694002297D0C71CC697F7BF5F23A963
:10169000D7DA97F7BF5F23A3D7DA93E71800CCC652
:1016A0008CC6DCC223201701A9B363CB08002297A4
:1016B0005C4393E717005CC31C44D0C71CC615BB32
:1016C00032840DB5E1169846FD17E304D7E23DBD1F
:1016D00091070603B3766700E5DEF5BBAA87DDBF99
:1016E00005673D073A94FD777D8CBDB583260A00DA
:1016F000FD57639FF6089707C05F23AF6793137C7E
:101700007B00814763060C00A147B38787413E9B5E
:101710000565338AA7005A947D15B377A400330A70
:10172000FA40337AAA00D2854A85012DFD57631904
:10173000F500228563050C0013058CFF2295014AF4
:1017400083A70C0033056541D2972A9A1707C05F1B
:10175000232AF790136A1A0097F7BF5F23AC67CD6F
:1017600023224B01E38D3BE33D47636B57038547E2
:101770002322FB0083A78900DC43F19B338797403A
:1017800063E59700BD4763C3E7044A85312CA5BED6
:10179000B3078B41BA971707C05F2325F78C85B72E
:1017A00083A74B0013844AFF6198858BC18F23A2C6
:1017B000FB009546B3878B00D4C394C7E37187DEE3
:1017C00093858B004A85EFF02FC9D1BB03A4890014
:1017D00093E714005CC0B307940097F6BF5F23AB98
:1017E000F6C459B693F5F50F2A966314C500014562
:1017F000828083470500E38DB7FE0505FDB7B3C7BB
:10180000A5008D8B3307C50081E78D4763EEC700C8
:10181000AA876370E50A83C6050085078505A38F3F
:10182000D7FEE3EAE7FE828093763500AA8791CA65
:1018300083C6050085078505A38FD7FE93F637007D
:10184000FDB79376C7FF138606FE63F0C70683A332
:10185000050083A2450083AF850003AFC50083AEBA
:10186000050103AE450103A3850183A8C501938546
:10187000450223A0770003A8C5FF23A2570023A495
:10188000F70123A6E70123A8D70123AAC70123ACA8
:10189000670023AE17019387470223AE07FF75B792
:1018A00090419107910523AEC7FEE3EBD7FEE3E439
:1018B000E7F6828063F3A504B386C500637FD50293
:1018C0009345F6FF8147FD176393F50082803387C8
:1018D000F600034807003387C7002A972300070153
:1018E000DDB73387F500834607003307F50085072A
:1018F0002300D700E317F6FE82808147E5BF3D4312
:101900002A876373C3029377F700BDEFADE5937643
:1019100006FF3D8ABA960CC34CC30CC74CC741079F
:10192000E36BD7FE11E28280B306C3408A069702BA
:10193000000096966780A6002307B700A306B700AD
:101940002306B700A305B7002305B700A304B7001B
:101950002304B700A303B7002303B700A302B70013
:101960002302B700A301B7002301B700A300B7000B
:101970002300B700828093F5F50F93968500D58DEF
:1019800093960501D58D61B79396270097020000C5
:1019900096968682E78086FA9680C1171D8F3E96BE
:1019A000E374C3F8A5B782808280397122DC06DE39
:1019B0002E8426DA4AD84ED652D456D25AD05ECE8B
:1019C000B28509EC6254F250D2544259B259225AAB
:1019D000925A025BF24B21616FF01F90AA8A32C6C5
:1019E000D937B245D9479389B50063F6370313FB5E
:1019F00089FF63530B02B14723A0FA00014AF2505A
:101A000062545285D2544259B259225A925A025BB8
:101A1000F24B21618280414BE36FBBFC8326C4FF04
:101A2000930B84FF13F9C6FF635E692F17F7BF5F3F
:101A30001307C79F1047B3872B01D8436308F600ED
:101A40001375E7FF3E954841058929E9719BB30964
:101A5000E900631DF60213050B0163C3A904DA9BB9
:101A6000B389694197F7BF5F23A6779D93E9190072
:101A700023A23B018329C4FF5685228A93F91900CA
:101A8000B3E96901232E34FF053795BF63CA6901A5
:101A9000D8479C47D8C71CC7DE8411AA0147814795
:101AA000858A6394061E832484FFB3849B4003AA23
:101AB0004400137ACAFF4A9A63800716B3094701A4
:101AC0006312F60A93070B0163C8F9149844DC44C7
:101AD0001306C9FF138A84005CC798C71307400226
:101AE000636EC706CD46D28763FCC6001C409CC40B
:101AF0005C40DCC4ED4763E0C70421049387040124
:101B0000184098C35840D8C3184498C7B387640195
:101B1000B389694117F7BF5F232EF79093E9190046
:101B200023A23701DC40858BB3E9670123A234018E
:101B300056859D3DE9B51C449CC85C44DCC86306E1
:101B4000E60041049387840165BF1C4861049CCC76
:101B50000327C4FF93870402D8CC5DB7A2855285C2
:101B6000913B6DB763CA690BD8479C471306C9FF01
:101B700013858400D8C71CC79844DC445CC798C749
:101B80009307400263E7C7084D47637CC7001840CE
:101B900098C45840D8C46D47636AC70421041385AC
:101BA00004011C401CC15C405CC11C441CC5D840E5
:101BB000B38669413D46058BB38734016376D616FB
:101BC000B369EB0023A23401B385640193E61600E8
:101BD000D4C1D843A105568513671700D8C3EFF0C9
:101BE000AF875685D133138A840011BD184498C835
:101BF0005844D8C86306F60041041385840155B7DC
:101C00001C481385040261049CCC8327C4FFDCCCF0
:101C100049BFA285453161BF63496A07DC449844E6
:101C20001306C9FF138584005CC798C79307400259
:101C300063EAC7044D47637CC700184098C4584006
:101C4000D8C46D47636DC7002104138504011C408F
:101C50001CC15C405CC11C441CC5D28989BF1844AE
:101C600098C85844D8C86306F60041041385840117
:101C7000F9BF1C481385040261049CCC8327C4FF70
:101C8000DCCCF1B7A2853D31C9BF5685EFF0CFE47A
:101C90002A8AE30F05E88327C4FF130785FFF99B12
:101CA000DE976398E7008329C5FF93F9C9FFCA99B6
:101CB000E5B31306C9FF9307400263E2C7064D4729
:101CC000637CC704184018C1584058C16D47636110
:101CD000C7021307840093078500144394C3544339
:101CE000D4C3184798C7A2855685EFE0FFF689B59B
:101CF000184418C5584458C56307F6001307040173
:101D000093070501D9BF1C48130784011CC9544817
:101D10009307850154C9D1B7AA8722877DBFA285C1
:101D2000513ED1B7CA898DBBB3E9E90023A2340182
:101D3000D84313671700D8C36DB5411122C42A8454
:101D40002E8597F7BF5F23AD073406C6EF20803599
:101D5000FD576319F50097F7BF5F938767349C437E
:101D600091C31CC0B240224441018280411122C46F
:101D70002E848395E50006C6892C634905003C48FE
:101D8000AA973CC8B2402244410182808357C400D4
:101D90007D777D17F98F2316F400EDB7014582801A
:101DA00083D7C500011122CC26CA4AC84EC606CE2A
:101DB00093F70710AA842E843289B68991C7839538
:101DC000E50089460146F9228357C4007D777D17D7
:101DD000F98F2316F4008315E4006244F240CE86A6
:101DE0004A86B24942492685D24405613DA841113F
:101DF00022C42E848395E50006C6692AFD57035741
:101E0000C400631BF500FD77FD17F98F2316F4005E
:101E1000B2402244410182808567D98F2316F400A5
:101E200028C8FDB78395E50025A8411122C42A845E
:101E30002E85B285368697F7BF5F23A3072606C691
:101E4000EF20802CFD576319F50097F7BF5F93874C
:101E500027259C4391C31CC0B2402244410182808B
:101E6000411122C42A842E8597F7BF5F23AA072237
:101E700006C6EF206017FD576319F50097F7BF5F9F
:101E8000938707229C4391C31CC0B2402244410166
:101E90008280411106C622C426C24AC089E901498E
:101EA000B24022444A859244024941018280AA8478
:101EB0002E8409C51C5D99E3EFE07FBB8317C40046
:101EC000F9DFA2852685EFE01F935C542A8999C724
:101ED0004C4C26858297635305007D598357C40077
:101EE00093F7070889C70C482685EFE0FFD60C5802
:101EF00091C9930704046385F5002685EFE0DFD5DB
:101F0000232804026C4091C52685EFE0FFD42322EC
:101F10000404EFE07FC423160400EFE01FC449B7B8
:101F200097F7BF5F93870711AA8588439DB7411133
:101F300022C42A842E85B28597F7BF5F23A2071695
:101F400006C6EF20800CFD576319F50097F7BF5FB9
:101F5000938707159C4391C31CC0B24022444101A2
:101F60008280411122C42A842E8597F7BF5F23A95E
:101F7000071206C6EF20C00BFD576319F50097F74F
:101F8000BF5F9387E7119C4391C31CC0B2402244BA
:101F900041018280411122C42A842E85B285368671
:101FA00097F7BF5F23AE070E06C6EF20600AFD5706
:101FB0006319F50097F7BF5F9387870E9C4391C322
:101FC0001CC0B240224441018280411122C42A84B3
:101FD0002E85B285368697F7BF5F23A3070C06C60A
:101FE000EF20A009FD576319F50097F7BF5F9387AE
:101FF000270B9C4391C31CC0B24022444101828004
:10200000011106CE22CC00102326A4FE8327C4FE95
:102010009C439C470325C4FE8297AA872E883E8551
:10202000C285F240624405618280011106CE22CC55
:1020300000102326A4FE2320B4FE2322C4FE8327FF
:10204000C4FE9C43DC47832504FE032644FE03258F
:10205000C4FE8297AA873E85F24062440561828071
:10206000011106CE22CC00102326A4FE8327C4FE35
:102070009C439C4B0325C4FE8297AA873E85F24071
:10208000624405618280011106CE22CC0010232615
:10209000A4FE8327C4FE9C43DC4B0325C4FE829729
:1020A000AA873E85F240624405618280011106CE16
:1020B00022CC00102326A4FE8327C4FE9C43DC57B9
:1020C0000325C4FE8297AA873E85F24062440561DB
:1020D0008280011122CE00102326A4FE8327C4FE95
:1020E000634AF0000327C4FE0A0793874181BA9729
:1020F0009C4311A081473E857244056182800000A7
:1021000001A0011106CE22CC00102326A4FE8327B5
:10211000C4FE9C439C430325C4FE8297F240624464
:1021200005618280011106CE22CC00102326A4FE78
:102130002324B4FE2322C4FE2320D4FE8327C4FE1E
:102140009C43DC43832604FE032644FE832584FE51
:102150000325C4FE8297AA873E85F240624405614A
:102160008280011106CE22CC00102326A4FE232457
:10217000B4FE8327C4FE9C439C47832584FE03252D
:10218000C4FE8297AA873E85F24062440561828040
:10219000011106CE22CC00102326A4FE2324B4FE77
:1021A0008327C4FE9C43DC47832584FE0325C4FEAD
:1021B0008297AA873E85F2406244056182800111C0
:1021C00006CE22CC00102326A4FE8327C4FE9C4307
:1021D000DC430325C4FE82970100F240624405619E
:1021E0008280011106CE22CC00102326A4FE832774
:1021F000C4FE9C439C470325C4FE82970100F24025
:10220000624405618280011106CE22CC0010232693
:10221000A4FE8327C4FE9C43DC470325C4FE8297AB
:102220000100F240624405618280757106C722C5D3
:102230000009232EA4F6232CB4F68327C4F781C704
:10224000832784F799E38147BDA0930744F883254A
:10225000C4F73E85EF20A013930744F8832584F745
:102260003E85EF10F07E232604FE81A0B717008084
:102270000327C4FE0A0793874702BA979C43232487
:10228000F4FE832784FE9C439843930744F8BE855D
:10229000032584FE0297AA8781C7832784FE21A88D
:1022A0008327C4FE85072326F4FE0327C4FE89473F
:1022B000E3DEE7FA81473E85BA402A4449618280DD
:1022C000797122D60018232EA4FC8327C4FD23266F
:1022D000F4FE8327C4FE9C4F3E85325445618280C4
:1022E000011106CE22CC00102326A4FE2324B4FE26
:1022F0000325C4FEF137AA873E85F240624405619A
:102300008280797122D60018232EA4FC0325C4FDF7
:102310008328850031657115469508412326A4FE62
:102320000325C4FD83288500316561154695084164
:102330002324A4FE0325C4FD83288500316571157F
:10234000469508418328C4FEE392A8FC0325C4FEF9
:102350002A838143131803008147032584FEAA863C
:102360000147B3E5D7003366E800AE8732883E8583
:10237000C285325445618280011122CE001023268D
:10238000A4FE2320B4FE2322C4FE0327C4FE144768
:10239000116711073697BA867D5798C20327C4FE86
:1023A000144711673697BA86032704FE98C203279D
:1023B00044FE9357070001480327C4FE14471167E2
:1023C000110736971CC381473E85724405618280A0
:1023D000797106D622D40018232EA4FC8327C4FDCD
:1023E0002324F4FE832784FE9C4BA9EF832784FEDD
:1023F000DC4B2322F4FE232604FE15A8832744FE8B
:102400009C4303A84700032784FE8327C4FE91074B
:102410008A07BA97DC47832684FE0146BE850325DA
:1024200044FE02988327C4FE85072326F4FE8327F3
:1024300084FE9C4F0327C4FEE342F7FC832784FEFF
:10244000054798CB0100B2502254456182807971D2
:1024500006D622D40018232EA4FC232CB4FC232A55
:10246000C4FC2328D4FCFD572326F4FE8327C4FD97
:102470002324F4FE832784FEDC4B2322F4FE8327EF
:1024800044FE85C3832744FE9C43DC43832604FD2E
:10249000032644FD832584FD032544FE82972326DD
:1024A000A4FE8327C4FE3E85B2502254456182803B
:1024B000797106D622D40018232EA4FC232CB4FC58
:1024C000FD572326F4FE8327C4FD2324F4FE83272F
:1024D00084FD85C7832784FEDC4B2322F4FE8327FB
:1024E00044FE81CF832744FE9C439C47832584FD83
:1024F000032544FE82972326A4FE01003E85B250A8
:10250000225445618280797106D622D40018232E88
:10251000A4FC232CB4FCFD572326F4FE8327C4FD22
:102520002324F4FE832784FD85C7832784FEDC4BA8
:102530002322F4FE832744FE81CF832744FE9C435D
:10254000DC47832584FD032544FE82972326A4FED1
:1025500001003E85B250225445618280797106D6D1
:1025600022D40018232EA4FC232CB4FC232AC4FC60
:10257000FD572326F4FE8327C4FD2324F4FE0327FE
:1025800084FD954763EBE70C832784FD13972700B1
:10259000B7574020938707AABA979C43828783271F
:1025A00044FDD5CF032584FEA93BAA872E880327A7
:1025B00044FD1CC323220701232604FE4DA08327CC
:1025C00044FDC5C3832744FD03A847009C43BE8543
:1025D0004286032584FE4D33232604FE59A083271B
:1025E00044FDD1C3832744FD9C432322F4FE83276B
:1025F00084FE9C47032744FE0A07BA9723A00700DE
:10260000232604FE8DA0832744FDA5C3832744FD14
:102610009C432322F4FE832784FE9C47032744FE29
:102620000A07BA973E8785471CC3232604FE35A8B0
:10263000232604FE832744FD9DCB832744FD9C4332
:102640002322F4FE832784FE9C47032744FE0A07C7
:10265000BA979C432326F4FE19A8010011A8010093
:1026600001A8010031A0010021A0010011A001007A
:102670008327C4FE3E85B2502254456182800111F9
:1026800022CE00102326A4FE8327C4FE634AF00056
:102690000327C4FE0A0793874181BA979C4311A080
:1026A00081473E85724405618280011122CE00106F
:1026B000F32740F12326F4FE8327C4FE3E857244AF
:1026C00005618280011122CE0010A147F3A70730D7
:1026D0002326F4FE0100724405618280011122CE9E
:1026E0000010A147F3B707302326F4FE010072441F
:1026F00005618280011122CE0010A147F3A7473067
:102700002326F4FE0100724405618280011122CE6D
:102710000010A147F3B747302326F4FE01007244AE
:1027200005618280011122CE001093070008F3A7F3
:1027300047302326F4FE01007244056182800111B6
:1027400022CE001093070008F3B747302326F4FE8B
:102750000100724405618280011122CE001085675C
:1027600093870780F3A747302326F4FE01007244C5
:1027700005618280011122CE001085679387078052
:10278000F3B747302326F4FE0100724405618280CE
:10279000797122D60018232EA4FC8327C4FD054797
:1027A000B317F7002326F4FE8327C4FEF3A74730B0
:1027B0002324F4FE0100325445618280797122D6CF
:1027C0000018232EA4FC8327C4FD0547B317F70088
:1027D0002326F4FE8327C4FEF3B747302324F4FEF8
:1027E0000100325445618280011106CE22CC0010D6
:1027F0002326A4FE2324B4FE13054006EF104075E3
:10280000011106CE22CC00102326A4FE2324B4FE00
:102810001305800CEF10C073797106D622D400180E
:10282000232EA4FC232CB4FC49352A870A0793875E
:102830004181BA979C432326F4FEF32720342324B6
:10284000F4FE8327C4FE95C78327C4FEDC472322FA
:10285000F4FE832784FE93F7F73F032744FE938714
:10286000470E8A07BA979C438325C4FD0325C4FEFF
:1028700082970100B250225445618280797106D658
:1028800022D40018232EA4FC232CB4FC393DAA87A3
:102890003E85F5332326A4FE0325C4FEEF00207BEE
:1028A0002320A4FE2322B4FE832704FE032844FE33
:1028B000A9450146B386B70036853335F5003307A1
:1028C000C800B307E5003E87B6873A88BE854286D2
:1028D0000325C4FEEF00807E0100B2502254456102
:1028E00082800000000000000000000000000000E6
:1028F00000000000000000000000000000000000D8
:10290000197186DE96DC9ADA9ED8A2D6AAD4AED207
:10291000B2D0B6CEBACCBECAC2C8C6C6F2C4F6C21F
:10292000FAC07EDE000151332A870A07938741816E
:10293000BA979C432326F4FAF32720342324F4FA8D
:10294000F32710342322F4FAF32730342320F4FA47
:10295000F3275030232EF4F88327C4FAF9C38327D2
:10296000C4FADC47232CF4F8832784FA93F7F73F63
:10297000232AF4F8832784FA63D70708032744F946
:10298000BD4763D7E7008327C4F993F7F7039DEFAB
:10299000832684F9032744F9BA878607BA978E07F6
:1029A000B69783A7070A2326F4F8832684F903271A
:1029B00044F9BA878607BA978E07B69783A787091F
:1029C0008325C4F8032544F98297A1A88327C4F975
:1029D00013F7F70389476316F704F32770302328AA
:1029E000F4F8832784F983A7470E2326F4F8832776
:1029F00004F92324F4F8832784F88325C4F80325F5
:102A000044F9829739A8032784F9832744F99387E7
:102A1000470E8A07BA979C43832544F90325C4FAD5
:102A20008297F650E6525653C6533654265596555D
:102A30000656F6466647D6474648B648264E964E50
:102A4000064FF25F096173002030000000000000B3
:102A50000000000000000000000000000000000076
:102A60000000000000000000000000000000000066
:102A70000000000000000000797122D60018232E0B
:102A8000A4FC232CB4FCF32750302326F4FE832728
:102A9000C4FE93F707FC2326F4FE832784FD23243A
:102AA000F4FE0327C4FD8547630AF7048327C4FDAA
:102AB000A9CF0327C4FD89476308F7000327C4FD96
:102AC0008D476300F70281A8832784FE93E72700E0
:102AD000739077308327C4FE93E7270073905730B5
:102AE0001DA8832784FE93E73700739077308327F0
:102AF000C4FE93E737007390573031A8832784FED4
:102B000093E717007390573039A0832784FEF19B19
:102B100073905730010001003254456182800111E9
:102B200022CE00102326A4FE8327C4FEF51771478A
:102B3000636DF70013972700B7574020938787AB43
:102B4000BA979C438287854719A0010081473E853B
:102B5000724405618280797106D622D40018232E32
:102B6000A4FC232CB4FC232AC4FC232604FE8327C4
:102B7000C4FD99E3FD5771A0032784FDFD4763E081
:102B8000E708832784FD13972700B75740209387D2
:102B9000C7B2BA979C438287832744FD81C7EFF071
:102BA0007FB2B1A8EFF09FB399A8832744FD81C7F6
:102BB000EFF05FB4A9A0EFF07FB591A0832744FDAB
:102BC00081C7EFF03FB625A8EFF07FB70DA88327A8
:102BD00044FD81C7EFF05FB81DA0EFF0BFB905A0BD
:102BE000832744FD99C7832784FD3E85EFF05FBAB4
:102BF00031A0832784FD3E85EFF05FBC0100832771
:102C0000C4FE3E85B250225445618280797122D63D
:102C10000018232EA4FC232CB4FC232AC4FC8327F5
:102C2000C4FD2326F4FE032784FDAD4763C2E702FB
:102C3000832744FD91CF0327C4FE832784FD938718
:102C4000470E8A07BA97032744FD98C3814711A00E
:102C5000FD573E85325445618280797106D622D473
:102C60000018232EA4FC8327C4FD2322F4FE83270F
:102C700044FE9C47E1EB232604FEB9A0832644FED4
:102C80000327C4FEBA878607BA978E07B69723AC88
:102C90000708832644FE0327C4FEBA878607BA972F
:102CA0008E07B69723AE0708832644FE0327C4FE8B
:102CB000BA878607BA978E07B69723A0070A832795
:102CC000C4FE85072326F4FE0327C4FEFD47E3D791
:102CD000E7FA232404FE1DA0032744FE832784FE75
:102CE0009387470E8A07BA97372740201307877EB6
:102CF00098C3832784FE85072324F4FE032784FEDC
:102D0000AD47E3DBE7FCB7374020938507900145EB
:102D1000A533F32710302320F4FE032704FEC167F8
:102D200093878702F98F99CBF32700302320F4FE95
:102D3000032704FE8967D98F73900730832744FEE9
:102D4000054798C70100B2502254456182807971CD
:102D500006D622D40018232EA4FC232CB4FC232A4C
:102D6000C4FC2328D4FC232604FE8327C4FD23248B
:102D7000F4FE032584FD6533AA8799E3D55739A26C
:102D8000832744FD85CF832684FE032784FDBA87ED
:102D90008607BA978E07B697032744FD23ACE7084A
:102DA000832684FE032784FDBA878607BA978E0799
:102DB000B697032704FD23A0E70AF9A0832784FD23
:102DC000F51771476362F70C13972700B757402038
:102DD0009387C7BABA979C438287832684FE0327CA
:102DE00084FDBA878607BA978E07B6973737402093
:102DF0001307878123ACE708832684FE032784FD1D
:102E0000BA878607BA978E07B697032704FD23AEC5
:102E1000E7089DA8832684FE032784FDBA878607DA
:102E2000BA978E07B697373740201307C78723AC6A
:102E3000E708832684FE032784FDBA878607BA97AE
:102E40008E07B697032704FD23AEE70835A883262F
:102E500084FE032784FDBA878607BA978E07B69744
:102E6000373740201307078023ACE708832684FE0A
:102E7000032784FDBA878607BA978E07B69703277C
:102E800004FD23AEE70801008327C4FE3E85B2504F
:102E9000225445618280011106CE22CC00102326E7
:102EA000A4FE2324B4FE832784FE0546BE850325A5
:102EB000C4FE5531AA873E85F24062440561828096
:102EC000011106CE22CC00102326A4FE2324B4FE3A
:102ED000832784FE0146BE850325C4FEAD39AA873B
:102EE0003E85F240624405618280797106D622D423
:102EF0000018232EA4FC232CB4FC232AC4FC832713
:102F0000C4FD2326F4FE832784FD8DEF832744FD33
:102F100099EBB737402093850790032544FDEFF0E8
:102F2000BFB581470DA0032744FD8547631CF7000B
:102F30008327C4FEC107BE85032544FDEFF0DFB340
:102F4000814711A0FD573E85B250225445618280D1
:102F5000797106D622D40018232EA4FC232CB4FCAD
:102F60008327C4FD2326F4FE832784FD91EBB73726
:102F70004020938507900145EFF01FB0814711A0D5
:102F8000FD573E85B250225445618280011122CE08
:102F900000102326A4FE2324B4FE2322C4FE81476E
:102FA0003E85724405618280397122DE80002326CD
:102FB000A4FC01438143232464FE232674FE73256D
:102FC00000B82322A4FE732500B02320A4FE73259D
:102FD00000B8232EA4FC832844FE0325C4FD63957A
:102FE000A802032544FEAA850146139805008147DF
:102FF000032604FEB286014733E6D7002324C4FE2D
:10300000B367E8002326F4FE832784FE0328C4FE6A
:103010003E85C285725421618280797122D6001862
:10302000232EA4FC0327C4FD2326E4FE0327C4FEAD
:1030300001E78147014839A00327C4FE1847BA8732
:103040007D873A883E85C2853254456182803971D8
:1030500006DE22DC80002326A4FC81470148232CC5
:10306000F4FC232E04FD8327C4FC2326F4FE8327CF
:10307000C4FEDC4795CB8327C4FEDC472324F4FE43
:10308000832784FE83A747142322F4FE832744FE6C
:1030900081CF832744FE9C43984F930784FD3E864F
:1030A0008545032544FE0297832784FD0328C4FD3C
:1030B0003E85C285F250625421618280797106D6C4
:1030C00022D40018232EA4FC2328B4FC232AC4FCF9
:1030D000FD572326F4FE8327C4FD2324F4FE832713
:1030E00084FEDC4785CF832784FEDC472322F4FE61
:1030F000832744FE83A747142320F4FE832704FE7E
:1031000091CF832704FE9C43984F930704FD3E868E
:103110008945032504FE02972326A4FE8327C4FEC7
:103120003E85B250225445618280011122CE0010AA
:103130002326A4FEB71700809387C7843E85724478
:1031400005618280011122CE00102326A4FE9D4736
:103150003E85724405618280011122CE0010232633
:10316000A4FEB71700809387C7843E85724405612B
:103170008280011122CE00102326A4FE8D473E85B9
:10318000724405618280797106D622D40018232EFC
:10319000A4FC232CB4FCFD572326F4FE8327C4FD96
:1031A0002324F4FE832784FEDC4785CF832784FE17
:1031B000DC472322F4FE832744FE83A7470E232007
:1031C000F4FE832704FE91CF832704FE9C43984F8F
:1031D000930784FD3E869145032504FE029723262E
:1031E000A4FE8327C4FE3E85B250225445618280EE
:1031F000797106D622D40018232EA4FC232CB4FC0B
:10320000FD572326F4FE8327C4FD2324F4FE8327E1
:1032100084FEDC4785CF832784FEDC472322F4FE2F
:10322000832744FE83A7470E2320F4FE832704FE52
:1032300091CF832704FE9C43984F930784FD3E86DD
:103240008D45032504FE02972326A4FE8327C4FE92
:103250003E85B250225445618280797106D622D4CF
:103260000018232EA4FC232CB4FC232604FE832761
:10327000C4FD2324F4FE832784FEDC4785CF832707
:1032800084FEDC472322F4FE832744FE83A7470EF7
:103290002320F4FE832704FE91CF832704FE9C4362
:1032A000984F930784FD3E869545032504FE0297BB
:1032B0002326A4FE8327C4FE3E85B25022544561D6
:1032C0008280797122D60018232EA4FC8327C4FDA6
:1032D0002326F4FE8327C4FEDC473E853254456135
:1032E0008280797106D622D40018232EA4FC232CC8
:1032F000B4FC232AC4FC8327C4FD2326F4FE8327C1
:10330000C4FEDC4789CF8327C4FEDC47032644FD87
:10331000832584FD3E85EFF07F8FAA8711A0FD579E
:103320003E85B250225445618280011122CE0010A8
:103330002326A4FE2324B4FE832784FE83D707001C
:103340008D8B99C3914711A089473E8572440561D1
:103350008280797122D60018232EA4FCF327103422
:103360002326F4FE8327C4FE3E85325445618280C5
:10337000011122CE00102326A4FE2324B4FE8327AD
:1033800084FE7390173481473E85724405618280C4
:10339000011122CE00102326A4FE8327C4FE9847E5
:1033A000B70720009107BA979C433E857244056198
:1033B0008280011122CE00102326A4FE2324B4FE15
:1033C0008327C4FE9847B70720009107BA973E8726
:1033D000832784FE1CC301007244056182800111B1
:1033E00022CE00102326A4FE2324B4FE8327C4FE8D
:1033F0009847B7072000BA973E87832784FE1CC3EF
:103400000100724405618280011122CE0010232642
:10341000A4FE2324B4FE2322C4FE8327C4FE9C4FB3
:1034200085C78327C4FE9C4F3E87832744FE63FDE8
:10343000E7008327C4FE9C47032784FE0A07BA9748
:103440003E87832744FE1CC30100724405618280CD
:10345000797106D622D40018232EA4FC232CB4FCA8
:10346000232AC4FCEFF06FA42326A4FE8327C4FD07
:103470009C47032784FD15870A073E978967BA97FB
:103480009C432324F4FE832744FD81CF832784FDBE
:10349000FD8B0547B317F7003E87832784FED98F3E
:1034A00029A8832784FDFD8B0547B317F70093C731
:1034B000F7FF3E87832784FEF98F0327C4FD184753
:1034C000832684FD95868A06BA96096736971CC3BB
:1034D0000100B250225445618280011106CE22CCF7
:1034E00000102326A4FE2324B4FE1305C012EF000F
:1034F0003026797106D622D40018232EA4FC232C62
:10350000B4FC832784FD2326F4FE0325C4FE49353D
:103510002324A4FE8327C4FEDC4F3E87832784FE3A
:1035200063F4E7040327C4FE832784FEA1078A0708
:10353000BA979C4795CB0327C4FE832784FEA10737
:103540008A07BA9703A88700032684FE8326C4FE51
:10355000032784FEBA878607BA978E07B69783A794
:10356000870ABE8532850298832584FE0325C4FE22
:1035700089350100B250225445618280797106D6A6
:1035800022D40018232EA4FC8327C4FD2324F4FE98
:10359000832784FE9C53639B070E832784FE9C4BEA
:1035A0002322F4FE832744FE9C439C43032544FED0
:1035B0008297232604FE8DA001468325C4FE0325A1
:1035C00084FE793501468325C4FE032584FE2D3D06
:1035D000032784FE8327C4FEA1078A07BA9723A482
:1035E0000700832684FE0327C4FEBA878607BA979E
:1035F0008E07B69723A2070A832684FE0327C4FEFC
:10360000BA878607BA978E07B69723A4070A832737
:10361000C4FE85072326F4FE832784FEDC4F0327A0
:10362000C4FEE34BF7F88145032584FE4D3B832719
:1036300044FE9C43D843832784FEDC4B832684FED0
:103640000146BE85032544FE0297832744FE9C4322
:1036500003A84700832784FED84B832684FEB73710
:1036600040201386274FBA85032544FE02988327FE
:1036700044FE9C439847832784FEDC4BBE8503258C
:1036800044FE0297832784FE054798D30100B25079
:10369000225445618280797106D622D40018232EE7
:1036A000A4FC232CB4FC232AC4FC2328D4FC8327A9
:1036B000C4FD2326F4FE8327C4FEDC4F032784FDCC
:1036C0006344F700FD5751A0832744FD9DCF094671
:1036D000832584FD0325C4FE053B0327C4FE832701
:1036E00084FDA1078A07BA97032744FD98C783265C
:1036F000C4FE032784FDBA878607BA978E07B6975C
:10370000032704FD23A4E70A81A00546832584FD41
:103710000325C4FED5390327C4FE832784FDA107F2
:103720008A07BA97373740201307A74D98C78326D3
:10373000C4FE032784FDBA878607BA978E07B6971B
:10374000032704FD23A2E70A81473E85B250225495
:1037500045618280797106D622D40018232EA4FCFC
:10376000232CB4FC8327C4FD2326F4FE8327C4FE48
:10377000DC4F032784FD6344F700FD5701A805468D
:10378000832584FD0325C4FEE13181473E85B25087
:10379000225445618280797106D622D40018232EE6
:1037A000A4FC232CB4FC8327C4FD2326F4FE83272A
:1037B000C4FEDC4F032784FD6344F700FD5701A8D6
:1037C0000146832584FD0325C4FE593181473E858A
:1037D000B250225445618280797106D622D40018F5
:1037E000232EA4FC232CB4FC8327C4FD2326F4FE43
:1037F0008327C4FEDC47832584FD3E85EF005027E8
:10380000AA8799E3854711A081473E85B25022548B
:1038100045618280797106D622D40018232EA4FC3B
:103820008327C4FD2326F4FE8327C4FE9C479DC343
:103830008327C4FE98478327C4FE9C4BBE853A85E8
:10384000E5238327C4FE98478327C4FE9C4BBE858F
:103850003A85192D0100B250225445618280797158
:1038600006D622D40018232EA4FC8327C4FD2326C9
:10387000F4FE8327C4FE9C4799CB8327C4FE984758
:103880008327C4FE9C4B0546BE853A85312D010039
:10389000B250225445618280797106D622D4001834
:1038A000232EA4FC8327C4FD2326F4FE8327C4FE15
:1038B0009C4799CB8327C4FE98478327C4FE9C4B23
:1038C0000146BE853A85CD230100B25022544561A0
:1038D0008280797106D622D40018232EA4FC832777
:1038E000C4FD2326F4FE8327C4FE9C4791CB832787
:1038F000C4FE98478327C4FE9C4BBE853A85092D9C
:103900000100B250225445618280797122D600189C
:10391000232EA4FC232CB4FC8327C4FD2326F4FE11
:103920008327C4FE9C4791079C43032784FD1347CC
:10393000F7FFBA860327C4FE18471107F58F1CC38B
:1039400081473E85325445618280797122D60018C4
:10395000232EA4FC8327C4FD2326F4FE8327C4FE64
:103960009C47B1079C433E85325445618280797102
:1039700022D60018232EA4FC232CB4FC8327C4FDDC
:103980002326F4FE8327C4FE9C47A1079843832780
:1039900084FD8326C4FE9446A106D98F9CC281472C
:1039A0003E85325445618280797122D60018232EDB
:1039B000A4FC232CB4FC8327C4FD2326F4FE832718
:1039C000C4FE9C47B1079843832784FD8326C4FE29
:1039D0009446B106D98F9CC281473E8532544561D9
:1039E0008280797122D60018232EA4FC232CB4FCEB
:1039F0008327C4FD2326F4FE8327C4FE9C47B1071A
:103A00009C43032784FD1347F7FFBA860327C4FEB0
:103A100018473107F58F1CC381473E8532544561F5
:103A20008280797122D60018232EA4FC232CB4FCAA
:103A30008327C4FD2326F4FE8327C4FE9C47B107D9
:103A40009843832784FD8326C4FE9446B106B98F2C
:103A50009CC281473E85325445618280797122D66D
:103A60000018232EA4FC232CB4FC232AC4FC832797
:103A7000C4FD2326F4FE8327C4FE9C479387C70317
:103A80009C43032784FD1347F7FFBA860327C4FE30
:103A900018471307C703F58F1CC38327C4FE9C4731
:103AA000938787039843832744FD8326C4FE944667
:103AB00093868603D98F9CC281473E8532544561E7
:103AC0008280797122D60018232EA4FC8327C4FD9E
:103AD0002326F4FE8327C4FEDC533E853254456121
:103AE0008280797122D60018232EA4FC8327C4FD7E
:103AF0002326F4FE8327C4FEDC57938707023E8506
:103B0000325445618280011122CE00102326A4FE8A
:103B1000AE87A305F4FE01008327C4FEDC479C4367
:103B2000E3CC07FE8327C4FEDC473E878347B4FE11
:103B30001CC381473E85724405618280797122D61B
:103B40000018232EA4FC232CB4FCB70700802326E6
:103B5000F4FE01A88327C4FDDC4791079C4323267C
:103B6000F4FE8327C4FEE3C707FE8327C4FE13F7D2
:103B7000F70F832784FD2380E70081473E85325479
:103B800045618280797122D60018232EA4FC8327F8
:103B9000C4FD2326F4FE8327C4FEDC4B3E8532544D
:103BA00045618280797106D622D40018232EA4FCA8
:103BB000232CB4FC8327C4FD2326F4FE032784FDB5
:103BC0008327C4FED8CB8327C4FE9C47B5C3832775
:103BD000C4FE9C479C4398438327C4FE9C473E8574
:103BE00002972324A4FE032784FE832784FDB34782
:103BF000F7021387F7FF8327C4FEDC47E10798C36A
:103C00008327C4FEDC47A1079C430327C4FE584713
:103C1000210793E717001CC38327C4FEDC47B107C5
:103C20009C430327C4FE5847310793E717001CC382
:103C300081473E85B250225445618280397106DE4B
:103C400022DC80002326A4FC8327C4FC2326F4FE68
:103C50008327C4FEDC47A10798438327C4FEDC47C3
:103C6000A107BE86B707F9FFFD17F98F9CC283270E
:103C7000C4FEDC47A10798438327C4FEDC47A107A5
:103C8000BE86C167D98F9CC201008327C4FEDC4772
:103C9000D1079C43858BF5DB8327C4FEDC47A10756
:103CA0009C43898B99C3A54711A0A9472324F4FEFF
:103CB0008327C4FE9C479C4398438327C4FE9C47AC
:103CC0003E8502972322A4FE032784FE832744FE19
:103CD000B307F7023E878327C4FEDC4BB357F702D6
:103CE0002320F4FE232E04FC39A001008327C4FD09
:103CF0008507232EF4FC8327C4FD032704FEE3C6B7
:103D0000E7FE0100F250625421618280797106D68B
:103D100022D40018232EA4FC8327C4FD2326F4FEFE
:103D20000327C4FE8327C4FEDC4BBE853A8571247D
:103D30000100B250225445618280797106D622D4A6
:103D40000018232EA4FC232CB4FC8327C4FD2326B7
:103D5000F4FE8327C4FE9C479DC78327C4FE984773
:103D60000326C4FEB74740209385C7C33A85B928C8
:103D70008327C4FE98470326C4FEB7474020938597
:103D8000C7D03A859D288327C4FE832584FD3E85C0
:103D90002D248327C4FE9C4F8DC78327C4FE9C4FD0
:103DA000DC4303A887018327C4FE984F8327C4FE02
:103DB000DC4FBE868327C4FE9C533E86B6853A857B
:103DC00002980100B250225445618280011122CE36
:103DD00000102326A4FE2324B4FE2322C4FE83273E
:103DE000C4FE032784FED8C38327C4FE032744FEF2
:103DF00098C70100724405618280011122CE001033
:103E00002326A4FE2324B4FE2322C4FE8327C4FE5B
:103E1000032784FED8C78327C4FE032744FE98CB1C
:103E20000100724405618280011106CE22CC00108F
:103E30002326A4FE2324B4FE8327C4FE99E38547EA
:103E400039A88327C4FE9C439443832784FE0547F7
:103E5000B317F700BE850325C4FE8296AA873E8568
:103E6000F240624405618280011106CE22CC00102E
:103E70002326A4FE2324B4FE8327C4FE99E38547AA
:103E800039A88327C4FE9C439447832784FE0547B3
:103E9000B317F700BE850325C4FE8296AA873E8528
:103EA000F240624405618280011106CE22CC0010EE
:103EB0002326A4FE2324B4FE2322C4FE8327C4FEAB
:103EC00099E3854789A0832744FE85E38327C4FEC1
:103ED0009C43944B832784FE0547B317F700BE85A8
:103EE0000325C4FE8296AA8739A88327C4FE9C4373
:103EF000D447832784FE0547B317F700BE85032503
:103F0000C4FE8296AA873E85F240624405618280A3
:103F1000011106CE22CC00102326A4FE2324B4FED9
:103F20008327C4FE99E3854739A88327C4FE9C43B1
:103F3000D44B832784FE0547B317F700BE850325BE
:103F4000C4FE8296AA873E85F24062440561828063
:103F5000011122CE00102326A4FE0100FDBF011195
:103F600006CE22CC00102326A4FE2324B4FE8327F1
:103F7000C4FE9C439C43832584FE0325C4FE829794
:103F8000F240624405618280011106CE22CC00100D
:103F90002326A4FEAE87A305F4FE8327C4FE9C431C
:103FA000D8438347B4FEBE850325C4FE0297AA8783
:103FB0003E85F240624405618280011106CE22CC2A
:103FC00000102326A4FE2324B4FE8327C4FE9C43B2
:103FD0009C4B832584FE0325C4FE8297AA873E85D9
:103FE000F240624405618280011106CE22CC0010AD
:103FF0002326A4FE71222A87930780051CC3FD5740
:104000003E85F240624405618280011106CE22CCD9
:1040100000102326A4FE2324B4FE9D222A879307A2
:1040200080FA1CC3FD573E85F240624405618280E0
:10403000011122CE00102326A4FE8327C4FEFD1703
:1040400093B7170093F7F70F3E857244056182809E
:10405000011106CE22CC00102326A4FE2324B4FE98
:104060002322C4FE312A2A87930780051CC3FD57EB
:104070003E85F240624405618280011106CE22CC69
:1040800000102326A4FE2324B4FE2322C4FECD2840
:104090002A87930780051CC3FD573E85F240624482
:1040A00005618280797122D60018232EA4FC83A793
:1040B00081812326F4FE138701C7B74700809387C9
:1040C00007006314F700814725A803A78181832790
:1040D000C4FD3E97B747008093870700637AF700D7
:1040E00003A781818327C4FD3E9723ACE18039A0DB
:1040F000374700801307070023ACE1808327C4FE05
:104100003E85325445618280797106D622D40018EA
:10411000232EA4FC232CB4FC232AC4FC0327C4FDB7
:1041200085476309F700A9282A87930780051CC3E0
:10413000FD572DA8832784FD2324F4FE232604FEA7
:1041400039A8032784FE8327C4FEBA9783C70700D4
:104150003E85B92E8327C4FE85072326F4FE032758
:10416000C4FE832744FDE36EF7FC81473E85B250D1
:10417000225445618280AA858146014601450DA4ED
:1041800097D7BF5F938707EB8843828041118145B2
:1041900022C406C62A84B5249387018288435C5DC5
:1041A00091C3829722854926411197C7BFDF938724
:1041B00067E522C417C4BFDF1304C4E41D8C26C204
:1041C00006C60984BE8419E42244B24092444101E7
:1041D0006FB03FF67D1493172400A6979C438297F7
:1041E000DDB74111971700009387D7A422C4171495
:1041F0000000130434A41D8C26C24AC006C60984DC
:1042000081443E8963988402EFB0BFF297170000A3
:10421000938787A217140000130444A21D8C0984FD
:1042200081443E89639F8400B24022449244024903
:104230004101828093972400CA979C43850482970A
:10424000D1B793972400CA979C4385048297D9BF1E
:10425000AA8703C707009386170009EB850503C7E4
:10426000F5FF8507A38FE7FE75FB8280B687D5B77C
:104270003367B500FD530D8B79E7B7877F7F938751
:10428000F7F710419441B372F6003363F600BE9223
:10429000B3E262006397720C6318D6065041D441B2
:1042A000B372F6003363F600BE92B3E26200639825
:1042B000720A631BD60410459445B372F60033634B
:1042C000F600BE92B3E262006391720A631ED602E8
:1042D0005045D445B372F6003363F600BE92B3E2A4
:1042E0006200639A72086311D60210499449B3724E
:1042F000F6003363F600BE92B3E262006393720885
:104300005105D105E30FD6F6131706019397060161
:10431000631CF7001357060193D706013305F740D6
:104320009375F50F91E982804183C1833305F7408E
:104330009375F50F91E182801377F70F93F7F70FDD
:104340003305F74082800346050083C60500050556
:1043500085056313D60065FA3305D64082801105C2
:104360009105E312D6FE014582802105A105E31CDB
:10437000D6FC014582803105B105E316D6FC014526
:1043800082804105C105E310D6FC01458280AA87E1
:1043900003C7050085078505A38FE7FE75FB8280AF
:1043A0009387018298432A838327871489E7930799
:1043B000C7142324F714D8437D487D556342E8048D
:1043C0009318270063090302338517012324C508C6
:1043D00003A8871805463316E6003368C80023A4EF
:1043E00007192324D51089466317D30083A6C7185D
:1043F000558E23A6C7180507D8C3C6978CC7014595
:1044000082807971938701824ECE83A9070052CCB6
:1044100056CA5AC806D622D426D24AD05EC6AA8A1E
:104420002E8A054B83A4891481C8C0401309F4FF68
:104430000A042694635D0900B25022549254025932
:10444000F249624AD24A424BB24B456182806309CB
:104450000A0083274410638547017D197114D9BF71
:10446000D8405C407D176316270323A22401F5D7AB
:1044700083A6841833172B0183AB4400F98E89EE91
:104480008297DC40E39077FB83A78914E38797FC4E
:1044900051BF23220400E1BF83A6C418832544082A
:1044A000758F01E756858297E9BF2E858297D1BF28
:1044B000797106D622D40018AA87A30FF4FC03470B
:1044C000F4FDA9476311F702B545B71700801385BE
:1044D00087FBEFF07FAB2326A4FE8327C4FE81C7B2
:1044E0008327C4FE19A88347F4FDBE85B717008053
:1044F000138587FBEFF05FA9AA873E85B25022544F
:1045000045618280411106C622C40008F167938587
:104510000720B7170080138587FBEFF05FA4010029
:10452000B240224441018280011106CE22CC00100B
:0C4530002326A4FE0325C4FEEFF09FA18B
:10453C00202020202020202020202020202020206F
:10454C0020205349464956452C20494E432E000005
:10455C0020202020202020202020203535353535E6
:10456C0035353535353535353535353535353535EF
:10457C00353535350000000020202020202020205B
:10458C0020203535353520202020202020202020CB
:10459C00202020202020202020353535350000001B
:1045AC0020202020202020202035353535202020AB
:1045BC0020202020202020202020202020202020EF
:1045CC0020203535353500002020202020202020CB
:1045DC00353535352020202020202020202020207B
:1045EC00202020202020202020202035353535008B
:1045FC00202020202020203535353520202020205B
:10460C002020353535353535353535353535353578
:10461C003535353535353535000000002020202066
:10462C0020203535353520202020202020353535EB
:10463C00353535353535353535353535353535351E
:10464C003535353535000000202020202035353516
:10465C003520202020202020202020202020202039
:10466C002020202020202020202020202020353514
:10467C0035350000202020203535353520202020F0
:10468C00202020202020202020202020202020201E
:10469C0020202020202020202020203535353500DA
:1046AC0020202035353535202020202020202020AA
:1046BC0020202020202020202020202020202020EE
:1046CC00202020202020202035353535000000000A
:1046DC0020203535353535353535353535353535A8
:1046EC003535353535353535353535353535202098
:1046FC0020202020202020203535353535000000A5
:10470C002020203535353535202020202020202034
:10471C0020202035353535353535353520202020D0
:10472C002020202020202035353535350000000094
:10473C002020202020353535353520202020202004
:10474C0020202020203535353535202020202020F4
:10475C002020202020353535353500002020202024
:10476C0020202035353535352020202020202020D4
:10477C002020203520202020202020202020203503
:10478C003535353500000000202020202020202049
:10479C0020353535353520202020202020202020A4
:1047AC0020202020202020202035353535350000D4
:1047BC002020202020202020202020353535353584
:1047CC0020202020202020202020202020202035C8
:1047DC0035353535000000002020202020202020F9
:1047EC002020202020353535353520202020202054
:1047FC002020202020353535353500002020202084
:10480C002020202020202020202020353535353533
:10481C0020202020202020353535353500000000A3
:10482C00202020202020202020202020202020207C
:10483C0020353535353520202035353535350000DA
:10484C00202020202020202020202020202020205C
:10485C00202020353535353535353535000000000F
:10486C00202020202020202020202020202020203C
:10487C002020202020353535353500002020202003
:10488C00202020202020202020202020202020201C
:10489C002020203500000000202020202020202077
:1048AC002020202020202057656C636F6D652074BC
:1048BC006F205369466976652100000072656400BB
:1048CC004C443000677265656E000000626C756563
:1048DC00000000004174206C65617374206F6E657C
:1048EC00206F66204C454473206973206E756C6C88
:1048FC002E000000435055206E756C6C2E0000008D
:10490C0043505520696E7465727275707420636FB4
:10491C006E74726F6C6C6572206973206E756C6C42
:10492C002E00000054494D455220696E7465727218
:10493C0075707420636F6E74726F6C6C6572206925
:10494C007320206E756C6C2E0000000054494D4590
:10495C005220696E746572727570742068616E6431
:10496C006C657220726567697374726174696F6EBD
:10497C00206661696C65640043505520696E7465EE
:10498C00727275707420656E61626C652066616907
:10499C006C6564000A0000005A2C40204E2D40200B
:1049AC00962E4020C02E4020EA2E4020502F402032
:1049BC008C2F4020A82F40201A3040204E30402011
:1049CC00BC3040202A314020443140205831402016
:1049DC007231402086314020F03140205A32402044
:1049EC00C2324020E23240202A3340205233402051
:1049FC0070334020D02340204E244020B02440204F
:104A0C000625402000000000000000005C2540202E
:104A1C007C35402096364020543740209637402035
:104A2C000000000000000000000000000A394020D7
:104A3C004A3940206E394020A8394020E2394020C4
:104A4C00223A40205C3A40203A3D4020063B402030
:104A5C003C3B4020843B4020A43B4020C23A4020B9
:104A6C00E23A4020D8374020143840205E384020AD
:104A7C0098384020D23840204C4430726564000095
:104A8C004C4430677265656E000000004C44306227
:104A9C006C7565005A2640209E254020BE2540207E
:104AAC00DE2540200626402030264020462B402084
:104ABC004A2B40204A2B40204A2B4020462B40209A
:104ACC004A2B40204A2B40204A2B4020462B40208A
:104ADC004A2B40204A2B40204A2B40204A2B402076
:104AEC00462B4020462B4020462B4020462B402076
:104AFC00462B4020462B4020462B4020462B402066
:104B0C00462B4020462B4020462B4020462B402055
:104B1C00462B4020462B4020462B4020462B402045
:104B2C00982B4020FE2B4020FE2B4020AA2B40200F
:104B3C00FE2B4020FE2B4020FE2B4020BC2B402087
:104B4C00FE2B4020FE2B4020FE2B4020CE2B402065
:104B5C00FE2B4020FE2B4020FE2B4020FE2B402025
:104B6C00E02B4020E02B4020E02B4020E02B40208D
:104B7C00E02B4020E02B4020E02B4020E02B40207D
:104B8C00E02B4020E02B4020E02B4020E02B40206D
:104B9C00E02B4020E02B4020E02B4020E02B40205D
:104BAC00DA2D4020882E4020882E4020882E402050
:104BBC00142E4020882E4020882E4020882E402005
:104BCC004E2E4020882E4020882E4020882E4020BB
:104BDC00882E40204E2E40204E2E40204E2E40201F
:104BEC004E2E40204E2E40204E2E40204E2E402049
:104BFC004E2E40204E2E40204E2E40204E2E402039
:104C0C004E2E40204E2E40204E2E40204E2E402028
:104C1C004E2E4020284C4020000000006C6962673A
:054C2C006C6F737300C2
:044C340004454020D3
:104C380000000000EC02008054030080BC030080E8
:104C4800000000000000000000000000000000005C
:104C5800000000000000000000000000000000004C
:104C6800000000000000000000000000000000003C
:104C7800000000000000000000000000000000002C
:104C8800000000000000000000000000000000001C
:104C9800000000000000000000000000000000000C
:104CA80000000000000000000000000000000000FC
:104CB80000000000000000000000000000000000EC
:104CC80000000000000000000000000000000000DC
:104CD80000000000000000000100000000000000CB
:104CE8000E33CDAB34126DE6ECDE05000B00000090
:104CF80000000000000000000000000000000000AC
:104D0800000000000000000000000000000000009B
:104D1800000000000000000000000000000000008B
:104D2800000000000000000000000000000000007B
:105068002804008028040080300400803004008078
:105078003804008038040080400400804004008028
:1050880048040080480400805004008050040080D8
:105098005804008058040080600400806004008088
:1050A8006804008068040080700400807004008038
:1050B80078040080780400808004008080040080E8
:1050C8008804008088040080900400809004008098
:1050D8009804008098040080A0040080A004008048
:1050E800A8040080A8040080B0040080B0040080F8
:1050F800B8040080B8040080C0040080C0040080A8
:10510800C8040080C8040080D0040080D004008057
:10511800D8040080D8040080E0040080E004008007
:10512800E8040080E8040080F0040080F0040080B7
:10513800F8040080F8040080000500800005008065
:105148000805008008050080100500801005008013
:1051580018050080180500802005008020050080C3
:105168002805008028050080300500803005008073
:105178003805008038050080400500804005008023
:1051880048050080480500805005008050050080D3
:105198005805008058050080600500806005008083
:1051A8006805008068050080700500807005008033
:1051B80078050080780500808005008080050080E3
:1051C8008805008088050080900500809005008093
:1051D8009805008098050080A0050080A005008043
:1051E800A8050080A8050080B0050080B0050080F3
:1051F800B8050080B8050080C0050080C0050080A3
:10520800C8050080C8050080D0050080D005008052
:10521800D8050080D8050080E0050080E005008002
:10522800E8050080E8050080F0050080F0050080B2
:10523800F8050080F8050080000600800006008060
:10524800080600800806008010060080100600800E
:1052580018060080180600802006008020060080BE
:10526800280600802806008030060080300600806E
:10527800380600803806008040060080400600801E
:1052880048060080480600805006008050060080CE
:10529800580600805806008060060080600600807E
:1052A800680600806806008070060080700600802E
:1052B80078060080780600808006008080060080DE
:1052C800880600808806008090060080900600808E
:1052D8009806008098060080A0060080A00600803E
:1052E800A8060080A8060080B0060080B0060080EE
:1052F800B8060080B8060080C0060080C00600809E
:10530800C8060080C8060080D0060080D00600804D
:10531800D8060080D8060080E0060080E0060080FD
:10532800E8060080E8060080F0060080F0060080AD
:10533800F8060080F806008000070080000700805B
:105348000807008008070080100700801007008009
:1053580018070080180700802007008020070080B9
:105368002807008028070080300700803007008069
:105378003807008038070080400700804007008019
:1053880048070080480700805007008050070080C9
:105398005807008058070080600700806007008079
:1053A8006807008068070080700700807007008029
:1053B80078070080780700808007008080070080D9
:1053C8008807008088070080900700809007008089
:1053D8009807008098070080A0070080A007008039
:1053E800A8070080A8070080B0070080B0070080E9
:1053F800B8070080B8070080C0070080C007008099
:10540800C8070080C8070080D0070080D007008048
:10541800D8070080D8070080E0070080E0070080F8
:10542800E8070080E8070080F0070080F0070080A8
:10543800F8070080F8070080000800800008008056
:105448000808008008080080100800801008008004
:1054580018080080180800802008008020080080B4
:105468003C10008000000000000000000000000068
:10547800000000003C10008040D2DF03004A4020BA
:10548800004A402000000002000001000000000067
:1054980080080080020000000300000007000000F0
:1054A800C0494020C049402040420F008008008089
:1054B800A4494020A4494020000000000100000049
:1054C80000000000000000000000000000000000D4
:1054D80000000000000000000000000000000000C4
:1054E80000000000000000000000000000000000B4
:1054F80000000000000000000000000000000000A4
:105878001C4A40201C4A40200000000C0000000484
:10588800800800800B000000070000001B000000DB
:1058980000000000010000000000000000000000FF
:1058A80000000000000000000000000000000000F0
:1058B80000000000000000000000000000000000E0
:1058C80000000000000000000000000000000000D0
:1058D80000000000000000000000000000000000C0
:105B9800384A4020384A40200020011000100000F8
:105BA800400C008010000000070000000800000002
:105BB800090000000A0000000B0000000C000000B3
:105BC8000D0000000E0000000F0000001000000093
:105BD8001100000012000000130000001400000073
:105BE8001500000016000000544A4020544A402086
:105BF8003008008000300110001000000000000094
:105C0800600F00800000030000000300400C0080CB
:105C18000100000005000000704A4020704A402042
:105C2800600F0080844A402000000000704A402035
:105C3800704A4020600F00808C4A4020010000001C
:105C4800704A4020704A4020600F0080984A4020E7
:105C580002000000E80F0080FC0F00801010008098
:105C680000000080FFFFFFFF00000200C02240206C
:105C7800E022402070080080A0140080000000008E
:045C88000000008098
:040000052040000097
:00000001FF
